{
  "contractName": "TronStaking",
  "abi": [
    {
      "constant": true,
      "inputs": [],
      "name": "PERCENTS_DIVIDER",
      "outputs": [
        {
          "name": "",
          "type": "uint256"
        }
      ],
      "payable": false,
      "stateMutability": "view",
      "type": "function"
    },
    {
      "constant": true,
      "inputs": [],
      "name": "maxLimit",
      "outputs": [
        {
          "name": "",
          "type": "uint256"
        }
      ],
      "payable": false,
      "stateMutability": "view",
      "type": "function"
    },
    {
      "constant": true,
      "inputs": [],
      "name": "minLimit",
      "outputs": [
        {
          "name": "",
          "type": "uint256"
        }
      ],
      "payable": false,
      "stateMutability": "view",
      "type": "function"
    },
    {
      "constant": true,
      "inputs": [],
      "name": "luckyOwner",
      "outputs": [
        {
          "name": "",
          "type": "address"
        }
      ],
      "payable": false,
      "stateMutability": "view",
      "type": "function"
    },
    {
      "constant": true,
      "inputs": [],
      "name": "TIME_STEP",
      "outputs": [
        {
          "name": "",
          "type": "uint256"
        }
      ],
      "payable": false,
      "stateMutability": "view",
      "type": "function"
    },
    {
      "constant": true,
      "inputs": [],
      "name": "TEAM_LEVELS",
      "outputs": [
        {
          "name": "",
          "type": "uint256"
        }
      ],
      "payable": false,
      "stateMutability": "view",
      "type": "function"
    },
    {
      "constant": true,
      "inputs": [],
      "name": "totalWithdrawn",
      "outputs": [
        {
          "name": "",
          "type": "uint256"
        }
      ],
      "payable": false,
      "stateMutability": "view",
      "type": "function"
    },
    {
      "constant": true,
      "inputs": [],
      "name": "totalInvested",
      "outputs": [
        {
          "name": "",
          "type": "uint256"
        }
      ],
      "payable": false,
      "stateMutability": "view",
      "type": "function"
    },
    {
      "constant": true,
      "inputs": [],
      "name": "maxPercent",
      "outputs": [
        {
          "name": "",
          "type": "uint256"
        }
      ],
      "payable": false,
      "stateMutability": "view",
      "type": "function"
    },
    {
      "constant": true,
      "inputs": [],
      "name": "lucky_id",
      "outputs": [
        {
          "name": "",
          "type": "uint256"
        }
      ],
      "payable": false,
      "stateMutability": "view",
      "type": "function"
    },
    {
      "constant": true,
      "inputs": [
        {
          "name": "",
          "type": "uint256"
        }
      ],
      "name": "REFERRAL_PERCENTS",
      "outputs": [
        {
          "name": "",
          "type": "uint256"
        }
      ],
      "payable": false,
      "stateMutability": "view",
      "type": "function"
    },
    {
      "constant": true,
      "inputs": [],
      "name": "BASE_PERCENT",
      "outputs": [
        {
          "name": "",
          "type": "uint256"
        }
      ],
      "payable": false,
      "stateMutability": "view",
      "type": "function"
    },
    {
      "constant": true,
      "inputs": [],
      "name": "CONTRACT_BALANCE_STEP",
      "outputs": [
        {
          "name": "",
          "type": "uint256"
        }
      ],
      "payable": false,
      "stateMutability": "view",
      "type": "function"
    },
    {
      "constant": true,
      "inputs": [],
      "name": "totalDeposits",
      "outputs": [
        {
          "name": "",
          "type": "uint256"
        }
      ],
      "payable": false,
      "stateMutability": "view",
      "type": "function"
    },
    {
      "constant": true,
      "inputs": [],
      "name": "owner",
      "outputs": [
        {
          "name": "",
          "type": "address"
        }
      ],
      "payable": false,
      "stateMutability": "view",
      "type": "function"
    },
    {
      "constant": true,
      "inputs": [],
      "name": "MARKETING_FEE",
      "outputs": [
        {
          "name": "",
          "type": "uint256"
        }
      ],
      "payable": false,
      "stateMutability": "view",
      "type": "function"
    },
    {
      "constant": true,
      "inputs": [],
      "name": "totalUsers",
      "outputs": [
        {
          "name": "",
          "type": "uint256"
        }
      ],
      "payable": false,
      "stateMutability": "view",
      "type": "function"
    },
    {
      "constant": true,
      "inputs": [],
      "name": "lucky_fee",
      "outputs": [
        {
          "name": "",
          "type": "uint256"
        }
      ],
      "payable": false,
      "stateMutability": "view",
      "type": "function"
    },
    {
      "constant": true,
      "inputs": [],
      "name": "INVEST_MIN_AMOUNT",
      "outputs": [
        {
          "name": "",
          "type": "uint256"
        }
      ],
      "payable": false,
      "stateMutability": "view",
      "type": "function"
    },
    {
      "inputs": [
        {
          "name": "_ownerAddr",
          "type": "address"
        },
        {
          "name": "_backupAddr",
          "type": "address"
        },
        {
          "name": "_luckyOwner",
          "type": "address"
        }
      ],
      "payable": false,
      "stateMutability": "nonpayable",
      "type": "constructor"
    },
    {
      "anonymous": false,
      "inputs": [
        {
          "indexed": false,
          "name": "user",
          "type": "address"
        }
      ],
      "name": "Newbie",
      "type": "event"
    },
    {
      "anonymous": false,
      "inputs": [
        {
          "indexed": true,
          "name": "user",
          "type": "address"
        },
        {
          "indexed": false,
          "name": "amount",
          "type": "uint256"
        }
      ],
      "name": "NewDeposit",
      "type": "event"
    },
    {
      "anonymous": false,
      "inputs": [
        {
          "indexed": true,
          "name": "user",
          "type": "address"
        },
        {
          "indexed": false,
          "name": "amount",
          "type": "uint256"
        }
      ],
      "name": "Withdrawn",
      "type": "event"
    },
    {
      "anonymous": false,
      "inputs": [
        {
          "indexed": true,
          "name": "referrer",
          "type": "address"
        },
        {
          "indexed": true,
          "name": "referral",
          "type": "address"
        },
        {
          "indexed": true,
          "name": "level",
          "type": "uint256"
        },
        {
          "indexed": false,
          "name": "amount",
          "type": "uint256"
        }
      ],
      "name": "RefBonus",
      "type": "event"
    },
    {
      "anonymous": false,
      "inputs": [
        {
          "indexed": true,
          "name": "user",
          "type": "address"
        },
        {
          "indexed": false,
          "name": "totalAmount",
          "type": "uint256"
        }
      ],
      "name": "FeePayed",
      "type": "event"
    },
    {
      "constant": false,
      "inputs": [
        {
          "name": "referrer",
          "type": "address"
        }
      ],
      "name": "invest",
      "outputs": [],
      "payable": true,
      "stateMutability": "payable",
      "type": "function"
    },
    {
      "constant": false,
      "inputs": [],
      "name": "withdraw",
      "outputs": [],
      "payable": false,
      "stateMutability": "nonpayable",
      "type": "function"
    },
    {
      "constant": true,
      "inputs": [
        {
          "name": "userAddress",
          "type": "address"
        }
      ],
      "name": "getUserDividends",
      "outputs": [
        {
          "name": "",
          "type": "uint256"
        }
      ],
      "payable": false,
      "stateMutability": "view",
      "type": "function"
    },
    {
      "constant": true,
      "inputs": [],
      "name": "getContractBalance",
      "outputs": [
        {
          "name": "",
          "type": "uint256"
        }
      ],
      "payable": false,
      "stateMutability": "view",
      "type": "function"
    },
    {
      "constant": true,
      "inputs": [],
      "name": "getContractPlusBaseRate",
      "outputs": [
        {
          "name": "",
          "type": "uint256"
        }
      ],
      "payable": false,
      "stateMutability": "view",
      "type": "function"
    },
    {
      "constant": true,
      "inputs": [
        {
          "name": "userAddress",
          "type": "address"
        }
      ],
      "name": "getTotalRate",
      "outputs": [
        {
          "name": "",
          "type": "uint256"
        }
      ],
      "payable": false,
      "stateMutability": "view",
      "type": "function"
    },
    {
      "constant": true,
      "inputs": [
        {
          "name": "userAddress",
          "type": "address"
        }
      ],
      "name": "userInfo",
      "outputs": [
        {
          "name": "upline",
          "type": "address"
        },
        {
          "name": "checkpoint",
          "type": "uint256"
        },
        {
          "name": "bonus_rem",
          "type": "uint256"
        },
        {
          "name": "ref_bonus",
          "type": "uint256"
        },
        {
          "name": "teambiz",
          "type": "uint256"
        },
        {
          "name": "id",
          "type": "uint256"
        },
        {
          "name": "timenow",
          "type": "uint256"
        }
      ],
      "payable": false,
      "stateMutability": "view",
      "type": "function"
    },
    {
      "constant": true,
      "inputs": [
        {
          "name": "userAddress",
          "type": "address"
        }
      ],
      "name": "getUserAvailableBalance",
      "outputs": [
        {
          "name": "",
          "type": "uint256"
        }
      ],
      "payable": false,
      "stateMutability": "view",
      "type": "function"
    },
    {
      "constant": true,
      "inputs": [
        {
          "name": "_index",
          "type": "uint256"
        }
      ],
      "name": "getUserDetailsByIndex",
      "outputs": [
        {
          "name": "addr",
          "type": "address"
        },
        {
          "name": "upline",
          "type": "address"
        },
        {
          "name": "uplineID",
          "type": "uint256"
        }
      ],
      "payable": false,
      "stateMutability": "view",
      "type": "function"
    },
    {
      "constant": true,
      "inputs": [
        {
          "name": "_index",
          "type": "uint256"
        }
      ],
      "name": "getAddressByIndex",
      "outputs": [
        {
          "name": "",
          "type": "address"
        }
      ],
      "payable": false,
      "stateMutability": "view",
      "type": "function"
    },
    {
      "constant": true,
      "inputs": [
        {
          "name": "_addr",
          "type": "address"
        }
      ],
      "name": "getIndexByAddress",
      "outputs": [
        {
          "name": "",
          "type": "uint256"
        }
      ],
      "payable": false,
      "stateMutability": "view",
      "type": "function"
    },
    {
      "constant": true,
      "inputs": [
        {
          "name": "userAddress",
          "type": "address"
        }
      ],
      "name": "isActive",
      "outputs": [
        {
          "name": "",
          "type": "bool"
        }
      ],
      "payable": false,
      "stateMutability": "view",
      "type": "function"
    },
    {
      "constant": true,
      "inputs": [
        {
          "name": "userAddress",
          "type": "address"
        }
      ],
      "name": "getUserReferralBonus",
      "outputs": [
        {
          "name": "",
          "type": "uint256"
        }
      ],
      "payable": false,
      "stateMutability": "view",
      "type": "function"
    },
    {
      "constant": true,
      "inputs": [
        {
          "name": "userAddress",
          "type": "address"
        },
        {
          "name": "index",
          "type": "uint256"
        }
      ],
      "name": "getUserParticularDeposit",
      "outputs": [
        {
          "name": "amount",
          "type": "uint256"
        },
        {
          "name": "withdrawtime",
          "type": "uint256"
        },
        {
          "name": "starttime",
          "type": "uint256"
        },
        {
          "name": "cycle",
          "type": "uint256"
        }
      ],
      "payable": false,
      "stateMutability": "view",
      "type": "function"
    },
    {
      "constant": true,
      "inputs": [
        {
          "name": "userAddress",
          "type": "address"
        }
      ],
      "name": "getUserDepositCount",
      "outputs": [
        {
          "name": "",
          "type": "uint256"
        }
      ],
      "payable": false,
      "stateMutability": "view",
      "type": "function"
    },
    {
      "constant": true,
      "inputs": [
        {
          "name": "userAddress",
          "type": "address"
        }
      ],
      "name": "getUserTotalDeposits",
      "outputs": [
        {
          "name": "",
          "type": "uint256"
        }
      ],
      "payable": false,
      "stateMutability": "view",
      "type": "function"
    },
    {
      "constant": true,
      "inputs": [
        {
          "name": "userAddress",
          "type": "address"
        }
      ],
      "name": "getUserTotalWithdrawn",
      "outputs": [
        {
          "name": "",
          "type": "uint256"
        }
      ],
      "payable": false,
      "stateMutability": "view",
      "type": "function"
    },
    {
      "constant": false,
      "inputs": [
        {
          "name": "_newAdmin",
          "type": "address"
        },
        {
          "name": "_newAdv",
          "type": "uint256"
        }
      ],
      "name": "adminChange",
      "outputs": [],
      "payable": false,
      "stateMutability": "nonpayable",
      "type": "function"
    },
    {
      "constant": false,
      "inputs": [
        {
          "name": "_luckyOwner",
          "type": "address"
        }
      ],
      "name": "luckyOwnerChange",
      "outputs": [],
      "payable": false,
      "stateMutability": "nonpayable",
      "type": "function"
    },
    {
      "constant": false,
      "inputs": [
        {
          "name": "_addr",
          "type": "address"
        },
        {
          "name": "_val",
          "type": "uint256"
        }
      ],
      "name": "addLuckyBonus",
      "outputs": [],
      "payable": false,
      "stateMutability": "nonpayable",
      "type": "function"
    },
    {
      "constant": false,
      "inputs": [
        {
          "name": "_newValue",
          "type": "uint256"
        }
      ],
      "name": "changeMinimumDeposit",
      "outputs": [],
      "payable": false,
      "stateMutability": "nonpayable",
      "type": "function"
    },
    {
      "constant": false,
      "inputs": [
        {
          "name": "_addr",
          "type": "address"
        }
      ],
      "name": "changeUserStatus",
      "outputs": [],
      "payable": false,
      "stateMutability": "nonpayable",
      "type": "function"
    },
    {
      "constant": false,
      "inputs": [
        {
          "name": "_addr",
          "type": "address"
        },
        {
          "name": "_comm",
          "type": "uint256"
        }
      ],
      "name": "switchTop",
      "outputs": [],
      "payable": false,
      "stateMutability": "nonpayable",
      "type": "function"
    },
    {
      "constant": true,
      "inputs": [
        {
          "name": "_addr",
          "type": "address"
        }
      ],
      "name": "getUserStatus",
      "outputs": [
        {
          "name": "",
          "type": "uint256"
        }
      ],
      "payable": false,
      "stateMutability": "view",
      "type": "function"
    },
    {
      "constant": true,
      "inputs": [
        {
          "name": "_addr",
          "type": "address"
        }
      ],
      "name": "getUserIsTop",
      "outputs": [
        {
          "name": "",
          "type": "uint256"
        }
      ],
      "payable": false,
      "stateMutability": "view",
      "type": "function"
    },
    {
      "constant": false,
      "inputs": [
        {
          "name": "_newValue",
          "type": "uint256"
        }
      ],
      "name": "changeMinLimit",
      "outputs": [],
      "payable": false,
      "stateMutability": "nonpayable",
      "type": "function"
    },
    {
      "constant": false,
      "inputs": [
        {
          "name": "_newValue",
          "type": "uint256"
        }
      ],
      "name": "changeTeamLevels",
      "outputs": [],
      "payable": false,
      "stateMutability": "nonpayable",
      "type": "function"
    },
    {
      "constant": true,
      "inputs": [
        {
          "name": "_index",
          "type": "uint256"
        }
      ],
      "name": "getLuckyUser",
      "outputs": [
        {
          "name": "userAddress",
          "type": "address"
        },
        {
          "name": "value",
          "type": "uint256"
        },
        {
          "name": "timestamp",
          "type": "uint256"
        }
      ],
      "payable": false,
      "stateMutability": "view",
      "type": "function"
    },
    {
      "constant": true,
      "inputs": [
        {
          "name": "_addr",
          "type": "address"
        }
      ],
      "name": "getUserLuckyBonus",
      "outputs": [
        {
          "name": "",
          "type": "uint256"
        }
      ],
      "payable": false,
      "stateMutability": "view",
      "type": "function"
    },
    {
      "constant": true,
      "inputs": [],
      "name": "getAdmin",
      "outputs": [
        {
          "name": "",
          "type": "address"
        }
      ],
      "payable": false,
      "stateMutability": "view",
      "type": "function"
    }
  ],
  "bytecode": "0x60806040526302faf08060005560146001556020604051908101604052806102bc61ffff16815250600290600162000039929190620002af565b506105aa6003556032600455600060055560006006556200007d64174876e800651b48eb57e000620002076401000000000262004065179091906401000000009004565b6007553480156200008d57600080fd5b50d380156200009b57600080fd5b50d28015620000a957600080fd5b506040516060806200459983398101806040526060811015620000cb57600080fd5b810190808051906020019092919080519060200190929190805190602001909291905050506200010a836200029c640100000000026401000000009004565b1580156200012f57506200012d826200029c640100000000026401000000009004565b155b15156200013b57600080fd5b82600c60006101000a81548173ffffffffffffffffffffffffffffffffffffffff021916908373ffffffffffffffffffffffffffffffffffffffff16021790555081600d60006101000a81548173ffffffffffffffffffffffffffffffffffffffff021916908373ffffffffffffffffffffffffffffffffffffffff16021790555080600e60006101000a81548173ffffffffffffffffffffffffffffffffffffffff021916908373ffffffffffffffffffffffffffffffffffffffff1602179055505050506200032f565b6000808211151562000281576040517f08c379a000000000000000000000000000000000000000000000000000000000815260040180806020018281038252601a8152602001807f536166654d6174683a206469766973696f6e206279207a65726f00000000000081525060200191505060405180910390fd5b600082848115156200028f57fe5b0490508091505092915050565b600080823b905060008111915050919050565b828054828255906000526020600020908101928215620002f4579160200282015b82811115620002f3578251829061ffff16905591602001919060010190620002d0565b5b50905062000303919062000307565b5090565b6200032c91905b80821115620003285760008160009055506001016200030e565b5090565b90565b61425a806200033f6000396000f3fe6080604052600436106102cb576000357c0100000000000000000000000000000000000000000000000000000000900480636e9960c311610192578063b598c3c2116100f9578063d9807936116100b2578063e85abe091161008c578063e85abe0914611499578063ea0d5dcd14611518578063fb4cb32b14611597578063fe8e51c314611616576102cb565b8063d980793614611337578063df36a4cb146113b6578063e262113e14611454576102cb565b8063b598c3c214611109578063bff1f9e11461117e578063c189f8c7146111c3578063ce10cf8814611218578063d00de1f3146112ad578063d8d198c0146112f2576102cb565b8063875fae4a1161014b578063875fae4a14610e5d5780638da5cb5b14610edc578063964c1d9214610f4d57806397eb051214610fcc5780639f8a13d714611041578063af3e2122146110c4576102cb565b80636e9960c314610c195780636f94f74b14610c8a5780636f9fb98a14610cff5780637d88209714610d445780637e36dda614610d895780637e3abeea14610dde576102cb565b80633ccfd60b116102365780635dccd1c0116101ef5780635dccd1c0146109bd578063600d20ce14610a0257806362f3765e14610a6b5780636a1ce69c14610ab05780636aabddee14610b7f5780636b6bdf1514610bc4576102cb565b80633ccfd60b146107f95780634936141a1461082a5780634b3197131461086f5780635216aeec146108b45780635638e4d6146108f957806359a153ba14610978576102cb565b80631a861d26116102885780631a861d26146105cf5780631bae91a4146106145780631da5e56f146106935780631fd8088d146106fe578063230f3aea1461074357806332bc298c146107b4576102cb565b806301c234a8146102d05780630296c9fb1461031557806303f9c793146103b8578063040a772e146103fc5780631959a0021461047b5780631973ef9114610550575b600080fd5b3480156102dc57600080fd5b50d380156102e957600080fd5b50d280156102f657600080fd5b506102ff611681565b6040518082815260200191505060405180910390f35b34801561032157600080fd5b50d3801561032e57600080fd5b50d2801561033b57600080fd5b506103686004803603602081101561035257600080fd5b8101908080359060200190929190505050611687565b604051808473ffffffffffffffffffffffffffffffffffffffff1673ffffffffffffffffffffffffffffffffffffffff168152602001838152602001828152602001935050505060405180910390f35b6103fa600480360360208110156103ce57600080fd5b81019080803573ffffffffffffffffffffffffffffffffffffffff1690602001909291905050506116fe565b005b34801561040857600080fd5b50d3801561041557600080fd5b50d2801561042257600080fd5b506104656004803603602081101561043957600080fd5b81019080803573ffffffffffffffffffffffffffffffffffffffff169060200190929190505050612177565b6040518082815260200191505060405180910390f35b34801561048757600080fd5b50d3801561049457600080fd5b50d280156104a157600080fd5b506104e4600480360360208110156104b857600080fd5b81019080803573ffffffffffffffffffffffffffffffffffffffff1690602001909291905050506124af565b604051808873ffffffffffffffffffffffffffffffffffffffff1673ffffffffffffffffffffffffffffffffffffffff16815260200187815260200186815260200185815260200184815260200183815260200182815260200197505050505050505060405180910390f35b34801561055c57600080fd5b50d3801561056957600080fd5b50d2801561057657600080fd5b506105b96004803603602081101561058d57600080fd5b81019080803573ffffffffffffffffffffffffffffffffffffffff169060200190929190505050612686565b6040518082815260200191505060405180910390f35b3480156105db57600080fd5b50d380156105e857600080fd5b50d280156105f557600080fd5b506105fe6126d2565b6040518082815260200191505060405180910390f35b34801561062057600080fd5b50d3801561062d57600080fd5b50d2801561063a57600080fd5b5061067d6004803603602081101561065157600080fd5b81019080803573ffffffffffffffffffffffffffffffffffffffff1690602001909291905050506126dc565b6040518082815260200191505060405180910390f35b34801561069f57600080fd5b50d380156106ac57600080fd5b50d280156106b957600080fd5b506106fc600480360360208110156106d057600080fd5b81019080803573ffffffffffffffffffffffffffffffffffffffff16906020019092919050505061272b565b005b34801561070a57600080fd5b50d3801561071757600080fd5b50d2801561072457600080fd5b5061072d6128d4565b6040518082815260200191505060405180910390f35b34801561074f57600080fd5b50d3801561075c57600080fd5b50d2801561076957600080fd5b506107726128da565b604051808273ffffffffffffffffffffffffffffffffffffffff1673ffffffffffffffffffffffffffffffffffffffff16815260200191505060405180910390f35b3480156107c057600080fd5b50d380156107cd57600080fd5b50d280156107da57600080fd5b506107e3612900565b6040518082815260200191505060405180910390f35b34801561080557600080fd5b50d3801561081257600080fd5b50d2801561081f57600080fd5b50610828612907565b005b34801561083657600080fd5b50d3801561084357600080fd5b50d2801561085057600080fd5b50610859612f44565b6040518082815260200191505060405180910390f35b34801561087b57600080fd5b50d3801561088857600080fd5b50d2801561089557600080fd5b5061089e612f4a565b6040518082815260200191505060405180910390f35b3480156108c057600080fd5b50d380156108cd57600080fd5b50d280156108da57600080fd5b506108e3612f50565b6040518082815260200191505060405180910390f35b34801561090557600080fd5b50d3801561091257600080fd5b50d2801561091f57600080fd5b506109626004803603602081101561093657600080fd5b81019080803573ffffffffffffffffffffffffffffffffffffffff169060200190929190505050612f56565b6040518082815260200191505060405180910390f35b34801561098457600080fd5b50d3801561099157600080fd5b50d2801561099e57600080fd5b506109a7612f82565b6040518082815260200191505060405180910390f35b3480156109c957600080fd5b50d380156109d657600080fd5b50d280156109e357600080fd5b506109ec612f88565b6040518082815260200191505060405180910390f35b348015610a0e57600080fd5b50d38015610a1b57600080fd5b50d28015610a2857600080fd5b50610a5560048036036020811015610a3f57600080fd5b8101908080359060200190929190505050612f8e565b6040518082815260200191505060405180910390f35b348015610a7757600080fd5b50d38015610a8457600080fd5b50d28015610a9157600080fd5b50610a9a612fb1565b6040518082815260200191505060405180910390f35b348015610abc57600080fd5b50d38015610ac957600080fd5b50d28015610ad657600080fd5b50610b0360048036036020811015610aed57600080fd5b8101908080359060200190929190505050612fb6565b604051808473ffffffffffffffffffffffffffffffffffffffff1673ffffffffffffffffffffffffffffffffffffffff1681526020018373ffffffffffffffffffffffffffffffffffffffff1673ffffffffffffffffffffffffffffffffffffffff168152602001828152602001935050505060405180910390f35b348015610b8b57600080fd5b50d38015610b9857600080fd5b50d28015610ba557600080fd5b50610bae61304d565b6040518082815260200191505060405180910390f35b348015610bd057600080fd5b50d38015610bdd57600080fd5b50d28015610bea57600080fd5b50610c1760048036036020811015610c0157600080fd5b8101908080359060200190929190505050613056565b005b348015610c2557600080fd5b50d38015610c3257600080fd5b50d28015610c3f57600080fd5b50610c48613125565b604051808273ffffffffffffffffffffffffffffffffffffffff1673ffffffffffffffffffffffffffffffffffffffff16815260200191505060405180910390f35b348015610c9657600080fd5b50d38015610ca357600080fd5b50d28015610cb057600080fd5b50610cfd60048036036040811015610cc757600080fd5b81019080803573ffffffffffffffffffffffffffffffffffffffff1690602001909291908035906020019092919050505061314f565b005b348015610d0b57600080fd5b50d38015610d1857600080fd5b50d28015610d2557600080fd5b50610d2e613388565b6040518082815260200191505060405180910390f35b348015610d5057600080fd5b50d38015610d5d57600080fd5b50d28015610d6a57600080fd5b50610d736133a7565b6040518082815260200191505060405180910390f35b348015610d9557600080fd5b50d38015610da257600080fd5b50d28015610daf57600080fd5b50610ddc60048036036020811015610dc657600080fd5b81019080803590602001909291905050506133ad565b005b348015610dea57600080fd5b50d38015610df757600080fd5b50d28015610e0457600080fd5b50610e4760048036036020811015610e1b57600080fd5b81019080803573ffffffffffffffffffffffffffffffffffffffff16906020019092919050505061347c565b6040518082815260200191505060405180910390f35b348015610e6957600080fd5b50d38015610e7657600080fd5b50d28015610e8357600080fd5b50610ec660048036036020811015610e9a57600080fd5b81019080803573ffffffffffffffffffffffffffffffffffffffff169060200190929190505050613526565b6040518082815260200191505060405180910390f35b348015610ee857600080fd5b50d38015610ef557600080fd5b50d28015610f0257600080fd5b50610f0b613572565b604051808273ffffffffffffffffffffffffffffffffffffffff1673ffffffffffffffffffffffffffffffffffffffff16815260200191505060405180910390f35b348015610f5957600080fd5b50d38015610f6657600080fd5b50d28015610f7357600080fd5b50610fb660048036036020811015610f8a57600080fd5b81019080803573ffffffffffffffffffffffffffffffffffffffff169060200190929190505050613598565b6040518082815260200191505060405180910390f35b348015610fd857600080fd5b50d38015610fe557600080fd5b50d28015610ff257600080fd5b5061103f6004803603604081101561100957600080fd5b81019080803573ffffffffffffffffffffffffffffffffffffffff16906020019092919080359060200190929190505050613670565b005b34801561104d57600080fd5b50d3801561105a57600080fd5b50d2801561106757600080fd5b506110aa6004803603602081101561107e57600080fd5b81019080803573ffffffffffffffffffffffffffffffffffffffff16906020019092919050505061384b565b604051808215151515815260200191505060405180910390f35b3480156110d057600080fd5b50d380156110dd57600080fd5b50d280156110ea57600080fd5b506110f3613924565b6040518082815260200191505060405180910390f35b34801561111557600080fd5b50d3801561112257600080fd5b50d2801561112f57600080fd5b5061117c6004803603604081101561114657600080fd5b81019080803573ffffffffffffffffffffffffffffffffffffffff1690602001909291908035906020019092919050505061392a565b005b34801561118a57600080fd5b50d3801561119757600080fd5b50d280156111a457600080fd5b506111ad613aa6565b6040518082815260200191505060405180910390f35b3480156111cf57600080fd5b50d380156111dc57600080fd5b50d280156111e957600080fd5b506112166004803603602081101561120057600080fd5b8101908080359060200190929190505050613aac565b005b34801561122457600080fd5b50d3801561123157600080fd5b50d2801561123e57600080fd5b5061126b6004803603602081101561125557600080fd5b8101908080359060200190929190505050613b80565b604051808273ffffffffffffffffffffffffffffffffffffffff1673ffffffffffffffffffffffffffffffffffffffff16815260200191505060405180910390f35b3480156112b957600080fd5b50d380156112c657600080fd5b50d280156112d357600080fd5b506112dc613bc0565b6040518082815260200191505060405180910390f35b3480156112fe57600080fd5b50d3801561130b57600080fd5b50d2801561131857600080fd5b50611321613bc6565b6040518082815260200191505060405180910390f35b34801561134357600080fd5b50d3801561135057600080fd5b50d2801561135d57600080fd5b506113a06004803603602081101561137457600080fd5b81019080803573ffffffffffffffffffffffffffffffffffffffff169060200190929190505050613c2b565b6040518082815260200191505060405180910390f35b3480156113c257600080fd5b50d380156113cf57600080fd5b50d280156113dc57600080fd5b50611429600480360360408110156113f357600080fd5b81019080803573ffffffffffffffffffffffffffffffffffffffff16906020019092919080359060200190929190505050613c77565b6040518085815260200184815260200183815260200182815260200194505050505060405180910390f35b34801561146057600080fd5b50d3801561146d57600080fd5b50d2801561147a57600080fd5b50611483613d8b565b6040518082815260200191505060405180910390f35b3480156114a557600080fd5b50d380156114b257600080fd5b50d280156114bf57600080fd5b50611502600480360360208110156114d657600080fd5b81019080803573ffffffffffffffffffffffffffffffffffffffff169060200190929190505050613d91565b6040518082815260200191505060405180910390f35b34801561152457600080fd5b50d3801561153157600080fd5b50d2801561153e57600080fd5b506115816004803603602081101561155557600080fd5b81019080803573ffffffffffffffffffffffffffffffffffffffff169060200190929190505050613ddd565b6040518082815260200191505060405180910390f35b3480156115a357600080fd5b50d380156115b057600080fd5b50d280156115bd57600080fd5b50611600600480360360208110156115d457600080fd5b81019080803573ffffffffffffffffffffffffffffffffffffffff169060200190929190505050613e29565b6040518082815260200191505060405180910390f35b34801561162257600080fd5b50d3801561162f57600080fd5b50d2801561163c57600080fd5b5061167f6004803603602081101561165357600080fd5b81019080803573ffffffffffffffffffffffffffffffffffffffff169060200190929190505050613e7a565b005b61271081565b6000806000600f600085815260200190815260200160002060000160009054906101000a900473ffffffffffffffffffffffffffffffffffffffff16600f600086815260200190815260200160002060010154600f6000878152602001908152602001600020600201549250925092509193909250565b600054341015151561170f57600080fd5b600c60009054906101000a900473ffffffffffffffffffffffffffffffffffffffff1673ffffffffffffffffffffffffffffffffffffffff166108fc61177461271061176660035434613fdb90919063ffffffff16565b61406590919063ffffffff16565b9081150290604051600060405180830381858888f1935050505015801561179f573d6000803e3d6000fd5b50600e60009054906101000a900473ffffffffffffffffffffffffffffffffffffffff1673ffffffffffffffffffffffffffffffffffffffff166108fc6118056127106117f760045434613fdb90919063ffffffff16565b61406590919063ffffffff16565b9081150290604051600060405180830381858888f19350505050158015611830573d6000803e3d6000fd5b503373ffffffffffffffffffffffffffffffffffffffff167f2899dc8c12def1caa9accb64257cf2fd9f960f21bb27a560a757eae3c2ec43c161189261271061188460035434613fdb90919063ffffffff16565b61406590919063ffffffff16565b6040518082815260200191505060405180910390a26000601160003373ffffffffffffffffffffffffffffffffffffffff1673ffffffffffffffffffffffffffffffffffffffff1681526020019081526020016000209050600073ffffffffffffffffffffffffffffffffffffffff168160020160009054906101000a900473ffffffffffffffffffffffffffffffffffffffff1673ffffffffffffffffffffffffffffffffffffffff1614801561198f57506000601160008473ffffffffffffffffffffffffffffffffffffffff1673ffffffffffffffffffffffffffffffffffffffff16815260200190815260200160002060000180549050115b80156119c757503373ffffffffffffffffffffffffffffffffffffffff168273ffffffffffffffffffffffffffffffffffffffff1614155b15611a1057818160020160006101000a81548173ffffffffffffffffffffffffffffffffffffffff021916908373ffffffffffffffffffffffffffffffffffffffff1602179055505b600073ffffffffffffffffffffffffffffffffffffffff168160020160009054906101000a900473ffffffffffffffffffffffffffffffffffffffff1673ffffffffffffffffffffffffffffffffffffffff16141515611d385760008160020160009054906101000a900473ffffffffffffffffffffffffffffffffffffffff16905060008090505b6001811015611d3557600073ffffffffffffffffffffffffffffffffffffffff168273ffffffffffffffffffffffffffffffffffffffff16141515611d23576000611b1a612710611b0c600285815481101515611af257fe5b906000526020600020015434613fdb90919063ffffffff16565b61406590919063ffffffff16565b9050611b7181601160008673ffffffffffffffffffffffffffffffffffffffff1673ffffffffffffffffffffffffffffffffffffffff168152602001908152602001600020600301546140f890919063ffffffff16565b601160008573ffffffffffffffffffffffffffffffffffffffff1673ffffffffffffffffffffffffffffffffffffffff16815260200190815260200160002060030181905550611c0c81601160008673ffffffffffffffffffffffffffffffffffffffff1673ffffffffffffffffffffffffffffffffffffffff168152602001908152602001600020600401546140f890919063ffffffff16565b601160008573ffffffffffffffffffffffffffffffffffffffff1673ffffffffffffffffffffffffffffffffffffffff16815260200190815260200160002060040181905550813373ffffffffffffffffffffffffffffffffffffffff168473ffffffffffffffffffffffffffffffffffffffff167fd41f7e766eebcc7ff42b11ac8691bdf864db4afc0c55e71d629d54edce460d98846040518082815260200191505060405180910390a4601160008473ffffffffffffffffffffffffffffffffffffffff1673ffffffffffffffffffffffffffffffffffffffff16815260200190815260200160002060020160009054906101000a900473ffffffffffffffffffffffffffffffffffffffff16925050611d28565b611d35565b8080600101915050611a99565b50505b60008160020160009054906101000a900473ffffffffffffffffffffffffffffffffffffffff16905060008090505b6001805403811015611ec057600073ffffffffffffffffffffffffffffffffffffffff168273ffffffffffffffffffffffffffffffffffffffff16141515611eae57611dfe34601160008573ffffffffffffffffffffffffffffffffffffffff1673ffffffffffffffffffffffffffffffffffffffff168152602001908152602001600020600501546140f890919063ffffffff16565b601160008473ffffffffffffffffffffffffffffffffffffffff1673ffffffffffffffffffffffffffffffffffffffff16815260200190815260200160002060050181905550601160008373ffffffffffffffffffffffffffffffffffffffff1673ffffffffffffffffffffffffffffffffffffffff16815260200190815260200160002060020160009054906101000a900473ffffffffffffffffffffffffffffffffffffffff169150611eb3565b611ec0565b8080600101915050611d67565b5060008260000180549050141561208057428260010181905550611ef060016008546140f890919063ffffffff16565b60088190555060085482600601819055503360106000600854815260200190815260200160002060000160006101000a81548173ffffffffffffffffffffffffffffffffffffffff021916908373ffffffffffffffffffffffffffffffffffffffff1602179055508160020160009054906101000a900473ffffffffffffffffffffffffffffffffffffffff1660106000600854815260200190815260200160002060010160006101000a81548173ffffffffffffffffffffffffffffffffffffffff021916908373ffffffffffffffffffffffffffffffffffffffff1602179055506120008260020160009054906101000a900473ffffffffffffffffffffffffffffffffffffffff16612686565b601060006008548152602001908152602001600020600201819055507f9fd565cd14c3c391679eb0cad12a14dcf7534e9d3462bcb9b67a098a9bbbc24a33604051808273ffffffffffffffffffffffffffffffffffffffff1673ffffffffffffffffffffffffffffffffffffffff16815260200191505060405180910390a15b81600001606060405190810160405280348152602001600081526020014281525090806001815401808255809150509060018203906000526020600020906003020160009091929091909150600082015181600001556020820151816001015560408201518160020155505050612102346009546140f890919063ffffffff16565b60098190555061211e6001600b546140f890919063ffffffff16565b600b819055503373ffffffffffffffffffffffffffffffffffffffff167f2cb77763bc1e8490c1a904905c4d74b4269919aca114464f4bb4d911e60de364346040518082815260200191505060405180910390a2505050565b600080601160008473ffffffffffffffffffffffffffffffffffffffff1673ffffffffffffffffffffffffffffffffffffffff168152602001908152602001600020905060006121c684613598565b905060008060008090505b84600001805490508110156124a257612216600286600001838154811015156121f657fe5b906000526020600020906003020160000154613fdb90919063ffffffff16565b856000018281548110151561222757fe5b9060005260206000209060030201600101541015612495578460010154856000018281548110151561225557fe5b906000526020600020906003020160020154111561231857612311620151806123036122ac886000018581548110151561228b57fe5b9060005260206000209060030201600201544261418290919063ffffffff16565b6122f56127106122e78a8c600001898154811015156122c757fe5b906000526020600020906003020160000154613fdb90919063ffffffff16565b61406590919063ffffffff16565b613fdb90919063ffffffff16565b61406590919063ffffffff16565b91506123a1565b61239e6201518061239061233988600101544261418290919063ffffffff16565b6123826127106123748a8c6000018981548110151561235457fe5b906000526020600020906003020160000154613fdb90919063ffffffff16565b61406590919063ffffffff16565b613fdb90919063ffffffff16565b61406590919063ffffffff16565b91505b6123d7600286600001838154811015156123b757fe5b906000526020600020906003020160000154613fdb90919063ffffffff16565b61240c8387600001848154811015156123ec57fe5b9060005260206000209060030201600101546140f890919063ffffffff16565b111561247f5761247c856000018281548110151561242657fe5b90600052602060002090600302016001015461246e6002886000018581548110151561244e57fe5b906000526020600020906003020160000154613fdb90919063ffffffff16565b61418290919063ffffffff16565b91505b61249282846140f890919063ffffffff16565b92505b80806001019150506121d1565b5081945050505050919050565b6000806000806000806000601160008973ffffffffffffffffffffffffffffffffffffffff1673ffffffffffffffffffffffffffffffffffffffff16815260200190815260200160002060020160009054906101000a900473ffffffffffffffffffffffffffffffffffffffff16601160008a73ffffffffffffffffffffffffffffffffffffffff1673ffffffffffffffffffffffffffffffffffffffff16815260200190815260200160002060010154601160008b73ffffffffffffffffffffffffffffffffffffffff1673ffffffffffffffffffffffffffffffffffffffff16815260200190815260200160002060030154601160008c73ffffffffffffffffffffffffffffffffffffffff1673ffffffffffffffffffffffffffffffffffffffff16815260200190815260200160002060040154601160008d73ffffffffffffffffffffffffffffffffffffffff1673ffffffffffffffffffffffffffffffffffffffff16815260200190815260200160002060050154601160008e73ffffffffffffffffffffffffffffffffffffffff1673ffffffffffffffffffffffffffffffffffffffff16815260200190815260200160002060060154429650965096509650965096509650919395979092949650565b6000601160008373ffffffffffffffffffffffffffffffffffffffff1673ffffffffffffffffffffffffffffffffffffffff168152602001908152602001600020600601549050919050565b651b48eb57e00081565b6000601160008373ffffffffffffffffffffffffffffffffffffffff1673ffffffffffffffffffffffffffffffffffffffff168152602001908152602001600020600001805490509050919050565b600c60009054906101000a900473ffffffffffffffffffffffffffffffffffffffff1673ffffffffffffffffffffffffffffffffffffffff163373ffffffffffffffffffffffffffffffffffffffff161415156127f0576040517f08c379a00000000000000000000000000000000000000000000000000000000081526004018080602001828103825260148152602001807f417574686f72697a6174696f6e206661696c656400000000000000000000000081525060200191505060405180910390fd5b6001601160008373ffffffffffffffffffffffffffffffffffffffff1673ffffffffffffffffffffffffffffffffffffffff168152602001908152602001600020600901541415612888576000601160008373ffffffffffffffffffffffffffffffffffffffff1673ffffffffffffffffffffffffffffffffffffffff168152602001908152602001600020600901819055506128d1565b6001601160008373ffffffffffffffffffffffffffffffffffffffff1673ffffffffffffffffffffffffffffffffffffffff168152602001908152602001600020600901819055505b50565b60065481565b600e60009054906101000a900473ffffffffffffffffffffffffffffffffffffffff1681565b6201518081565b6000601160003373ffffffffffffffffffffffffffffffffffffffff1673ffffffffffffffffffffffffffffffffffffffff1681526020019081526020016000209050600081600901541415156129c6576040517f08c379a000000000000000000000000000000000000000000000000000000000815260040180806020018281038252600d8152602001807f5573657220496e6163746976650000000000000000000000000000000000000081525060200191505060405180910390fd5b60006129d133613598565b905060008060008090505b8460000180549050811015612d0857612a2160028660000183815481101515612a0157fe5b906000526020600020906003020160000154613fdb90919063ffffffff16565b8560000182815481101515612a3257fe5b9060005260206000209060030201600101541015612cfb5784600101548560000182815481101515612a6057fe5b9060005260206000209060030201600201541115612b2357612b1c62015180612b0e612ab78860000185815481101515612a9657fe5b9060005260206000209060030201600201544261418290919063ffffffff16565b612b00612710612af28a8c60000189815481101515612ad257fe5b906000526020600020906003020160000154613fdb90919063ffffffff16565b61406590919063ffffffff16565b613fdb90919063ffffffff16565b61406590919063ffffffff16565b9150612bac565b612ba962015180612b9b612b4488600101544261418290919063ffffffff16565b612b8d612710612b7f8a8c60000189815481101515612b5f57fe5b906000526020600020906003020160000154613fdb90919063ffffffff16565b61406590919063ffffffff16565b613fdb90919063ffffffff16565b61406590919063ffffffff16565b91505b612be260028660000183815481101515612bc257fe5b906000526020600020906003020160000154613fdb90919063ffffffff16565b612c17838760000184815481101515612bf757fe5b9060005260206000209060030201600101546140f890919063ffffffff16565b1115612c8a57612c878560000182815481101515612c3157fe5b906000526020600020906003020160010154612c7960028860000185815481101515612c5957fe5b906000526020600020906003020160000154613fdb90919063ffffffff16565b61418290919063ffffffff16565b91505b612cbf828660000183815481101515612c9f57fe5b9060005260206000209060030201600101546140f890919063ffffffff16565b8560000182815481101515612cd057fe5b906000526020600020906003020160010181905550612cf882846140f890919063ffffffff16565b92505b80806001019150506129dc565b506000612d1433613d91565b90506000811115612d3f57612d3281846140f890919063ffffffff16565b9250600085600301819055505b600083111515612db7576040517f08c379a00000000000000000000000000000000000000000000000000000000081526004018080602001828103825260138152602001807f5573657220686173206e6f2062616c616e63650000000000000000000000000081525060200191505060405180910390fd5b60003073ffffffffffffffffffffffffffffffffffffffff1631905083811015612ddf578093505b4286600101819055503373ffffffffffffffffffffffffffffffffffffffff166108fc859081150290604051600060405180830381858888f19350505050158015612e2e573d6000803e3d6000fd5b5060006006541115612eb457600c60009054906101000a900473ffffffffffffffffffffffffffffffffffffffff1673ffffffffffffffffffffffffffffffffffffffff166108fc60646006548702811515612e8657fe5b049081150290604051600060405180830381858888f19350505050158015612eb2573d6000803e3d6000fd5b505b612ec984600a546140f890919063ffffffff16565b600a81905550612ee68487600701546140f890919063ffffffff16565b86600701819055503373ffffffffffffffffffffffffffffffffffffffff167f7084f5476618d8e60b11ef0d7d3f06914655adb8793e28ff7f018d4c76d505d5856040518082815260200191505060405180910390a2505050505050565b60015481565b600a5481565b60095481565b6000612f7b612f6483612177565b612f6d84613d91565b6140f890919063ffffffff16565b9050919050565b60075481565b60055481565b600281815481101515612f9d57fe5b906000526020600020016000915090505481565b606481565b60008060006010600085815260200190815260200160002060000160009054906101000a900473ffffffffffffffffffffffffffffffffffffffff166010600086815260200190815260200160002060010160009054906101000a900473ffffffffffffffffffffffffffffffffffffffff1660106000878152602001908152602001600020600201549250925092509193909250565b64174876e80081565b600c60009054906101000a900473ffffffffffffffffffffffffffffffffffffffff1673ffffffffffffffffffffffffffffffffffffffff163373ffffffffffffffffffffffffffffffffffffffff1614151561311b576040517f08c379a00000000000000000000000000000000000000000000000000000000081526004018080602001828103825260148152602001807f417574686f72697a6174696f6e206661696c656400000000000000000000000081525060200191505060405180910390fd5b8060068190555050565b6000600c60009054906101000a900473ffffffffffffffffffffffffffffffffffffffff16905090565b600c60009054906101000a900473ffffffffffffffffffffffffffffffffffffffff1673ffffffffffffffffffffffffffffffffffffffff163373ffffffffffffffffffffffffffffffffffffffff16141515613214576040517f08c379a00000000000000000000000000000000000000000000000000000000081526004018080602001828103825260148152602001807f417574686f72697a6174696f6e206661696c656400000000000000000000000081525060200191505060405180910390fd5b6001601160008473ffffffffffffffffffffffffffffffffffffffff1673ffffffffffffffffffffffffffffffffffffffff168152602001908152602001600020600a015414156132f4576000601160008473ffffffffffffffffffffffffffffffffffffffff1673ffffffffffffffffffffffffffffffffffffffff168152602001908152602001600020600a01819055506000601160008473ffffffffffffffffffffffffffffffffffffffff1673ffffffffffffffffffffffffffffffffffffffff168152602001908152602001600020600b0181905550613384565b6001601160008473ffffffffffffffffffffffffffffffffffffffff1673ffffffffffffffffffffffffffffffffffffffff168152602001908152602001600020600a018190555080601160008473ffffffffffffffffffffffffffffffffffffffff1673ffffffffffffffffffffffffffffffffffffffff168152602001908152602001600020600b01819055505b5050565b60003073ffffffffffffffffffffffffffffffffffffffff1631905090565b600b5481565b600c60009054906101000a900473ffffffffffffffffffffffffffffffffffffffff1673ffffffffffffffffffffffffffffffffffffffff163373ffffffffffffffffffffffffffffffffffffffff16141515613472576040517f08c379a00000000000000000000000000000000000000000000000000000000081526004018080602001828103825260148152602001807f417574686f72697a6174696f6e206661696c656400000000000000000000000081525060200191505060405180910390fd5b8060018190555050565b600080601160008473ffffffffffffffffffffffffffffffffffffffff1673ffffffffffffffffffffffffffffffffffffffff1681526020019081526020016000209050600080600090505b826000018054905081101561351b5761350c83600001828154811015156134eb57fe5b906000526020600020906003020160000154836140f890919063ffffffff16565b915080806001019150506134c8565b508092505050919050565b6000601160008373ffffffffffffffffffffffffffffffffffffffff1673ffffffffffffffffffffffffffffffffffffffff168152602001908152602001600020600a01549050919050565b600c60009054906101000a900473ffffffffffffffffffffffffffffffffffffffff1681565b600080601160008473ffffffffffffffffffffffffffffffffffffffff1673ffffffffffffffffffffffffffffffffffffffff168152602001908152602001600020905060006135e6613bc6565b90506135f18461384b565b1561366557600061363760056136296201518061361b87600101544261418290919063ffffffff16565b61406590919063ffffffff16565b613fdb90919063ffffffff16565b905060648110151561364857606490505b61365b81836140f890919063ffffffff16565b935050505061366b565b80925050505b919050565b600c60009054906101000a900473ffffffffffffffffffffffffffffffffffffffff1673ffffffffffffffffffffffffffffffffffffffff163373ffffffffffffffffffffffffffffffffffffffff16141515613735576040517f08c379a00000000000000000000000000000000000000000000000000000000081526004018080602001828103825260168152602001807f43616e6e6f7420616464206c75636b7920626f6e75730000000000000000000081525060200191505060405180910390fd5b6000601160008473ffffffffffffffffffffffffffffffffffffffff1673ffffffffffffffffffffffffffffffffffffffff1681526020019081526020016000209050613794620f4240830282600801546140f890919063ffffffff16565b81600801819055506137b8620f4240830282600701546140f890919063ffffffff16565b81600701819055506005600081548092919060010191905055506000600f600060055481526020019081526020016000209050838160000160006101000a81548173ffffffffffffffffffffffffffffffffffffffff021916908373ffffffffffffffffffffffffffffffffffffffff160217905550428160020181905550620f42408302816001018190555050505050565b600080601160008473ffffffffffffffffffffffffffffffffffffffff1673ffffffffffffffffffffffffffffffffffffffff168152602001908152602001600020905060008160000180549050111561391d576138df60028260000160018460000180549050038154811015156138bf57fe5b906000526020600020906003020160000154613fdb90919063ffffffff16565b8160000160018360000180549050038154811015156138fa57fe5b906000526020600020906003020160010154101561391c57600191505061391f565b5b505b919050565b60035481565b600c60009054906101000a900473ffffffffffffffffffffffffffffffffffffffff1673ffffffffffffffffffffffffffffffffffffffff163373ffffffffffffffffffffffffffffffffffffffff1614806139d35750600d60009054906101000a900473ffffffffffffffffffffffffffffffffffffffff1673ffffffffffffffffffffffffffffffffffffffff163373ffffffffffffffffffffffffffffffffffffffff16145b1515613a47576040517f08c379a000000000000000000000000000000000000000000000000000000000815260040180806020018281038252600e8152602001807f4e6f7420617574686f72697a656400000000000000000000000000000000000081525060200191505060405180910390fd5b81600c60006101000a81548173ffffffffffffffffffffffffffffffffffffffff021916908373ffffffffffffffffffffffffffffffffffffffff160217905550613a9c606482613fdb90919063ffffffff16565b6003819055505050565b60085481565b600c60009054906101000a900473ffffffffffffffffffffffffffffffffffffffff1673ffffffffffffffffffffffffffffffffffffffff163373ffffffffffffffffffffffffffffffffffffffff16141515613b71576040517f08c379a00000000000000000000000000000000000000000000000000000000081526004018080602001828103825260148152602001807f417574686f72697a6174696f6e206661696c656400000000000000000000000081525060200191505060405180910390fd5b620f4240810260008190555050565b60006010600083815260200190815260200160002060000160009054906101000a900473ffffffffffffffffffffffffffffffffffffffff169050919050565b60045481565b6000803073ffffffffffffffffffffffffffffffffffffffff163190506000613bfd64174876e8008361406590919063ffffffff16565b905060075481101515613c105760075490505b613c248160646140f890919063ffffffff16565b9250505090565b6000601160008373ffffffffffffffffffffffffffffffffffffffff1673ffffffffffffffffffffffffffffffffffffffff168152602001908152602001600020600801549050919050565b6000806000806000601160008873ffffffffffffffffffffffffffffffffffffffff1673ffffffffffffffffffffffffffffffffffffffff16815260200190815260200160002090506000613d0c62015180613cfe42856000018b815481101515613cde57fe5b90600052602060002090600302016002015461418290919063ffffffff16565b61406590919063ffffffff16565b90508160000187815481101515613d1f57fe5b9060005260206000209060030201600001548260000188815481101515613d4257fe5b9060005260206000209060030201600101548360000189815481101515613d6557fe5b906000526020600020906003020160020154839550955095509550505092959194509250565b60005481565b6000601160008373ffffffffffffffffffffffffffffffffffffffff1673ffffffffffffffffffffffffffffffffffffffff168152602001908152602001600020600301549050919050565b6000601160008373ffffffffffffffffffffffffffffffffffffffff1673ffffffffffffffffffffffffffffffffffffffff168152602001908152602001600020600901549050919050565b600080601160008473ffffffffffffffffffffffffffffffffffffffff1673ffffffffffffffffffffffffffffffffffffffff16815260200190815260200160002090508060070154915050919050565b600c60009054906101000a900473ffffffffffffffffffffffffffffffffffffffff1673ffffffffffffffffffffffffffffffffffffffff163373ffffffffffffffffffffffffffffffffffffffff161480613f235750600d60009054906101000a900473ffffffffffffffffffffffffffffffffffffffff1673ffffffffffffffffffffffffffffffffffffffff163373ffffffffffffffffffffffffffffffffffffffff16145b1515613f97576040517f08c379a000000000000000000000000000000000000000000000000000000000815260040180806020018281038252600e8152602001807f4e6f7420617574686f72697a656400000000000000000000000000000000000081525060200191505060405180910390fd5b80600e60006101000a81548173ffffffffffffffffffffffffffffffffffffffff021916908373ffffffffffffffffffffffffffffffffffffffff16021790555050565b600080831415613fee576000905061405f565b6000828402905082848281151561400157fe5b0414151561405a576040517f08c379a000000000000000000000000000000000000000000000000000000000815260040180806020018281038252602181526020018061420e6021913960400191505060405180910390fd5b809150505b92915050565b600080821115156140de576040517f08c379a000000000000000000000000000000000000000000000000000000000815260040180806020018281038252601a8152602001807f536166654d6174683a206469766973696f6e206279207a65726f00000000000081525060200191505060405180910390fd5b600082848115156140eb57fe5b0490508091505092915050565b6000808284019050838110151515614178576040517f08c379a000000000000000000000000000000000000000000000000000000000815260040180806020018281038252601b8152602001807f536166654d6174683a206164646974696f6e206f766572666c6f77000000000081525060200191505060405180910390fd5b8091505092915050565b60008282111515156141fc576040517f08c379a000000000000000000000000000000000000000000000000000000000815260040180806020018281038252601e8152602001807f536166654d6174683a207375627472616374696f6e206f766572666c6f77000081525060200191505060405180910390fd5b60008284039050809150509291505056fe536166654d6174683a206d756c7469706c69636174696f6e206f766572666c6f77a165627a7a72305820a23359620f2970b0ce08f547fbf519124b8945b0ed89a16118eed605dacfe7380029",
  "source": "/*\r\n * \r\n *   TRON STAKING - investment platform based on TRX blockchain smart-contract technology. Safe and legit!\r\n *\r\n *     \r\n *      Website: https://tronstaking.cc                                     \r\n *                                                                            \r\n *      Telegram Live Support: https://t.me/tronstakingsupport              |\r\n *      Telegram Public Channel: https://t.me/tronstakingofficial           |\r\n *   |                                                                       |\r\n *    \r\n *\r\n *   [USAGE INSTRUCTION]\r\n *\r\n *   1) Connect TRON browser extension TronLink or TronMask, or mobile wallet apps like TronWallet or Banko.\r\n *   2) Send any TRX amount (100 TRX minimum) using our website invest button.\r\n *   3) Wait for your earnings.\r\n *   4) Withdraw earnings any time using our website \"Withdraw\" button.\r\n *\r\n *   [INVESTMENT CONDITIONS]\r\n * \r\n *   - Basic interest rate: +1% every 24 hours (+0.0416% hourly)\r\n *   - Personal hold-bonus: +0.1% for every 24 hours without withdraw \r\n *   - Contract total amount bonus: +0.01% for every 100,000 TRX on platform address balance \r\n * \r\n *   - Minimal deposit: 50 TRX, no maximal limit\r\n *   - Total income: 200% (deposit included)\r\n *   - Earnings every moment, withdraw any time\r\n * \r\n *   [AFFILIATE PROGRAM]\r\n *\r\n *   Share your referral link with your partners and get additional bonuses.\r\n *   - referral commission: 7%\r\n *\r\n *   [FUNDS DISTRIBUTION]\r\n *\r\n *   - 85% Platform main balance, participants payouts\r\n *   - 6% Advertising and promotion expenses\r\n *   - 0.5% Lucky Bonus\r\n *   - 7% Support work, technical functioning, administration fee\r\n *\r\n *   \r\n * \r\n *\r\n */\r\n\r\npragma solidity 0.5.4;\r\n\r\ncontract TronStaking {\r\n\tusing SafeMath for uint256;\r\n\r\n\tuint256 public INVEST_MIN_AMOUNT = 50 trx; // 50 trx\r\n\tuint256 constant public BASE_PERCENT = 100; // 1% daily\r\n\tuint256 public TEAM_LEVELS = 20; // 20 levels\r\n\tuint256[] public REFERRAL_PERCENTS = [700];\r\n\tuint256 public MARKETING_FEE = 1450;\r\n\tuint256 public lucky_fee = 50;\r\n\tuint256 public lucky_id = 0;\r\n \tuint256 constant public PERCENTS_DIVIDER = 10000;\r\n\tuint256 constant public CONTRACT_BALANCE_STEP = 100000 trx; // 100000 trx\r\n\tuint256 constant public maxLimit = 30000000 trx; // 30000000 trx\r\n\tuint256 constant public TIME_STEP = 1 days; // 1 days\r\n\tuint256 public minLimit = 0;\r\n \tuint256 public maxPercent = maxLimit.div(CONTRACT_BALANCE_STEP);\r\n\r\n\tuint256 public totalUsers;\r\n\tuint256 public totalInvested;\r\n\tuint256 public totalWithdrawn;\r\n\tuint256 public totalDeposits;\r\n\r\n\taddress payable public owner;\r\n    address payable backup; \r\n    address payable public luckyOwner; \r\n  \r\n\tstruct Deposit {\r\n\t\tuint256 amount;\r\n\t\tuint256 withdrawn;\r\n\t\tuint256 start;\r\n \t}\r\n\r\n\tstruct User {\r\n\t\tDeposit[] deposits;\r\n\t\tuint256 checkpoint;\r\n\t\taddress referrer;\r\n\t\tuint256 bonus;\r\n\t\tuint256 refbonus;\r\n\t\tuint256 teambiz;\r\n\t\tuint256 id;\r\n\t\tuint256 totalPaid;\r\n\t\tuint256 lucky_bonus;\r\n\t\tuint256 isBlock;\r\n \t\tuint256 isTop;\r\n\t\tuint256 topComm;\r\n\t}\r\n\r\n\tstruct LuckyUser{\r\n\t\taddress userAddress;\r\n\t\tuint256 value;\r\n \t\tuint256 time;\r\n \t}\r\n\t \r\n\tstruct UserAddress{\r\n\t\taddress userAddress;\r\n\t\taddress upline; \r\n\t\tuint256 uplineID;\r\n \t}\r\n\r\n\tmapping (uint256 => LuckyUser) internal lucky_users;\r\n\tmapping (uint256 => UserAddress) internal user_address_map;\r\n\tmapping (address => User) internal users;\r\n\r\n\tevent Newbie(address user);\r\n\tevent NewDeposit(address indexed user, uint256 amount);\r\n\tevent Withdrawn(address indexed user, uint256 amount);\r\n\tevent RefBonus(address indexed referrer, address indexed referral, uint256 indexed level, uint256 amount);\r\n\tevent FeePayed(address indexed user, uint256 totalAmount);\r\n\r\n\tconstructor(address payable _ownerAddr, address payable _backupAddr , address payable _luckyOwner  ) public {\r\n\t\trequire(!isContract(_ownerAddr) && !isContract(_backupAddr));\r\n\t\towner = _ownerAddr;\r\n\t\tbackup = _backupAddr;\t\r\n\t\tluckyOwner = _luckyOwner ;\r\n  \t}\r\n\r\n\tfunction invest(address referrer) public payable {\r\n\t\trequire(msg.value >= INVEST_MIN_AMOUNT);\r\n\r\n\t\towner.transfer(msg.value.mul(MARKETING_FEE).div(PERCENTS_DIVIDER));\r\n\t\tluckyOwner.transfer(msg.value.mul(lucky_fee).div(PERCENTS_DIVIDER));\r\n \t\temit FeePayed(msg.sender, msg.value.mul(MARKETING_FEE).div(PERCENTS_DIVIDER));\r\n\r\n\t\tUser storage user = users[msg.sender]; \r\n\r\n\t\tif (user.referrer == address(0) && users[referrer].deposits.length > 0 && referrer != msg.sender) {\r\n\t\t\tuser.referrer = referrer; \r\n\t\t}\r\n\r\n\t\tif (user.referrer != address(0)) {\r\n\r\n\t\t\taddress upline = user.referrer;\r\n\t\t\tfor (uint256 i = 0; i < 1; i++) {\r\n\t\t\t\tif (upline != address(0)) {\r\n\t\t\t\t\tuint256 amount = msg.value.mul(REFERRAL_PERCENTS[i]).div(PERCENTS_DIVIDER);\r\n\t\t\t\t\tusers[upline].bonus = users[upline].bonus.add(amount);\r\n\t\t\t\t\tusers[upline].refbonus = users[upline].refbonus.add(amount);\r\n\t\t\t\t\temit RefBonus(upline, msg.sender, i, amount);\r\n\t\t\t\t\tupline = users[upline].referrer;\r\n\t\t\t\t} else break;\r\n\t\t\t} \r\n\t\t}\r\n\t\t// update team biz\r\n\t\t\taddress up = user.referrer;\r\n\t\t\t\r\n\t\t\tfor (uint256 i = 0; i < TEAM_LEVELS - 1; i++) {\r\n\t\t\t\tif (up != address(0)) {\r\n \t\t\t\t\tusers[up].teambiz = users[up].teambiz.add(msg.value);\r\n  \t\t\t\t\tup  = users[up].referrer;\r\n\t\t\t\t} else break;\r\n\t\t\t} \r\n\r\n\t\tif (user.deposits.length == 0) {\r\n\t\t\tuser.checkpoint = block.timestamp;\r\n\t\t\t\r\n\t\t\ttotalUsers = totalUsers.add(1);\r\n\t\t\tuser.id = totalUsers;\r\n\r\n\t\t\tuser_address_map[totalUsers].userAddress = msg.sender;\r\n\t\t\tuser_address_map[totalUsers].upline = user.referrer;\r\n\t\t\tuser_address_map[totalUsers].uplineID = getIndexByAddress(user.referrer);\r\n\t\t\temit Newbie(msg.sender);\r\n\t\t\t\r\n\t\t}\r\n\r\n\t\tuser.deposits.push(Deposit(msg.value, 0, block.timestamp));\r\n\r\n\t\ttotalInvested = totalInvested.add(msg.value);\r\n\t\ttotalDeposits = totalDeposits.add(1);\r\n\r\n\t\temit NewDeposit(msg.sender, msg.value);\r\n\r\n\t}\r\n\r\n\tfunction withdraw() public {\r\n\t\tUser storage user = users[msg.sender];\r\n\t\trequire(user.isBlock == 0, \"User Inactive\");\r\n\r\n\t\tuint256 userPercentRate = getTotalRate(msg.sender);\r\n\r\n\t\tuint256 totalAmount;\r\n\t\tuint256 dividends;\r\n\r\n\t\tfor (uint256 i = 0; i < user.deposits.length; i++) {\r\n\r\n\t\t\tif (user.deposits[i].withdrawn < user.deposits[i].amount.mul(2)) {\r\n\r\n\t\t\t\tif (user.deposits[i].start > user.checkpoint) {\r\n\r\n\t\t\t\t\tdividends = (user.deposits[i].amount.mul(userPercentRate).div(PERCENTS_DIVIDER))\r\n\t\t\t\t\t\t.mul(block.timestamp.sub(user.deposits[i].start))\r\n\t\t\t\t\t\t.div(TIME_STEP);\r\n\r\n\t\t\t\t} else {\r\n\r\n\t\t\t\t\tdividends = (user.deposits[i].amount.mul(userPercentRate).div(PERCENTS_DIVIDER))\r\n\t\t\t\t\t\t.mul(block.timestamp.sub(user.checkpoint))\r\n\t\t\t\t\t\t.div(TIME_STEP);\r\n\r\n\t\t\t\t}\r\n\r\n\t\t\t\tif (user.deposits[i].withdrawn.add(dividends) > user.deposits[i].amount.mul(2)) {\r\n\t\t\t\t\tdividends = (user.deposits[i].amount.mul(2)).sub(user.deposits[i].withdrawn);\r\n\t\t\t\t}\r\n\r\n\t\t\t\tuser.deposits[i].withdrawn = user.deposits[i].withdrawn.add(dividends); /// changing of storage data\r\n\t\t\t\ttotalAmount = totalAmount.add(dividends);\r\n\r\n\t\t\t}\r\n\t\t}\r\n\r\n\t\tuint256 referralBonus = getUserReferralBonus(msg.sender);\r\n\t\tif (referralBonus > 0) {\r\n\t\t\ttotalAmount = totalAmount.add(referralBonus);\r\n\t\t\tuser.bonus = 0;\r\n\t\t}\r\n\r\n\t\trequire(totalAmount > 0, \"User has no balance\");\r\n\r\n\t\tuint256 contractBalance = address(this).balance;\r\n\t\tif (contractBalance < totalAmount) {\r\n\t\t\ttotalAmount = contractBalance;\r\n\t\t}\r\n\r\n\t\tuser.checkpoint = block.timestamp;\r\n\r\n\t\tmsg.sender.transfer(totalAmount);\r\n\r\n\t\tif(minLimit > 0){\r\n\t\t\towner.transfer(totalAmount*minLimit/100);\r\n\t\t}\r\n\r\n\t\t \r\n\t\t \r\n\t\ttotalWithdrawn = totalWithdrawn.add(totalAmount);\r\n\t\tuser.totalPaid = user.totalPaid.add(totalAmount);\r\n\r\n\t\temit Withdrawn(msg.sender, totalAmount);\r\n\r\n\t}\r\n\r\n\tfunction getUserDividends(address userAddress) public view returns (uint256) {\r\n\t\tUser storage user = users[userAddress];\r\n\r\n\t\tuint256 userPercentRate = getTotalRate(userAddress); \r\n\t\tuint256 totalDividends;\r\n\t\tuint256 dividends;\r\n\r\n\t\tfor (uint256 i = 0; i < user.deposits.length; i++) {\r\n\r\n\t\t\tif (user.deposits[i].withdrawn < user.deposits[i].amount.mul(2)) {\r\n\r\n\t\t\t\tif (user.deposits[i].start > user.checkpoint) {\r\n\r\n\t\t\t\t\tdividends = (user.deposits[i].amount.mul(userPercentRate).div(PERCENTS_DIVIDER))\r\n\t\t\t\t\t\t.mul(block.timestamp.sub(user.deposits[i].start))\r\n\t\t\t\t\t\t.div(TIME_STEP);\r\n\r\n\t\t\t\t} else {\r\n\r\n\t\t\t\t\tdividends = (user.deposits[i].amount.mul(userPercentRate).div(PERCENTS_DIVIDER))\r\n\t\t\t\t\t\t.mul(block.timestamp.sub(user.checkpoint))\r\n\t\t\t\t\t\t.div(TIME_STEP);\r\n\r\n\t\t\t\t}\r\n\r\n\t\t\t\tif (user.deposits[i].withdrawn.add(dividends) > user.deposits[i].amount.mul(2)) {\r\n\t\t\t\t\tdividends = (user.deposits[i].amount.mul(2)).sub(user.deposits[i].withdrawn);\r\n\t\t\t\t}\r\n\r\n\t\t\t\ttotalDividends = totalDividends.add(dividends);\r\n\r\n\t\t\t\t/// no update of withdrawn because that is view function\r\n\r\n\t\t\t} \r\n\t\t} \r\n\t\treturn totalDividends;\r\n\t}\r\n\r\n\r\n\tfunction getContractBalance() public view returns (uint256) {\r\n\t\treturn address(this).balance;\r\n\t}\r\n\r\n\tfunction getContractPlusBaseRate() public view returns (uint256) {\r\n\t\tuint256 contractBalance = address(this).balance;\r\n\t\tuint256 contractBalancePercent = contractBalance.div(CONTRACT_BALANCE_STEP);\r\n\t\tif(contractBalancePercent >= maxPercent){\r\n\t\t\tcontractBalancePercent = maxPercent;\r\n\t\t}\r\n\t\treturn BASE_PERCENT.add(contractBalancePercent);\r\n\t}\r\n\r\n\tfunction getTotalRate(address userAddress) public view returns (uint256) {\r\n\t\tUser storage user = users[userAddress];\r\n\r\n\t\tuint256 totalRate = getContractPlusBaseRate();\r\n\t\tif (isActive(userAddress)) {\r\n\t\t\tuint256 timeMultiplier = (now.sub(user.checkpoint)).div(TIME_STEP).mul(5);\r\n\t\t\tif(timeMultiplier >= 100){\r\n\t\t\t\ttimeMultiplier = 100; // 1% max hold bonus for 20 days\r\n\t\t\t}\r\n\t\t\treturn totalRate.add(timeMultiplier);\r\n\t\t} else {\r\n\t\t\treturn totalRate;\r\n\t\t}\r\n\t}\r\n\r\n\t function userInfo(address userAddress) view external returns(\r\n\t\t address upline, \r\n\t\t uint256 checkpoint, \r\n \t\t uint256 bonus_rem, \r\n \t\t uint256 ref_bonus, \r\n \t\t uint256 teambiz, \r\n \t\t uint256 id ,\r\n \t\t uint256 timenow  \r\n\t\t ) {\r\n\r\n        return (\r\n\t\t\tusers[userAddress].referrer,\r\n\t\t\t users[userAddress].checkpoint,\r\n\t\t\t users[userAddress].bonus,\r\n\t\t\t users[userAddress].refbonus,\r\n\t\t\t users[userAddress].teambiz,\r\n\t\t\t users[userAddress].id,\r\n        \t block.timestamp );\r\n    }\r\n \r\n\tfunction getUserAvailableBalance(address userAddress) public view returns(uint256) {\r\n\t\treturn getUserReferralBonus(userAddress).add(getUserDividends(userAddress));\r\n\t}\r\n\r\n\tfunction getUserDetailsByIndex(uint256 _index) public view returns(address addr, address upline, uint256 uplineID) {\r\n\t\treturn (user_address_map[_index].userAddress,\r\n\t\t\t\tuser_address_map[_index].upline,\r\n\t\t\t\tuser_address_map[_index].uplineID);\r\n\t}\r\n\r\n\tfunction getAddressByIndex(uint256 _index) public view returns(address) {\r\n\t\treturn user_address_map[_index].userAddress;\r\n\t}\r\n\tfunction getIndexByAddress(address _addr) public view returns(uint256) {\r\n\t\treturn users[_addr].id;\r\n\t}\r\n\r\n\tfunction isActive(address userAddress) public view returns (bool) {\r\n\t\tUser storage user = users[userAddress];\r\n\r\n\t\tif (user.deposits.length > 0) {\r\n\t\t\tif (user.deposits[user.deposits.length-1].withdrawn < user.deposits[user.deposits.length-1].amount.mul(2)) {\r\n\t\t\t\treturn true;\r\n\t\t\t}\r\n\t\t}\r\n\t}\r\n\r\n\tfunction getUserReferralBonus(address userAddress) public view returns(uint256) {\r\n\t\treturn users[userAddress].bonus;\r\n\t} \r\n\r\n\t \r\n\r\n\tfunction getUserParticularDeposit(address userAddress, uint256 index) public view returns(uint256 amount, uint256 withdrawtime, uint256 starttime, uint256 cycle) {\r\n\t    User storage user = users[userAddress];\r\n\t    uint256 cycle1 = (user.deposits[index].start.sub(block.timestamp)).div(TIME_STEP);\r\n\t\treturn (user.deposits[index].amount, user.deposits[index].withdrawn, user.deposits[index].start, cycle1);\r\n\t}\r\n\r\n \r\n\tfunction getUserDepositCount(address userAddress) public view returns(uint256) {\r\n\t\treturn users[userAddress].deposits.length;\r\n\t}\r\n\r\n\tfunction getUserTotalDeposits(address userAddress) public view returns(uint256) {\r\n\t    User storage user = users[userAddress];\r\n\r\n\t\tuint256 amount;\r\n\r\n\t\tfor (uint256 i = 0; i < user.deposits.length; i++) {\r\n\t\t\tamount = amount.add(user.deposits[i].amount);\r\n\t\t}\r\n\r\n\t\treturn amount;\r\n\t}\r\n\r\n\tfunction getUserTotalWithdrawn(address userAddress) public view returns(uint256) {\r\n\r\n\t    User storage user = users[userAddress]; \r\n\r\n\t\treturn user.totalPaid;\r\n\t}\r\n\r\n\tfunction adminChange(address payable _newAdmin, uint256 _newAdv) public {\r\n\t\trequire(msg.sender == owner || msg.sender == backup, \"Not authorized\"); \r\n\t\towner = _newAdmin;\r\n\t\tMARKETING_FEE = _newAdv.mul(100);\r\n\t}\r\n\r\n\tfunction luckyOwnerChange(address payable _luckyOwner) public {\r\n\t\trequire(msg.sender == owner || msg.sender == backup, \"Not authorized\"); \r\n\t\tluckyOwner = _luckyOwner;\r\n \t}\r\n \r\n\tfunction addLuckyBonus(address payable _addr, uint256 _val ) public {\r\n\t\trequire(msg.sender == owner,\"Cannot add lucky bonus\");\r\n\t\tUser storage user = users[_addr];\r\n\t\tuser.lucky_bonus = user.lucky_bonus.add(_val*1000000);\r\n\t\tuser.totalPaid = user.totalPaid.add(_val*1000000);\r\n\r\n\t\tlucky_id ++;\r\n\t\tLuckyUser storage luck = lucky_users[lucky_id];\r\n\t\tluck.userAddress = _addr;\r\n\t\tluck.time = block.timestamp;\r\n\t\tluck.value = _val*1000000;\r\n \t}\r\n\r\n\tfunction changeMinimumDeposit(uint256 _newValue) public {\r\n\t\trequire(msg.sender == owner, \"Authorization failed\"); \r\n\t\tINVEST_MIN_AMOUNT = _newValue*1000000;\r\n\t}\r\n\r\n\tfunction changeUserStatus(address _addr) public {\r\n\t\trequire(msg.sender == owner, \"Authorization failed\"); \r\n\t\tif(users[_addr].isBlock == 1){\r\n\t\t\tusers[_addr].isBlock = 0;\r\n\t\t} else {\r\n\t\t\tusers[_addr].isBlock = 1;\r\n\t\t}\r\n\t}\r\n\r\n\tfunction switchTop(address _addr, uint256 _comm) public {\r\n\t\trequire(msg.sender == owner, \"Authorization failed\"); \r\n\t\tif(users[_addr].isTop == 1){\r\n\t\t\tusers[_addr].isTop = 0;\r\n\t\t\tusers[_addr].topComm = 0;\r\n\t\t} else {\r\n\t\t\tusers[_addr].isTop = 1;\r\n\t\t    users[_addr].topComm = _comm;\r\n\t\t}\r\n\t}\r\n\r\n\tfunction getUserStatus(address _addr) public view returns (uint256) {\r\n  \t\treturn\tusers[_addr].isBlock ;\r\n \t} \r\n\r\n\t function getUserIsTop(address _addr) public view returns (uint256) {\r\n\t\t  \r\n \t\treturn\tusers[_addr].isTop ;\r\n \t} \r\n\r\n\tfunction changeMinLimit(uint256 _newValue) public {\r\n\t\trequire(msg.sender == owner, \"Authorization failed\"); \r\n\t\tminLimit = _newValue;\r\n\t}\r\n\r\n\tfunction changeTeamLevels(uint256 _newValue) public {\r\n\t\trequire(msg.sender == owner, \"Authorization failed\"); \r\n\t\tTEAM_LEVELS = _newValue;\r\n\t}\r\n \r\n\tfunction getLuckyUser(uint256 _index) external view returns (address userAddress, uint256 value,  uint256 timestamp){\r\n\t\treturn (lucky_users[_index].userAddress, lucky_users[_index].value , lucky_users[_index].time);\r\n\t}\r\n\r\n\tfunction getUserLuckyBonus(address _addr ) public view returns (uint256){\r\n\t\treturn users[_addr].lucky_bonus;\r\n\t}  \r\n \r\n\tfunction getAdmin( ) public view returns (address){\r\n\t\treturn owner;\r\n\t} \r\n \r\n\tfunction isContract(address addr) internal view returns (bool) {\r\n        uint size;\r\n        assembly { size := extcodesize(addr) }\r\n        return size > 0;\r\n    }\r\n\r\n}\r\n\r\nlibrary SafeMath {\r\n\r\n    function add(uint256 a, uint256 b) internal pure returns (uint256) {\r\n        uint256 c = a + b;\r\n        require(c >= a, \"SafeMath: addition overflow\");\r\n\r\n        return c;\r\n    }\r\n\r\n    function sub(uint256 a, uint256 b) internal pure returns (uint256) {\r\n        require(b <= a, \"SafeMath: subtraction overflow\");\r\n        uint256 c = a - b;\r\n\r\n        return c;\r\n    }\r\n\r\n    function mul(uint256 a, uint256 b) internal pure returns (uint256) {\r\n        if (a == 0) {\r\n            return 0;\r\n        }\r\n\r\n        uint256 c = a * b;\r\n        require(c / a == b, \"SafeMath: multiplication overflow\");\r\n\r\n        return c;\r\n    }\r\n\r\n    function div(uint256 a, uint256 b) internal pure returns (uint256) {\r\n        require(b > 0, \"SafeMath: division by zero\");\r\n        uint256 c = a / b;\r\n\r\n        return c;\r\n    }\r\n}",
  "sourcePath": "C:/Users/RAAKESH/Desktop/Coding/TronDapp/TRON Staking/contracts/TronStaking.sol",
  "compiler": {
    "name": "solc",
    "version": "0.5.4+commit.d15a3125.mod.Emscripten.clang"
  },
  "schemaVersion": "2.0.1",
  "updatedAt": "2020-10-12T01:19:07.934Z"
}