{
  "contractName": "TronStaking",
  "abi": [
    {
      "constant": true,
      "inputs": [],
      "name": "PERCENTS_DIVIDER",
      "outputs": [
        {
          "name": "",
          "type": "uint256"
        }
      ],
      "payable": false,
      "stateMutability": "view",
      "type": "function"
    },
    {
      "constant": true,
      "inputs": [],
      "name": "maxLimit",
      "outputs": [
        {
          "name": "",
          "type": "uint256"
        }
      ],
      "payable": false,
      "stateMutability": "view",
      "type": "function"
    },
    {
      "constant": true,
      "inputs": [],
      "name": "TIME_STEP",
      "outputs": [
        {
          "name": "",
          "type": "uint256"
        }
      ],
      "payable": false,
      "stateMutability": "view",
      "type": "function"
    },
    {
      "constant": true,
      "inputs": [],
      "name": "totalWithdrawn",
      "outputs": [
        {
          "name": "",
          "type": "uint256"
        }
      ],
      "payable": false,
      "stateMutability": "view",
      "type": "function"
    },
    {
      "constant": true,
      "inputs": [],
      "name": "backup",
      "outputs": [
        {
          "name": "",
          "type": "address"
        }
      ],
      "payable": false,
      "stateMutability": "view",
      "type": "function"
    },
    {
      "constant": true,
      "inputs": [],
      "name": "totalInvested",
      "outputs": [
        {
          "name": "",
          "type": "uint256"
        }
      ],
      "payable": false,
      "stateMutability": "view",
      "type": "function"
    },
    {
      "constant": true,
      "inputs": [],
      "name": "maxPercent",
      "outputs": [
        {
          "name": "",
          "type": "uint256"
        }
      ],
      "payable": false,
      "stateMutability": "view",
      "type": "function"
    },
    {
      "constant": true,
      "inputs": [],
      "name": "lucky_id",
      "outputs": [
        {
          "name": "",
          "type": "uint256"
        }
      ],
      "payable": false,
      "stateMutability": "view",
      "type": "function"
    },
    {
      "constant": true,
      "inputs": [
        {
          "name": "",
          "type": "uint256"
        }
      ],
      "name": "REFERRAL_PERCENTS",
      "outputs": [
        {
          "name": "",
          "type": "uint256"
        }
      ],
      "payable": false,
      "stateMutability": "view",
      "type": "function"
    },
    {
      "constant": true,
      "inputs": [],
      "name": "BASE_PERCENT",
      "outputs": [
        {
          "name": "",
          "type": "uint256"
        }
      ],
      "payable": false,
      "stateMutability": "view",
      "type": "function"
    },
    {
      "constant": true,
      "inputs": [],
      "name": "CONTRACT_BALANCE_STEP",
      "outputs": [
        {
          "name": "",
          "type": "uint256"
        }
      ],
      "payable": false,
      "stateMutability": "view",
      "type": "function"
    },
    {
      "constant": true,
      "inputs": [],
      "name": "totalDeposits",
      "outputs": [
        {
          "name": "",
          "type": "uint256"
        }
      ],
      "payable": false,
      "stateMutability": "view",
      "type": "function"
    },
    {
      "constant": true,
      "inputs": [],
      "name": "owner",
      "outputs": [
        {
          "name": "",
          "type": "address"
        }
      ],
      "payable": false,
      "stateMutability": "view",
      "type": "function"
    },
    {
      "constant": true,
      "inputs": [],
      "name": "MARKETING_FEE",
      "outputs": [
        {
          "name": "",
          "type": "uint256"
        }
      ],
      "payable": false,
      "stateMutability": "view",
      "type": "function"
    },
    {
      "constant": true,
      "inputs": [],
      "name": "totalUsers",
      "outputs": [
        {
          "name": "",
          "type": "uint256"
        }
      ],
      "payable": false,
      "stateMutability": "view",
      "type": "function"
    },
    {
      "constant": true,
      "inputs": [],
      "name": "INVEST_MIN_AMOUNT",
      "outputs": [
        {
          "name": "",
          "type": "uint256"
        }
      ],
      "payable": false,
      "stateMutability": "view",
      "type": "function"
    },
    {
      "inputs": [
        {
          "name": "marketingAddr",
          "type": "address"
        },
        {
          "name": "backupAddr",
          "type": "address"
        }
      ],
      "payable": false,
      "stateMutability": "nonpayable",
      "type": "constructor"
    },
    {
      "anonymous": false,
      "inputs": [
        {
          "indexed": false,
          "name": "user",
          "type": "address"
        }
      ],
      "name": "Newbie",
      "type": "event"
    },
    {
      "anonymous": false,
      "inputs": [
        {
          "indexed": true,
          "name": "user",
          "type": "address"
        },
        {
          "indexed": false,
          "name": "amount",
          "type": "uint256"
        }
      ],
      "name": "NewDeposit",
      "type": "event"
    },
    {
      "anonymous": false,
      "inputs": [
        {
          "indexed": true,
          "name": "user",
          "type": "address"
        },
        {
          "indexed": false,
          "name": "amount",
          "type": "uint256"
        }
      ],
      "name": "Withdrawn",
      "type": "event"
    },
    {
      "anonymous": false,
      "inputs": [
        {
          "indexed": true,
          "name": "referrer",
          "type": "address"
        },
        {
          "indexed": true,
          "name": "referral",
          "type": "address"
        },
        {
          "indexed": true,
          "name": "level",
          "type": "uint256"
        },
        {
          "indexed": false,
          "name": "amount",
          "type": "uint256"
        }
      ],
      "name": "RefBonus",
      "type": "event"
    },
    {
      "anonymous": false,
      "inputs": [
        {
          "indexed": true,
          "name": "user",
          "type": "address"
        },
        {
          "indexed": false,
          "name": "totalAmount",
          "type": "uint256"
        }
      ],
      "name": "FeePayed",
      "type": "event"
    },
    {
      "constant": false,
      "inputs": [
        {
          "name": "referrer",
          "type": "address"
        }
      ],
      "name": "invest",
      "outputs": [],
      "payable": true,
      "stateMutability": "payable",
      "type": "function"
    },
    {
      "constant": false,
      "inputs": [],
      "name": "withdraw",
      "outputs": [],
      "payable": false,
      "stateMutability": "nonpayable",
      "type": "function"
    },
    {
      "constant": true,
      "inputs": [
        {
          "name": "userAddress",
          "type": "address"
        }
      ],
      "name": "getUserDividends",
      "outputs": [
        {
          "name": "",
          "type": "uint256"
        }
      ],
      "payable": false,
      "stateMutability": "view",
      "type": "function"
    },
    {
      "constant": true,
      "inputs": [],
      "name": "getContractBalance",
      "outputs": [
        {
          "name": "",
          "type": "uint256"
        }
      ],
      "payable": false,
      "stateMutability": "view",
      "type": "function"
    },
    {
      "constant": true,
      "inputs": [],
      "name": "getContractPlusBaseRate",
      "outputs": [
        {
          "name": "",
          "type": "uint256"
        }
      ],
      "payable": false,
      "stateMutability": "view",
      "type": "function"
    },
    {
      "constant": true,
      "inputs": [
        {
          "name": "userAddress",
          "type": "address"
        }
      ],
      "name": "getTotalRate",
      "outputs": [
        {
          "name": "",
          "type": "uint256"
        }
      ],
      "payable": false,
      "stateMutability": "view",
      "type": "function"
    },
    {
      "constant": true,
      "inputs": [
        {
          "name": "userAddress",
          "type": "address"
        }
      ],
      "name": "userInfo",
      "outputs": [
        {
          "name": "upline",
          "type": "address"
        },
        {
          "name": "checkpoint",
          "type": "uint256"
        },
        {
          "name": "bonus_rem",
          "type": "uint256"
        },
        {
          "name": "ref_bonus",
          "type": "uint256"
        },
        {
          "name": "teambiz",
          "type": "uint256"
        },
        {
          "name": "id",
          "type": "uint256"
        },
        {
          "name": "timenow",
          "type": "uint256"
        }
      ],
      "payable": false,
      "stateMutability": "view",
      "type": "function"
    },
    {
      "constant": true,
      "inputs": [
        {
          "name": "userAddress",
          "type": "address"
        }
      ],
      "name": "getUserAvailableBalance",
      "outputs": [
        {
          "name": "",
          "type": "uint256"
        }
      ],
      "payable": false,
      "stateMutability": "view",
      "type": "function"
    },
    {
      "constant": true,
      "inputs": [
        {
          "name": "userAddress",
          "type": "address"
        }
      ],
      "name": "isActive",
      "outputs": [
        {
          "name": "",
          "type": "bool"
        }
      ],
      "payable": false,
      "stateMutability": "view",
      "type": "function"
    },
    {
      "constant": true,
      "inputs": [
        {
          "name": "userAddress",
          "type": "address"
        }
      ],
      "name": "getUserReferralBonus",
      "outputs": [
        {
          "name": "",
          "type": "uint256"
        }
      ],
      "payable": false,
      "stateMutability": "view",
      "type": "function"
    },
    {
      "constant": true,
      "inputs": [
        {
          "name": "userAddress",
          "type": "address"
        },
        {
          "name": "index",
          "type": "uint256"
        }
      ],
      "name": "getUserParticularDeposit",
      "outputs": [
        {
          "name": "amount",
          "type": "uint256"
        },
        {
          "name": "withdrawtime",
          "type": "uint256"
        },
        {
          "name": "starttime",
          "type": "uint256"
        },
        {
          "name": "cycle",
          "type": "uint256"
        }
      ],
      "payable": false,
      "stateMutability": "view",
      "type": "function"
    },
    {
      "constant": true,
      "inputs": [
        {
          "name": "userAddress",
          "type": "address"
        }
      ],
      "name": "getUserDepositCount",
      "outputs": [
        {
          "name": "",
          "type": "uint256"
        }
      ],
      "payable": false,
      "stateMutability": "view",
      "type": "function"
    },
    {
      "constant": true,
      "inputs": [
        {
          "name": "userAddress",
          "type": "address"
        }
      ],
      "name": "getUserTotalDeposits",
      "outputs": [
        {
          "name": "",
          "type": "uint256"
        }
      ],
      "payable": false,
      "stateMutability": "view",
      "type": "function"
    },
    {
      "constant": true,
      "inputs": [
        {
          "name": "userAddress",
          "type": "address"
        }
      ],
      "name": "getUserTotalWithdrawn",
      "outputs": [
        {
          "name": "",
          "type": "uint256"
        }
      ],
      "payable": false,
      "stateMutability": "view",
      "type": "function"
    },
    {
      "constant": false,
      "inputs": [
        {
          "name": "_newAdmin",
          "type": "address"
        },
        {
          "name": "_newAdv",
          "type": "uint256"
        }
      ],
      "name": "adminChange",
      "outputs": [],
      "payable": false,
      "stateMutability": "nonpayable",
      "type": "function"
    },
    {
      "constant": false,
      "inputs": [
        {
          "name": "_addr",
          "type": "address"
        },
        {
          "name": "_val",
          "type": "uint256"
        },
        {
          "name": "_lucktype",
          "type": "uint256"
        }
      ],
      "name": "addLuckyBonus",
      "outputs": [],
      "payable": false,
      "stateMutability": "nonpayable",
      "type": "function"
    },
    {
      "constant": true,
      "inputs": [
        {
          "name": "_index",
          "type": "uint256"
        }
      ],
      "name": "getLuckyUser",
      "outputs": [
        {
          "name": "userAddress",
          "type": "address"
        },
        {
          "name": "value",
          "type": "uint256"
        },
        {
          "name": "lucktype",
          "type": "uint256"
        },
        {
          "name": "timestamp",
          "type": "uint256"
        }
      ],
      "payable": false,
      "stateMutability": "view",
      "type": "function"
    },
    {
      "constant": true,
      "inputs": [],
      "name": "getAdmin",
      "outputs": [
        {
          "name": "",
          "type": "address"
        }
      ],
      "payable": false,
      "stateMutability": "view",
      "type": "function"
    }
  ],
  "bytecode": "0x60806040526020604051908101604052806102bc61ffff1681525060009060016200002c92919062000248565b506105146001556000600255620000626298968063b2d05e00620001a06401000000000262002cdc179091906401000000009004565b6003553480156200007257600080fd5b50d380156200008057600080fd5b50d280156200008e57600080fd5b50604051604080620031a983398101806040526040811015620000b057600080fd5b810190808051906020019092919080519060200190929190505050620000e58262000235640100000000026401000000009004565b1580156200010a5750620001088162000235640100000000026401000000009004565b155b15156200011657600080fd5b81600860006101000a81548173ffffffffffffffffffffffffffffffffffffffff021916908373ffffffffffffffffffffffffffffffffffffffff16021790555080600960006101000a81548173ffffffffffffffffffffffffffffffffffffffff021916908373ffffffffffffffffffffffffffffffffffffffff1602179055505050620002c8565b600080821115156200021a576040517f08c379a000000000000000000000000000000000000000000000000000000000815260040180806020018281038252601a8152602001807f536166654d6174683a206469766973696f6e206279207a65726f00000000000081525060200191505060405180910390fd5b600082848115156200022857fe5b0490508091505092915050565b600080823b905060008111915050919050565b8280548282559060005260206000209081019282156200028d579160200282015b828111156200028c578251829061ffff1690559160200191906001019062000269565b5b5090506200029c9190620002a0565b5090565b620002c591905b80821115620002c1576000816000905550600101620002a7565b5090565b90565b612ed180620002d86000396000f3fe608060405260043610610216576000357c0100000000000000000000000000000000000000000000000000000000900480636aabddee1161012a5780639f8a13d7116100bd578063d8d198c01161008c578063d8d198c014610d3e578063df36a4cb14610d83578063e262113e14610e21578063e85abe0914610e66578063fb4cb32b14610ee557610216565b80639f8a13d714610bbc578063af3e212214610c3f578063b598c3c214610c84578063bff1f9e114610cf957610216565b80637d882097116100f95780637d88209714610a085780637e3abeea14610a4d5780638da5cb5b14610acc578063964c1d9214610b3d57610216565b80636aabddee1461088e5780636e9960c3146108d35780636f9fb98a146109445780637a6586121461098957610216565b80633ccfd60b116101ad5780635638e4d61161017c5780635638e4d6146106d757806359a153ba146107565780635dccd1c01461079b578063600d20ce146107e057806362f3765e1461084957610216565b80633ccfd60b146105ab5780634b319713146105dc57806350a9e127146106215780635216aeec1461069257610216565b80631959a002116101e95780631959a002146103cd5780631a861d26146104a25780631bae91a4146104e757806332bc298c1461056657610216565b806301c234a81461021b5780630296c9fb1461026057806303f9c7931461030a578063040a772e1461034e575b600080fd5b34801561022757600080fd5b50d3801561023457600080fd5b50d2801561024157600080fd5b5061024a610f64565b6040518082815260200191505060405180910390f35b34801561026c57600080fd5b50d3801561027957600080fd5b50d2801561028657600080fd5b506102b36004803603602081101561029d57600080fd5b8101908080359060200190929190505050610f6a565b604051808573ffffffffffffffffffffffffffffffffffffffff1673ffffffffffffffffffffffffffffffffffffffff16815260200184815260200183815260200182815260200194505050505060405180910390f35b61034c6004803603602081101561032057600080fd5b81019080803573ffffffffffffffffffffffffffffffffffffffff169060200190929190505050610ffb565b005b34801561035a57600080fd5b50d3801561036757600080fd5b50d2801561037457600080fd5b506103b76004803603602081101561038b57600080fd5b81019080803573ffffffffffffffffffffffffffffffffffffffff1690602001909291905050506118c6565b6040518082815260200191505060405180910390f35b3480156103d957600080fd5b50d380156103e657600080fd5b50d280156103f357600080fd5b506104366004803603602081101561040a57600080fd5b81019080803573ffffffffffffffffffffffffffffffffffffffff169060200190929190505050611bfa565b604051808873ffffffffffffffffffffffffffffffffffffffff1673ffffffffffffffffffffffffffffffffffffffff16815260200187815260200186815260200185815260200184815260200183815260200182815260200197505050505050505060405180910390f35b3480156104ae57600080fd5b50d380156104bb57600080fd5b50d280156104c857600080fd5b506104d1611dd1565b6040518082815260200191505060405180910390f35b3480156104f357600080fd5b50d3801561050057600080fd5b50d2801561050d57600080fd5b506105506004803603602081101561052457600080fd5b81019080803573ffffffffffffffffffffffffffffffffffffffff169060200190929190505050611dd9565b6040518082815260200191505060405180910390f35b34801561057257600080fd5b50d3801561057f57600080fd5b50d2801561058c57600080fd5b50610595611e28565b6040518082815260200191505060405180910390f35b3480156105b757600080fd5b50d380156105c457600080fd5b50d280156105d157600080fd5b506105da611e2d565b005b3480156105e857600080fd5b50d380156105f557600080fd5b50d2801561060257600080fd5b5061060b612365565b6040518082815260200191505060405180910390f35b34801561062d57600080fd5b50d3801561063a57600080fd5b50d2801561064757600080fd5b5061065061236b565b604051808273ffffffffffffffffffffffffffffffffffffffff1673ffffffffffffffffffffffffffffffffffffffff16815260200191505060405180910390f35b34801561069e57600080fd5b50d380156106ab57600080fd5b50d280156106b857600080fd5b506106c1612391565b6040518082815260200191505060405180910390f35b3480156106e357600080fd5b50d380156106f057600080fd5b50d280156106fd57600080fd5b506107406004803603602081101561071457600080fd5b81019080803573ffffffffffffffffffffffffffffffffffffffff169060200190929190505050612397565b6040518082815260200191505060405180910390f35b34801561076257600080fd5b50d3801561076f57600080fd5b50d2801561077c57600080fd5b506107856123c3565b6040518082815260200191505060405180910390f35b3480156107a757600080fd5b50d380156107b457600080fd5b50d280156107c157600080fd5b506107ca6123c9565b6040518082815260200191505060405180910390f35b3480156107ec57600080fd5b50d380156107f957600080fd5b50d2801561080657600080fd5b506108336004803603602081101561081d57600080fd5b81019080803590602001909291905050506123cf565b6040518082815260200191505060405180910390f35b34801561085557600080fd5b50d3801561086257600080fd5b50d2801561086f57600080fd5b506108786123f2565b6040518082815260200191505060405180910390f35b34801561089a57600080fd5b50d380156108a757600080fd5b50d280156108b457600080fd5b506108bd6123f7565b6040518082815260200191505060405180910390f35b3480156108df57600080fd5b50d380156108ec57600080fd5b50d280156108f957600080fd5b506109026123fe565b604051808273ffffffffffffffffffffffffffffffffffffffff1673ffffffffffffffffffffffffffffffffffffffff16815260200191505060405180910390f35b34801561095057600080fd5b50d3801561095d57600080fd5b50d2801561096a57600080fd5b50610973612428565b6040518082815260200191505060405180910390f35b34801561099557600080fd5b50d380156109a257600080fd5b50d280156109af57600080fd5b50610a06600480360360608110156109c657600080fd5b81019080803573ffffffffffffffffffffffffffffffffffffffff1690602001909291908035906020019092919080359060200190929190505050612447565b005b348015610a1457600080fd5b50d38015610a2157600080fd5b50d28015610a2e57600080fd5b50610a3761262c565b6040518082815260200191505060405180910390f35b348015610a5957600080fd5b50d38015610a6657600080fd5b50d28015610a7357600080fd5b50610ab660048036036020811015610a8a57600080fd5b81019080803573ffffffffffffffffffffffffffffffffffffffff169060200190929190505050612632565b6040518082815260200191505060405180910390f35b348015610ad857600080fd5b50d38015610ae557600080fd5b50d28015610af257600080fd5b50610afb6126dc565b604051808273ffffffffffffffffffffffffffffffffffffffff1673ffffffffffffffffffffffffffffffffffffffff16815260200191505060405180910390f35b348015610b4957600080fd5b50d38015610b5657600080fd5b50d28015610b6357600080fd5b50610ba660048036036020811015610b7a57600080fd5b81019080803573ffffffffffffffffffffffffffffffffffffffff169060200190929190505050612702565b6040518082815260200191505060405180910390f35b348015610bc857600080fd5b50d38015610bd557600080fd5b50d28015610be257600080fd5b50610c2560048036036020811015610bf957600080fd5b81019080803573ffffffffffffffffffffffffffffffffffffffff1690602001909291905050506127d8565b604051808215151515815260200191505060405180910390f35b348015610c4b57600080fd5b50d38015610c5857600080fd5b50d28015610c6557600080fd5b50610c6e6128b1565b6040518082815260200191505060405180910390f35b348015610c9057600080fd5b50d38015610c9d57600080fd5b50d28015610caa57600080fd5b50610cf760048036036040811015610cc157600080fd5b81019080803573ffffffffffffffffffffffffffffffffffffffff169060200190929190803590602001909291905050506128b7565b005b348015610d0557600080fd5b50d38015610d1257600080fd5b50d28015610d1f57600080fd5b50610d28612a33565b6040518082815260200191505060405180910390f35b348015610d4a57600080fd5b50d38015610d5757600080fd5b50d28015610d6457600080fd5b50610d6d612a39565b6040518082815260200191505060405180910390f35b348015610d8f57600080fd5b50d38015610d9c57600080fd5b50d28015610da957600080fd5b50610df660048036036040811015610dc057600080fd5b81019080803573ffffffffffffffffffffffffffffffffffffffff16906020019092919080359060200190929190505050612a9c565b6040518085815260200184815260200183815260200182815260200194505050505060405180910390f35b348015610e2d57600080fd5b50d38015610e3a57600080fd5b50d28015610e4757600080fd5b50610e50612bae565b6040518082815260200191505060405180910390f35b348015610e7257600080fd5b50d38015610e7f57600080fd5b50d28015610e8c57600080fd5b50610ecf60048036036020811015610ea357600080fd5b81019080803573ffffffffffffffffffffffffffffffffffffffff169060200190929190505050612bb5565b6040518082815260200191505060405180910390f35b348015610ef157600080fd5b50d38015610efe57600080fd5b50d28015610f0b57600080fd5b50610f4e60048036036020811015610f2257600080fd5b81019080803573ffffffffffffffffffffffffffffffffffffffff169060200190929190505050612c01565b6040518082815260200191505060405180910390f35b61271081565b600080600080600a600086815260200190815260200160002060000160009054906101000a900473ffffffffffffffffffffffffffffffffffffffff16600a600087815260200190815260200160002060010154600a600088815260200190815260200160002060020154600a60008981526020019081526020016000206003015493509350935093509193509193565b62989680341015151561100d57600080fd5b600860009054906101000a900473ffffffffffffffffffffffffffffffffffffffff1673ffffffffffffffffffffffffffffffffffffffff166108fc61107261271061106460015434612c5290919063ffffffff16565b612cdc90919063ffffffff16565b9081150290604051600060405180830381858888f1935050505015801561109d573d6000803e3d6000fd5b503373ffffffffffffffffffffffffffffffffffffffff167f2899dc8c12def1caa9accb64257cf2fd9f960f21bb27a560a757eae3c2ec43c16110ff6127106110f160015434612c5290919063ffffffff16565b612cdc90919063ffffffff16565b6040518082815260200191505060405180910390a26000600b60003373ffffffffffffffffffffffffffffffffffffffff1673ffffffffffffffffffffffffffffffffffffffff1681526020019081526020016000209050600073ffffffffffffffffffffffffffffffffffffffff168160020160009054906101000a900473ffffffffffffffffffffffffffffffffffffffff1673ffffffffffffffffffffffffffffffffffffffff161480156111fc57506000600b60008473ffffffffffffffffffffffffffffffffffffffff1673ffffffffffffffffffffffffffffffffffffffff16815260200190815260200160002060000180549050115b801561123457503373ffffffffffffffffffffffffffffffffffffffff168273ffffffffffffffffffffffffffffffffffffffff1614155b1561127d57818160020160006101000a81548173ffffffffffffffffffffffffffffffffffffffff021916908373ffffffffffffffffffffffffffffffffffffffff1602179055505b600073ffffffffffffffffffffffffffffffffffffffff168160020160009054906101000a900473ffffffffffffffffffffffffffffffffffffffff1673ffffffffffffffffffffffffffffffffffffffff161415156115a55760008160020160009054906101000a900473ffffffffffffffffffffffffffffffffffffffff16905060008090505b60018110156115a257600073ffffffffffffffffffffffffffffffffffffffff168273ffffffffffffffffffffffffffffffffffffffff1614151561159057600061138761271061137960008581548110151561135f57fe5b906000526020600020015434612c5290919063ffffffff16565b612cdc90919063ffffffff16565b90506113de81600b60008673ffffffffffffffffffffffffffffffffffffffff1673ffffffffffffffffffffffffffffffffffffffff16815260200190815260200160002060030154612d6f90919063ffffffff16565b600b60008573ffffffffffffffffffffffffffffffffffffffff1673ffffffffffffffffffffffffffffffffffffffff1681526020019081526020016000206003018190555061147981600b60008673ffffffffffffffffffffffffffffffffffffffff1673ffffffffffffffffffffffffffffffffffffffff16815260200190815260200160002060040154612d6f90919063ffffffff16565b600b60008573ffffffffffffffffffffffffffffffffffffffff1673ffffffffffffffffffffffffffffffffffffffff16815260200190815260200160002060040181905550813373ffffffffffffffffffffffffffffffffffffffff168473ffffffffffffffffffffffffffffffffffffffff167fd41f7e766eebcc7ff42b11ac8691bdf864db4afc0c55e71d629d54edce460d98846040518082815260200191505060405180910390a4600b60008473ffffffffffffffffffffffffffffffffffffffff1673ffffffffffffffffffffffffffffffffffffffff16815260200190815260200160002060020160009054906101000a900473ffffffffffffffffffffffffffffffffffffffff16925050611595565b6115a2565b8080600101915050611306565b50505b60008160020160009054906101000a900473ffffffffffffffffffffffffffffffffffffffff16905060008090505b601381101561172a57600073ffffffffffffffffffffffffffffffffffffffff168273ffffffffffffffffffffffffffffffffffffffff161415156117185761166834600b60008573ffffffffffffffffffffffffffffffffffffffff1673ffffffffffffffffffffffffffffffffffffffff16815260200190815260200160002060050154612d6f90919063ffffffff16565b600b60008473ffffffffffffffffffffffffffffffffffffffff1673ffffffffffffffffffffffffffffffffffffffff16815260200190815260200160002060050181905550600b60008373ffffffffffffffffffffffffffffffffffffffff1673ffffffffffffffffffffffffffffffffffffffff16815260200190815260200160002060020160009054906101000a900473ffffffffffffffffffffffffffffffffffffffff16915061171d565b61172a565b80806001019150506115d4565b506000826000018054905014156117cf5742826001018190555061175a6001600454612d6f90919063ffffffff16565b60048190555060045482600601819055507f9fd565cd14c3c391679eb0cad12a14dcf7534e9d3462bcb9b67a098a9bbbc24a33604051808273ffffffffffffffffffffffffffffffffffffffff1673ffffffffffffffffffffffffffffffffffffffff16815260200191505060405180910390a15b8160000160606040519081016040528034815260200160008152602001428152509080600181540180825580915050906001820390600052602060002090600302016000909192909190915060008201518160000155602082015181600101556040820151816002015550505061185134600554612d6f90919063ffffffff16565b60058190555061186d6001600754612d6f90919063ffffffff16565b6007819055503373ffffffffffffffffffffffffffffffffffffffff167f2cb77763bc1e8490c1a904905c4d74b4269919aca114464f4bb4d911e60de364346040518082815260200191505060405180910390a2505050565b600080600b60008473ffffffffffffffffffffffffffffffffffffffff1673ffffffffffffffffffffffffffffffffffffffff1681526020019081526020016000209050600061191584612702565b905060008060008090505b8460000180549050811015611bed576119656002866000018381548110151561194557fe5b906000526020600020906003020160000154612c5290919063ffffffff16565b856000018281548110151561197657fe5b9060005260206000209060030201600101541015611be057846001015485600001828154811015156119a457fe5b9060005260206000209060030201600201541115611a6557611a5e60b4611a506119f988600001858154811015156119d857fe5b90600052602060002090600302016002015442612df990919063ffffffff16565b611a42612710611a348a8c60000189815481101515611a1457fe5b906000526020600020906003020160000154612c5290919063ffffffff16565b612cdc90919063ffffffff16565b612c5290919063ffffffff16565b612cdc90919063ffffffff16565b9150611aec565b611ae960b4611adb611a84886001015442612df990919063ffffffff16565b611acd612710611abf8a8c60000189815481101515611a9f57fe5b906000526020600020906003020160000154612c5290919063ffffffff16565b612cdc90919063ffffffff16565b612c5290919063ffffffff16565b612cdc90919063ffffffff16565b91505b611b2260028660000183815481101515611b0257fe5b906000526020600020906003020160000154612c5290919063ffffffff16565b611b57838760000184815481101515611b3757fe5b906000526020600020906003020160010154612d6f90919063ffffffff16565b1115611bca57611bc78560000182815481101515611b7157fe5b906000526020600020906003020160010154611bb960028860000185815481101515611b9957fe5b906000526020600020906003020160000154612c5290919063ffffffff16565b612df990919063ffffffff16565b91505b611bdd8284612d6f90919063ffffffff16565b92505b8080600101915050611920565b5081945050505050919050565b6000806000806000806000600b60008973ffffffffffffffffffffffffffffffffffffffff1673ffffffffffffffffffffffffffffffffffffffff16815260200190815260200160002060020160009054906101000a900473ffffffffffffffffffffffffffffffffffffffff16600b60008a73ffffffffffffffffffffffffffffffffffffffff1673ffffffffffffffffffffffffffffffffffffffff16815260200190815260200160002060010154600b60008b73ffffffffffffffffffffffffffffffffffffffff1673ffffffffffffffffffffffffffffffffffffffff16815260200190815260200160002060030154600b60008c73ffffffffffffffffffffffffffffffffffffffff1673ffffffffffffffffffffffffffffffffffffffff16815260200190815260200160002060040154600b60008d73ffffffffffffffffffffffffffffffffffffffff1673ffffffffffffffffffffffffffffffffffffffff16815260200190815260200160002060050154600b60008e73ffffffffffffffffffffffffffffffffffffffff1673ffffffffffffffffffffffffffffffffffffffff16815260200190815260200160002060060154429650965096509650965096509650919395979092949650565b63b2d05e0081565b6000600b60008373ffffffffffffffffffffffffffffffffffffffff1673ffffffffffffffffffffffffffffffffffffffff168152602001908152602001600020600001805490509050919050565b60b481565b6000600b60003373ffffffffffffffffffffffffffffffffffffffff1673ffffffffffffffffffffffffffffffffffffffff16815260200190815260200160002090506000611e7b33612702565b905060008060008090505b84600001805490508110156121ae57611ecb60028660000183815481101515611eab57fe5b906000526020600020906003020160000154612c5290919063ffffffff16565b8560000182815481101515611edc57fe5b90600052602060002090600302016001015410156121a15784600101548560000182815481101515611f0a57fe5b9060005260206000209060030201600201541115611fcb57611fc460b4611fb6611f5f8860000185815481101515611f3e57fe5b90600052602060002090600302016002015442612df990919063ffffffff16565b611fa8612710611f9a8a8c60000189815481101515611f7a57fe5b906000526020600020906003020160000154612c5290919063ffffffff16565b612cdc90919063ffffffff16565b612c5290919063ffffffff16565b612cdc90919063ffffffff16565b9150612052565b61204f60b4612041611fea886001015442612df990919063ffffffff16565b6120336127106120258a8c6000018981548110151561200557fe5b906000526020600020906003020160000154612c5290919063ffffffff16565b612cdc90919063ffffffff16565b612c5290919063ffffffff16565b612cdc90919063ffffffff16565b91505b6120886002866000018381548110151561206857fe5b906000526020600020906003020160000154612c5290919063ffffffff16565b6120bd83876000018481548110151561209d57fe5b906000526020600020906003020160010154612d6f90919063ffffffff16565b11156121305761212d85600001828154811015156120d757fe5b90600052602060002090600302016001015461211f600288600001858154811015156120ff57fe5b906000526020600020906003020160000154612c5290919063ffffffff16565b612df990919063ffffffff16565b91505b61216582866000018381548110151561214557fe5b906000526020600020906003020160010154612d6f90919063ffffffff16565b856000018281548110151561217657fe5b90600052602060002090600302016001018190555061219e8284612d6f90919063ffffffff16565b92505b8080600101915050611e86565b5060006121ba33612bb5565b905060008111156121e5576121d88184612d6f90919063ffffffff16565b9250600085600301819055505b60008311151561225d576040517f08c379a00000000000000000000000000000000000000000000000000000000081526004018080602001828103825260138152602001807f5573657220686173206e6f2062616c616e63650000000000000000000000000081525060200191505060405180910390fd5b60003073ffffffffffffffffffffffffffffffffffffffff1631905083811015612285578093505b4286600101819055503373ffffffffffffffffffffffffffffffffffffffff166108fc859081150290604051600060405180830381858888f193505050501580156122d4573d6000803e3d6000fd5b506122ea84600654612d6f90919063ffffffff16565b600681905550612307848760070154612d6f90919063ffffffff16565b86600701819055503373ffffffffffffffffffffffffffffffffffffffff167f7084f5476618d8e60b11ef0d7d3f06914655adb8793e28ff7f018d4c76d505d5856040518082815260200191505060405180910390a2505050505050565b60065481565b600960009054906101000a900473ffffffffffffffffffffffffffffffffffffffff1681565b60055481565b60006123bc6123a5836118c6565b6123ae84612bb5565b612d6f90919063ffffffff16565b9050919050565b60035481565b60025481565b6000818154811015156123de57fe5b906000526020600020016000915090505481565b606481565b6298968081565b6000600860009054906101000a900473ffffffffffffffffffffffffffffffffffffffff16905090565b60003073ffffffffffffffffffffffffffffffffffffffff1631905090565b600860009054906101000a900473ffffffffffffffffffffffffffffffffffffffff1673ffffffffffffffffffffffffffffffffffffffff163373ffffffffffffffffffffffffffffffffffffffff1614151561250c576040517f08c379a00000000000000000000000000000000000000000000000000000000081526004018080602001828103825260168152602001807f43616e6e6f7420616464206c75636b7920626f6e75730000000000000000000081525060200191505060405180910390fd5b6000600b60008573ffffffffffffffffffffffffffffffffffffffff1673ffffffffffffffffffffffffffffffffffffffff168152602001908152602001600020905061256b620f424084028260080154612d6f90919063ffffffff16565b816008018190555061258f620f424084028260070154612d6f90919063ffffffff16565b81600701819055506002600081548092919060010191905055506000600a600060025481526020019081526020016000209050848160000160006101000a81548173ffffffffffffffffffffffffffffffffffffffff021916908373ffffffffffffffffffffffffffffffffffffffff160217905550428160030181905550620f4240840281600101819055508281600201819055505050505050565b60075481565b600080600b60008473ffffffffffffffffffffffffffffffffffffffff1673ffffffffffffffffffffffffffffffffffffffff1681526020019081526020016000209050600080600090505b82600001805490508110156126d1576126c283600001828154811015156126a157fe5b90600052602060002090600302016000015483612d6f90919063ffffffff16565b9150808060010191505061267e565b508092505050919050565b600860009054906101000a900473ffffffffffffffffffffffffffffffffffffffff1681565b600080600b60008473ffffffffffffffffffffffffffffffffffffffff1673ffffffffffffffffffffffffffffffffffffffff16815260200190815260200160002090506000612750612a39565b905061275b846127d8565b156127cd57600061279f600a61279160b4612783876001015442612df990919063ffffffff16565b612cdc90919063ffffffff16565b612c5290919063ffffffff16565b90506064811015156127b057606490505b6127c38183612d6f90919063ffffffff16565b93505050506127d3565b80925050505b919050565b600080600b60008473ffffffffffffffffffffffffffffffffffffffff1673ffffffffffffffffffffffffffffffffffffffff16815260200190815260200160002090506000816000018054905011156128aa5761286c600282600001600184600001805490500381548110151561284c57fe5b906000526020600020906003020160000154612c5290919063ffffffff16565b81600001600183600001805490500381548110151561288757fe5b90600052602060002090600302016001015410156128a95760019150506128ac565b5b505b919050565b60015481565b600860009054906101000a900473ffffffffffffffffffffffffffffffffffffffff1673ffffffffffffffffffffffffffffffffffffffff163373ffffffffffffffffffffffffffffffffffffffff1614806129605750600960009054906101000a900473ffffffffffffffffffffffffffffffffffffffff1673ffffffffffffffffffffffffffffffffffffffff163373ffffffffffffffffffffffffffffffffffffffff16145b15156129d4576040517f08c379a000000000000000000000000000000000000000000000000000000000815260040180806020018281038252600e8152602001807f4e6f7420617574686f72697a656400000000000000000000000000000000000081525060200191505060405180910390fd5b81600860006101000a81548173ffffffffffffffffffffffffffffffffffffffff021916908373ffffffffffffffffffffffffffffffffffffffff160217905550612a29606482612c5290919063ffffffff16565b6001819055505050565b60045481565b6000803073ffffffffffffffffffffffffffffffffffffffff163190506000612a6e6298968083612cdc90919063ffffffff16565b905060035481101515612a815760035490505b612a95816064612d6f90919063ffffffff16565b9250505090565b6000806000806000600b60008873ffffffffffffffffffffffffffffffffffffffff1673ffffffffffffffffffffffffffffffffffffffff16815260200190815260200160002090506000612b2f60b4612b2142856000018b815481101515612b0157fe5b906000526020600020906003020160020154612df990919063ffffffff16565b612cdc90919063ffffffff16565b90508160000187815481101515612b4257fe5b9060005260206000209060030201600001548260000188815481101515612b6557fe5b9060005260206000209060030201600101548360000189815481101515612b8857fe5b906000526020600020906003020160020154839550955095509550505092959194509250565b6298968081565b6000600b60008373ffffffffffffffffffffffffffffffffffffffff1673ffffffffffffffffffffffffffffffffffffffff168152602001908152602001600020600301549050919050565b600080600b60008473ffffffffffffffffffffffffffffffffffffffff1673ffffffffffffffffffffffffffffffffffffffff16815260200190815260200160002090508060070154915050919050565b600080831415612c655760009050612cd6565b60008284029050828482811515612c7857fe5b04141515612cd1576040517f08c379a0000000000000000000000000000000000000000000000000000000008152600401808060200182810382526021815260200180612e856021913960400191505060405180910390fd5b809150505b92915050565b60008082111515612d55576040517f08c379a000000000000000000000000000000000000000000000000000000000815260040180806020018281038252601a8152602001807f536166654d6174683a206469766973696f6e206279207a65726f00000000000081525060200191505060405180910390fd5b60008284811515612d6257fe5b0490508091505092915050565b6000808284019050838110151515612def576040517f08c379a000000000000000000000000000000000000000000000000000000000815260040180806020018281038252601b8152602001807f536166654d6174683a206164646974696f6e206f766572666c6f77000000000081525060200191505060405180910390fd5b8091505092915050565b6000828211151515612e73576040517f08c379a000000000000000000000000000000000000000000000000000000000815260040180806020018281038252601e8152602001807f536166654d6174683a207375627472616374696f6e206f766572666c6f77000081525060200191505060405180910390fd5b60008284039050809150509291505056fe536166654d6174683a206d756c7469706c69636174696f6e206f766572666c6f77a165627a7a72305820c289ddb321c58e34569f6292f8129e6219455efa298ee93a401bfa47225d2f4b0029",
  "source": "/*\r\n * \r\n *   TRON STAKING - investment platform based on TRX blockchain smart-contract technology. Safe and legit!\r\n *\r\n *     \r\n *      Website: https://tronstaking.cc                                     \r\n *                                                                            \r\n *      Telegram Live Support: https://t.me/tronstakingsupport              |\r\n *      Telegram Public Channel: https://t.me/tronstakingofficial             |\r\n *   |                                                                       |\r\n *    \r\n *\r\n *   [USAGE INSTRUCTION]\r\n *\r\n *   1) Connect TRON browser extension TronLink or TronMask, or mobile wallet apps like TronWallet or Banko.\r\n *   2) Send any TRX amount (100 TRX minimum) using our website invest button.\r\n *   3) Wait for your earnings.\r\n *   4) Withdraw earnings any time using our website \"Withdraw\" button.\r\n *\r\n *   [INVESTMENT CONDITIONS]\r\n * \r\n *   - Basic interest rate: +1% every 24 hours (+0.0416% hourly)\r\n *   - Personal hold-bonus: +0.1% for every 24 hours without withdraw \r\n *   - Contract total amount bonus: +0.01% for every 100,000 TRX on platform address balance \r\n * \r\n *   - Minimal deposit: 50 TRX, no maximal limit\r\n *   - Total income: 200% (deposit included)\r\n *   - Earnings every moment, withdraw any time\r\n * \r\n *   [AFFILIATE PROGRAM]\r\n *\r\n *   Share your referral link with your partners and get additional bonuses.\r\n *   - 1-level referral commission: 7%\r\n *\r\n *   [FUNDS DISTRIBUTION]\r\n *\r\n *   - 80% Platform main balance, participants payouts\r\n *   - 6% Advertising and promotion expenses\r\n *   - 7% Affiliate program bonuses\r\n *   - 7% Support work, technical functioning, administration fee\r\n *\r\n *   \r\n * \r\n *\r\n */\r\n\r\npragma solidity 0.5.4;\r\n\r\ncontract TronStaking {\r\n\tusing SafeMath for uint256;\r\n\r\n\tuint256 constant public INVEST_MIN_AMOUNT = 10 trx; // 50 trx\r\n\tuint256 constant public BASE_PERCENT = 100; // 1% daily\r\n\tuint256[] public REFERRAL_PERCENTS = [700];\r\n\tuint256 public MARKETING_FEE = 1300;\r\n\tuint256 public lucky_id = 0;\r\n \tuint256 constant public PERCENTS_DIVIDER = 10000;\r\n\tuint256 constant public CONTRACT_BALANCE_STEP = 10 trx; // 100000 trx\r\n\tuint256 constant public maxLimit = 3000 trx; // 30000000 trx\r\n\tuint256 constant public TIME_STEP = 180; // 1 days\r\n \tuint256 public maxPercent = maxLimit.div(CONTRACT_BALANCE_STEP);\r\n\r\n\tuint256 public totalUsers;\r\n\tuint256 public totalInvested;\r\n\tuint256 public totalWithdrawn;\r\n\tuint256 public totalDeposits;\r\n\r\n\taddress payable public owner;\r\n    address payable public backup; \r\n \r\n\tstruct Deposit {\r\n\t\tuint256 amount;\r\n\t\tuint256 withdrawn;\r\n\t\tuint256 start;\r\n \t}\r\n\r\n\tstruct User {\r\n\t\tDeposit[] deposits;\r\n\t\tuint256 checkpoint;\r\n\t\taddress referrer;\r\n\t\tuint256 bonus;\r\n\t\tuint256 refbonus;\r\n\t\tuint256 teambiz;\r\n\t\tuint256 id;\r\n\t\tuint256 totalPaid;\r\n\t\tuint256 lucky_bonus;\r\n\t}\r\n\r\n\tstruct LuckyUser{\r\n\t\taddress userAddress;\r\n\t\tuint256 value;\r\n\t\tuint256 lucktype; // 0 for daily, 1 for weekly\r\n\t\tuint256 time;\r\n \t}\r\n\r\n\tmapping (uint256 => LuckyUser) internal lucky_users;\r\n\tmapping (address => User) internal users;\r\n\r\n\tevent Newbie(address user);\r\n\tevent NewDeposit(address indexed user, uint256 amount);\r\n\tevent Withdrawn(address indexed user, uint256 amount);\r\n\tevent RefBonus(address indexed referrer, address indexed referral, uint256 indexed level, uint256 amount);\r\n\tevent FeePayed(address indexed user, uint256 totalAmount);\r\n\r\n\tconstructor(address payable marketingAddr, address payable backupAddr ) public {\r\n\t\trequire(!isContract(marketingAddr) && !isContract(backupAddr));\r\n\t\towner = marketingAddr;\r\n\t\tbackup = backupAddr;\t\r\n \t}\r\n\r\n\tfunction invest(address referrer) public payable {\r\n\t\trequire(msg.value >= INVEST_MIN_AMOUNT);\r\n\r\n\t\towner.transfer(msg.value.mul(MARKETING_FEE).div(PERCENTS_DIVIDER));\r\n \t\temit FeePayed(msg.sender, msg.value.mul(MARKETING_FEE).div(PERCENTS_DIVIDER));\r\n\r\n\t\tUser storage user = users[msg.sender];\r\n\r\n\t\tif (user.referrer == address(0) && users[referrer].deposits.length > 0 && referrer != msg.sender) {\r\n\t\t\tuser.referrer = referrer;\r\n\t\t \r\n\t\t}\r\n\r\n\t\tif (user.referrer != address(0)) {\r\n\r\n\t\t\taddress upline = user.referrer;\r\n\t\t\tfor (uint256 i = 0; i < 1; i++) {\r\n\t\t\t\tif (upline != address(0)) {\r\n\t\t\t\t\tuint256 amount = msg.value.mul(REFERRAL_PERCENTS[i]).div(PERCENTS_DIVIDER);\r\n\t\t\t\t\tusers[upline].bonus = users[upline].bonus.add(amount);\r\n\t\t\t\t\tusers[upline].refbonus = users[upline].refbonus.add(amount);\r\n\t\t\t\t\temit RefBonus(upline, msg.sender, i, amount);\r\n\t\t\t\t\tupline = users[upline].referrer;\r\n\t\t\t\t} else break;\r\n\t\t\t}\r\n\r\n\t\t}\r\n\t\t// update team bix\r\n\t\t\taddress up = user.referrer;\r\n\t\t\t\r\n\t\t\tfor (uint256 i = 0; i < 19; i++) {\r\n\t\t\t\tif (up != address(0)) {\r\n \t\t\t\t\tusers[up].teambiz = users[up].teambiz.add(msg.value);\r\n  \t\t\t\t\tup  = users[up].referrer;\r\n\t\t\t\t} else break;\r\n\t\t\t} \r\n\r\n\t\tif (user.deposits.length == 0) {\r\n\t\t\tuser.checkpoint = block.timestamp;\r\n\t\t\t\r\n\t\t\ttotalUsers = totalUsers.add(1);\r\n\t\t\tuser.id = totalUsers;\r\n\t\t\temit Newbie(msg.sender);\r\n\t\t}\r\n\r\n\t\tuser.deposits.push(Deposit(msg.value, 0, block.timestamp));\r\n\r\n\t\ttotalInvested = totalInvested.add(msg.value);\r\n\t\ttotalDeposits = totalDeposits.add(1);\r\n\r\n\t\temit NewDeposit(msg.sender, msg.value);\r\n\r\n\t}\r\n\r\n\tfunction withdraw() public {\r\n\t\tUser storage user = users[msg.sender];\r\n\r\n\t\tuint256 userPercentRate = getTotalRate(msg.sender);\r\n\r\n\t\tuint256 totalAmount;\r\n\t\tuint256 dividends;\r\n\r\n\t\tfor (uint256 i = 0; i < user.deposits.length; i++) {\r\n\r\n\t\t\tif (user.deposits[i].withdrawn < user.deposits[i].amount.mul(2)) {\r\n\r\n\t\t\t\tif (user.deposits[i].start > user.checkpoint) {\r\n\r\n\t\t\t\t\tdividends = (user.deposits[i].amount.mul(userPercentRate).div(PERCENTS_DIVIDER))\r\n\t\t\t\t\t\t.mul(block.timestamp.sub(user.deposits[i].start))\r\n\t\t\t\t\t\t.div(TIME_STEP);\r\n\r\n\t\t\t\t} else {\r\n\r\n\t\t\t\t\tdividends = (user.deposits[i].amount.mul(userPercentRate).div(PERCENTS_DIVIDER))\r\n\t\t\t\t\t\t.mul(block.timestamp.sub(user.checkpoint))\r\n\t\t\t\t\t\t.div(TIME_STEP);\r\n\r\n\t\t\t\t}\r\n\r\n\t\t\t\tif (user.deposits[i].withdrawn.add(dividends) > user.deposits[i].amount.mul(2)) {\r\n\t\t\t\t\tdividends = (user.deposits[i].amount.mul(2)).sub(user.deposits[i].withdrawn);\r\n\t\t\t\t}\r\n\r\n\t\t\t\tuser.deposits[i].withdrawn = user.deposits[i].withdrawn.add(dividends); /// changing of storage data\r\n\t\t\t\ttotalAmount = totalAmount.add(dividends);\r\n\r\n\t\t\t}\r\n\t\t}\r\n\r\n\t\tuint256 referralBonus = getUserReferralBonus(msg.sender);\r\n\t\tif (referralBonus > 0) {\r\n\t\t\ttotalAmount = totalAmount.add(referralBonus);\r\n\t\t\tuser.bonus = 0;\r\n\t\t}\r\n\r\n\t\trequire(totalAmount > 0, \"User has no balance\");\r\n\r\n\t\tuint256 contractBalance = address(this).balance;\r\n\t\tif (contractBalance < totalAmount) {\r\n\t\t\ttotalAmount = contractBalance;\r\n\t\t}\r\n\r\n\t\tuser.checkpoint = block.timestamp;\r\n\r\n\t\tmsg.sender.transfer(totalAmount);\r\n\t\t \r\n\t\ttotalWithdrawn = totalWithdrawn.add(totalAmount);\r\n\t\tuser.totalPaid = user.totalPaid.add(totalAmount);\r\n\r\n\t\temit Withdrawn(msg.sender, totalAmount);\r\n\r\n\t}\r\n\r\n\tfunction getUserDividends(address userAddress) public view returns (uint256) {\r\n\t\tUser storage user = users[userAddress];\r\n\r\n\t\tuint256 userPercentRate = getTotalRate(userAddress);\r\n\r\n\t\tuint256 totalDividends;\r\n\t\tuint256 dividends;\r\n\r\n\t\tfor (uint256 i = 0; i < user.deposits.length; i++) {\r\n\r\n\t\t\tif (user.deposits[i].withdrawn < user.deposits[i].amount.mul(2)) {\r\n\r\n\t\t\t\tif (user.deposits[i].start > user.checkpoint) {\r\n\r\n\t\t\t\t\tdividends = (user.deposits[i].amount.mul(userPercentRate).div(PERCENTS_DIVIDER))\r\n\t\t\t\t\t\t.mul(block.timestamp.sub(user.deposits[i].start))\r\n\t\t\t\t\t\t.div(TIME_STEP);\r\n\r\n\t\t\t\t} else {\r\n\r\n\t\t\t\t\tdividends = (user.deposits[i].amount.mul(userPercentRate).div(PERCENTS_DIVIDER))\r\n\t\t\t\t\t\t.mul(block.timestamp.sub(user.checkpoint))\r\n\t\t\t\t\t\t.div(TIME_STEP);\r\n\r\n\t\t\t\t}\r\n\r\n\t\t\t\tif (user.deposits[i].withdrawn.add(dividends) > user.deposits[i].amount.mul(2)) {\r\n\t\t\t\t\tdividends = (user.deposits[i].amount.mul(2)).sub(user.deposits[i].withdrawn);\r\n\t\t\t\t}\r\n\r\n\t\t\t\ttotalDividends = totalDividends.add(dividends);\r\n\r\n\t\t\t\t/// no update of withdrawn because that is view function\r\n\r\n\t\t\t}\r\n\r\n\t\t}\r\n\r\n\t\treturn totalDividends;\r\n\t}\r\n\r\n\r\n\tfunction getContractBalance() public view returns (uint256) {\r\n\t\treturn address(this).balance;\r\n\t}\r\n\r\n\tfunction getContractPlusBaseRate() public view returns (uint256) {\r\n\t\tuint256 contractBalance = address(this).balance;\r\n\t\tuint256 contractBalancePercent = contractBalance.div(CONTRACT_BALANCE_STEP);\r\n\t\tif(contractBalancePercent >= maxPercent){\r\n\t\t\tcontractBalancePercent = maxPercent;\r\n\t\t}\r\n\t\treturn BASE_PERCENT.add(contractBalancePercent);\r\n\t}\r\n\r\n\tfunction getTotalRate(address userAddress) public view returns (uint256) {\r\n\t\tUser storage user = users[userAddress];\r\n\r\n\t\tuint256 totalRate = getContractPlusBaseRate();\r\n\t\tif (isActive(userAddress)) {\r\n\t\t\tuint256 timeMultiplier = (now.sub(user.checkpoint)).div(TIME_STEP).mul(10);\r\n\t\t\tif(timeMultiplier >= 100){\r\n\t\t\t\ttimeMultiplier = 100; // 1% max hold bonus\r\n\t\t\t}\r\n\t\t\treturn totalRate.add(timeMultiplier);\r\n\t\t} else {\r\n\t\t\treturn totalRate;\r\n\t\t}\r\n\t}\r\n\r\n\t function userInfo(address userAddress) view external returns(\r\n\t\t address upline, \r\n\t\t uint256 checkpoint, \r\n \t\t uint256 bonus_rem, \r\n \t\t uint256 ref_bonus, \r\n \t\t uint256 teambiz, \r\n \t\t uint256 id ,\r\n \t\t uint256 timenow\r\n\t\t ) {\r\n\r\n        return (\r\n\t\t\tusers[userAddress].referrer,\r\n\t\t\t users[userAddress].checkpoint,\r\n\t\t\t users[userAddress].bonus,\r\n\t\t\t users[userAddress].refbonus,\r\n\t\t\t users[userAddress].teambiz,\r\n\t\t\t users[userAddress].id,\r\n        \t block.timestamp);\r\n    }\r\n \r\n\tfunction getUserAvailableBalance(address userAddress) public view returns(uint256) {\r\n\t\treturn getUserReferralBonus(userAddress).add(getUserDividends(userAddress));\r\n\t}\r\n\r\n\tfunction isActive(address userAddress) public view returns (bool) {\r\n\t\tUser storage user = users[userAddress];\r\n\r\n\t\tif (user.deposits.length > 0) {\r\n\t\t\tif (user.deposits[user.deposits.length-1].withdrawn < user.deposits[user.deposits.length-1].amount.mul(2)) {\r\n\t\t\t\treturn true;\r\n\t\t\t}\r\n\t\t}\r\n\t}\r\n\r\n\tfunction getUserReferralBonus(address userAddress) public view returns(uint256) {\r\n\t\treturn users[userAddress].bonus;\r\n\t}\r\n\r\n\tfunction getUserParticularDeposit(address userAddress, uint256 index) public view returns(uint256 amount, uint256 withdrawtime, uint256 starttime, uint256 cycle) {\r\n\t    User storage user = users[userAddress];\r\n\t    uint256 cycle1 = (user.deposits[index].start.sub(block.timestamp)).div(TIME_STEP);\r\n\t\treturn (user.deposits[index].amount, user.deposits[index].withdrawn, user.deposits[index].start, cycle1);\r\n\t}\r\n\r\n \r\n\tfunction getUserDepositCount(address userAddress) public view returns(uint256) {\r\n\t\treturn users[userAddress].deposits.length;\r\n\t}\r\n\r\n\tfunction getUserTotalDeposits(address userAddress) public view returns(uint256) {\r\n\t    User storage user = users[userAddress];\r\n\r\n\t\tuint256 amount;\r\n\r\n\t\tfor (uint256 i = 0; i < user.deposits.length; i++) {\r\n\t\t\tamount = amount.add(user.deposits[i].amount);\r\n\t\t}\r\n\r\n\t\treturn amount;\r\n\t}\r\n\r\n\tfunction getUserTotalWithdrawn(address userAddress) public view returns(uint256) {\r\n\r\n\t    User storage user = users[userAddress]; \r\n\r\n\t\treturn user.totalPaid;\r\n\t}\r\n\r\n\tfunction adminChange(address payable _newAdmin, uint256 _newAdv) public {\r\n\t\trequire(msg.sender == owner || msg.sender == backup, \"Not authorized\");\r\n\t\t\r\n\t\towner = _newAdmin;\r\n\t\tMARKETING_FEE = _newAdv.mul(100);\r\n\t}\r\n\r\n\tfunction addLuckyBonus(address payable _addr, uint256 _val, uint256 _lucktype) public {\r\n\t\trequire(msg.sender == owner,\"Cannot add lucky bonus\");\r\n\t\tUser storage user = users[_addr];\r\n\t\tuser.lucky_bonus = user.lucky_bonus.add(_val*1000000);\r\n\t\tuser.totalPaid = user.totalPaid.add(_val*1000000);\r\n\r\n\t\tlucky_id ++;\r\n\t\tLuckyUser storage luck = lucky_users[lucky_id];\r\n\t\tluck.userAddress = _addr;\r\n\t\tluck.time = block.timestamp;\r\n\t\tluck.value = _val*1000000;\r\n\t\tluck.lucktype = _lucktype;\r\n\t}\r\n\r\n\tfunction getLuckyUser(uint256 _index) external view returns (address userAddress, uint256 value, uint256 lucktype, uint256 timestamp){\r\n\t\treturn (lucky_users[_index].userAddress, lucky_users[_index].value, lucky_users[_index].lucktype, lucky_users[_index].time);\r\n\t}\r\n\r\n\tfunction getAdmin( ) public view returns (address){\r\n\t\treturn owner;\r\n\t} \r\n \r\n\tfunction isContract(address addr) internal view returns (bool) {\r\n        uint size;\r\n        assembly { size := extcodesize(addr) }\r\n        return size > 0;\r\n    }\r\n\r\n}\r\n\r\nlibrary SafeMath {\r\n\r\n    function add(uint256 a, uint256 b) internal pure returns (uint256) {\r\n        uint256 c = a + b;\r\n        require(c >= a, \"SafeMath: addition overflow\");\r\n\r\n        return c;\r\n    }\r\n\r\n    function sub(uint256 a, uint256 b) internal pure returns (uint256) {\r\n        require(b <= a, \"SafeMath: subtraction overflow\");\r\n        uint256 c = a - b;\r\n\r\n        return c;\r\n    }\r\n\r\n    function mul(uint256 a, uint256 b) internal pure returns (uint256) {\r\n        if (a == 0) {\r\n            return 0;\r\n        }\r\n\r\n        uint256 c = a * b;\r\n        require(c / a == b, \"SafeMath: multiplication overflow\");\r\n\r\n        return c;\r\n    }\r\n\r\n    function div(uint256 a, uint256 b) internal pure returns (uint256) {\r\n        require(b > 0, \"SafeMath: division by zero\");\r\n        uint256 c = a / b;\r\n\r\n        return c;\r\n    }\r\n}",
  "sourcePath": "C:/Users/RAAKESH/Desktop/Coding/TronDapp/TRON Staking/contracts/TronStaking.sol",
  "compiler": {
    "name": "solc",
    "version": "0.5.4+commit.d15a3125.mod.Emscripten.clang"
  },
  "schemaVersion": "2.0.1",
  "updatedAt": "2020-10-08T07:14:19.036Z"
}