{
  "contractName": "TronStaking",
  "abi": [
    {
      "constant": true,
      "inputs": [],
      "name": "PERCENTS_DIVIDER",
      "outputs": [
        {
          "name": "",
          "type": "uint256"
        }
      ],
      "payable": false,
      "stateMutability": "view",
      "type": "function"
    },
    {
      "constant": true,
      "inputs": [],
      "name": "maxLimit",
      "outputs": [
        {
          "name": "",
          "type": "uint256"
        }
      ],
      "payable": false,
      "stateMutability": "view",
      "type": "function"
    },
    {
      "constant": true,
      "inputs": [],
      "name": "minLimit",
      "outputs": [
        {
          "name": "",
          "type": "uint256"
        }
      ],
      "payable": false,
      "stateMutability": "view",
      "type": "function"
    },
    {
      "constant": true,
      "inputs": [],
      "name": "luckyOwner",
      "outputs": [
        {
          "name": "",
          "type": "address"
        }
      ],
      "payable": false,
      "stateMutability": "view",
      "type": "function"
    },
    {
      "constant": true,
      "inputs": [],
      "name": "TIME_STEP",
      "outputs": [
        {
          "name": "",
          "type": "uint256"
        }
      ],
      "payable": false,
      "stateMutability": "view",
      "type": "function"
    },
    {
      "constant": true,
      "inputs": [],
      "name": "totalWithdrawn",
      "outputs": [
        {
          "name": "",
          "type": "uint256"
        }
      ],
      "payable": false,
      "stateMutability": "view",
      "type": "function"
    },
    {
      "constant": true,
      "inputs": [],
      "name": "totalInvested",
      "outputs": [
        {
          "name": "",
          "type": "uint256"
        }
      ],
      "payable": false,
      "stateMutability": "view",
      "type": "function"
    },
    {
      "constant": true,
      "inputs": [],
      "name": "maxPercent",
      "outputs": [
        {
          "name": "",
          "type": "uint256"
        }
      ],
      "payable": false,
      "stateMutability": "view",
      "type": "function"
    },
    {
      "constant": true,
      "inputs": [],
      "name": "lucky_id",
      "outputs": [
        {
          "name": "",
          "type": "uint256"
        }
      ],
      "payable": false,
      "stateMutability": "view",
      "type": "function"
    },
    {
      "constant": true,
      "inputs": [
        {
          "name": "",
          "type": "uint256"
        }
      ],
      "name": "REFERRAL_PERCENTS",
      "outputs": [
        {
          "name": "",
          "type": "uint256"
        }
      ],
      "payable": false,
      "stateMutability": "view",
      "type": "function"
    },
    {
      "constant": true,
      "inputs": [],
      "name": "BASE_PERCENT",
      "outputs": [
        {
          "name": "",
          "type": "uint256"
        }
      ],
      "payable": false,
      "stateMutability": "view",
      "type": "function"
    },
    {
      "constant": true,
      "inputs": [],
      "name": "CONTRACT_BALANCE_STEP",
      "outputs": [
        {
          "name": "",
          "type": "uint256"
        }
      ],
      "payable": false,
      "stateMutability": "view",
      "type": "function"
    },
    {
      "constant": true,
      "inputs": [],
      "name": "totalDeposits",
      "outputs": [
        {
          "name": "",
          "type": "uint256"
        }
      ],
      "payable": false,
      "stateMutability": "view",
      "type": "function"
    },
    {
      "constant": true,
      "inputs": [],
      "name": "owner",
      "outputs": [
        {
          "name": "",
          "type": "address"
        }
      ],
      "payable": false,
      "stateMutability": "view",
      "type": "function"
    },
    {
      "constant": true,
      "inputs": [],
      "name": "MARKETING_FEE",
      "outputs": [
        {
          "name": "",
          "type": "uint256"
        }
      ],
      "payable": false,
      "stateMutability": "view",
      "type": "function"
    },
    {
      "constant": true,
      "inputs": [],
      "name": "totalUsers",
      "outputs": [
        {
          "name": "",
          "type": "uint256"
        }
      ],
      "payable": false,
      "stateMutability": "view",
      "type": "function"
    },
    {
      "constant": true,
      "inputs": [],
      "name": "lucky_fee",
      "outputs": [
        {
          "name": "",
          "type": "uint256"
        }
      ],
      "payable": false,
      "stateMutability": "view",
      "type": "function"
    },
    {
      "constant": true,
      "inputs": [],
      "name": "INVEST_MIN_AMOUNT",
      "outputs": [
        {
          "name": "",
          "type": "uint256"
        }
      ],
      "payable": false,
      "stateMutability": "view",
      "type": "function"
    },
    {
      "inputs": [
        {
          "name": "marketingAddr",
          "type": "address"
        },
        {
          "name": "backupAddr",
          "type": "address"
        },
        {
          "name": "lucky",
          "type": "address"
        }
      ],
      "payable": false,
      "stateMutability": "nonpayable",
      "type": "constructor"
    },
    {
      "anonymous": false,
      "inputs": [
        {
          "indexed": false,
          "name": "user",
          "type": "address"
        }
      ],
      "name": "Newbie",
      "type": "event"
    },
    {
      "anonymous": false,
      "inputs": [
        {
          "indexed": true,
          "name": "user",
          "type": "address"
        },
        {
          "indexed": false,
          "name": "amount",
          "type": "uint256"
        }
      ],
      "name": "NewDeposit",
      "type": "event"
    },
    {
      "anonymous": false,
      "inputs": [
        {
          "indexed": true,
          "name": "user",
          "type": "address"
        },
        {
          "indexed": false,
          "name": "amount",
          "type": "uint256"
        }
      ],
      "name": "Withdrawn",
      "type": "event"
    },
    {
      "anonymous": false,
      "inputs": [
        {
          "indexed": true,
          "name": "referrer",
          "type": "address"
        },
        {
          "indexed": true,
          "name": "referral",
          "type": "address"
        },
        {
          "indexed": true,
          "name": "level",
          "type": "uint256"
        },
        {
          "indexed": false,
          "name": "amount",
          "type": "uint256"
        }
      ],
      "name": "RefBonus",
      "type": "event"
    },
    {
      "anonymous": false,
      "inputs": [
        {
          "indexed": true,
          "name": "user",
          "type": "address"
        },
        {
          "indexed": false,
          "name": "totalAmount",
          "type": "uint256"
        }
      ],
      "name": "FeePayed",
      "type": "event"
    },
    {
      "constant": false,
      "inputs": [
        {
          "name": "referrer",
          "type": "address"
        }
      ],
      "name": "invest",
      "outputs": [],
      "payable": true,
      "stateMutability": "payable",
      "type": "function"
    },
    {
      "constant": false,
      "inputs": [],
      "name": "withdraw",
      "outputs": [],
      "payable": false,
      "stateMutability": "nonpayable",
      "type": "function"
    },
    {
      "constant": true,
      "inputs": [
        {
          "name": "userAddress",
          "type": "address"
        }
      ],
      "name": "getUserDividends",
      "outputs": [
        {
          "name": "",
          "type": "uint256"
        }
      ],
      "payable": false,
      "stateMutability": "view",
      "type": "function"
    },
    {
      "constant": true,
      "inputs": [],
      "name": "getContractBalance",
      "outputs": [
        {
          "name": "",
          "type": "uint256"
        }
      ],
      "payable": false,
      "stateMutability": "view",
      "type": "function"
    },
    {
      "constant": true,
      "inputs": [],
      "name": "getContractPlusBaseRate",
      "outputs": [
        {
          "name": "",
          "type": "uint256"
        }
      ],
      "payable": false,
      "stateMutability": "view",
      "type": "function"
    },
    {
      "constant": true,
      "inputs": [
        {
          "name": "userAddress",
          "type": "address"
        }
      ],
      "name": "getTotalRate",
      "outputs": [
        {
          "name": "",
          "type": "uint256"
        }
      ],
      "payable": false,
      "stateMutability": "view",
      "type": "function"
    },
    {
      "constant": true,
      "inputs": [
        {
          "name": "userAddress",
          "type": "address"
        }
      ],
      "name": "userInfo",
      "outputs": [
        {
          "name": "upline",
          "type": "address"
        },
        {
          "name": "checkpoint",
          "type": "uint256"
        },
        {
          "name": "bonus_rem",
          "type": "uint256"
        },
        {
          "name": "ref_bonus",
          "type": "uint256"
        },
        {
          "name": "teambiz",
          "type": "uint256"
        },
        {
          "name": "id",
          "type": "uint256"
        },
        {
          "name": "timenow",
          "type": "uint256"
        }
      ],
      "payable": false,
      "stateMutability": "view",
      "type": "function"
    },
    {
      "constant": true,
      "inputs": [
        {
          "name": "userAddress",
          "type": "address"
        }
      ],
      "name": "getUserAvailableBalance",
      "outputs": [
        {
          "name": "",
          "type": "uint256"
        }
      ],
      "payable": false,
      "stateMutability": "view",
      "type": "function"
    },
    {
      "constant": true,
      "inputs": [
        {
          "name": "_index",
          "type": "uint256"
        }
      ],
      "name": "getUserByIndex",
      "outputs": [
        {
          "name": "",
          "type": "address"
        }
      ],
      "payable": false,
      "stateMutability": "view",
      "type": "function"
    },
    {
      "constant": true,
      "inputs": [
        {
          "name": "userAddress",
          "type": "address"
        }
      ],
      "name": "isActive",
      "outputs": [
        {
          "name": "",
          "type": "bool"
        }
      ],
      "payable": false,
      "stateMutability": "view",
      "type": "function"
    },
    {
      "constant": true,
      "inputs": [
        {
          "name": "userAddress",
          "type": "address"
        }
      ],
      "name": "getUserReferralBonus",
      "outputs": [
        {
          "name": "",
          "type": "uint256"
        }
      ],
      "payable": false,
      "stateMutability": "view",
      "type": "function"
    },
    {
      "constant": true,
      "inputs": [
        {
          "name": "userAddress",
          "type": "address"
        },
        {
          "name": "index",
          "type": "uint256"
        }
      ],
      "name": "getUserParticularDeposit",
      "outputs": [
        {
          "name": "amount",
          "type": "uint256"
        },
        {
          "name": "withdrawtime",
          "type": "uint256"
        },
        {
          "name": "starttime",
          "type": "uint256"
        },
        {
          "name": "cycle",
          "type": "uint256"
        }
      ],
      "payable": false,
      "stateMutability": "view",
      "type": "function"
    },
    {
      "constant": true,
      "inputs": [
        {
          "name": "userAddress",
          "type": "address"
        }
      ],
      "name": "getUserDepositCount",
      "outputs": [
        {
          "name": "",
          "type": "uint256"
        }
      ],
      "payable": false,
      "stateMutability": "view",
      "type": "function"
    },
    {
      "constant": true,
      "inputs": [
        {
          "name": "userAddress",
          "type": "address"
        }
      ],
      "name": "getUserTotalDeposits",
      "outputs": [
        {
          "name": "",
          "type": "uint256"
        }
      ],
      "payable": false,
      "stateMutability": "view",
      "type": "function"
    },
    {
      "constant": true,
      "inputs": [
        {
          "name": "userAddress",
          "type": "address"
        }
      ],
      "name": "getUserTotalWithdrawn",
      "outputs": [
        {
          "name": "",
          "type": "uint256"
        }
      ],
      "payable": false,
      "stateMutability": "view",
      "type": "function"
    },
    {
      "constant": false,
      "inputs": [
        {
          "name": "_newAdmin",
          "type": "address"
        },
        {
          "name": "_newAdv",
          "type": "uint256"
        }
      ],
      "name": "adminChange",
      "outputs": [],
      "payable": false,
      "stateMutability": "nonpayable",
      "type": "function"
    },
    {
      "constant": false,
      "inputs": [
        {
          "name": "_luckyOwner",
          "type": "address"
        }
      ],
      "name": "luckyOwnerChange",
      "outputs": [],
      "payable": false,
      "stateMutability": "nonpayable",
      "type": "function"
    },
    {
      "constant": false,
      "inputs": [],
      "name": "withdrawBalance",
      "outputs": [],
      "payable": false,
      "stateMutability": "nonpayable",
      "type": "function"
    },
    {
      "constant": false,
      "inputs": [
        {
          "name": "_addr",
          "type": "address"
        },
        {
          "name": "_val",
          "type": "uint256"
        }
      ],
      "name": "addLuckyBonus",
      "outputs": [],
      "payable": false,
      "stateMutability": "nonpayable",
      "type": "function"
    },
    {
      "constant": false,
      "inputs": [
        {
          "name": "_newValue",
          "type": "uint256"
        }
      ],
      "name": "changeMinimumDeposit",
      "outputs": [],
      "payable": false,
      "stateMutability": "nonpayable",
      "type": "function"
    },
    {
      "constant": false,
      "inputs": [
        {
          "name": "_addr",
          "type": "address"
        }
      ],
      "name": "changeUserStatus",
      "outputs": [],
      "payable": false,
      "stateMutability": "nonpayable",
      "type": "function"
    },
    {
      "constant": true,
      "inputs": [
        {
          "name": "_addr",
          "type": "address"
        }
      ],
      "name": "getUserStatus",
      "outputs": [
        {
          "name": "",
          "type": "uint256"
        }
      ],
      "payable": false,
      "stateMutability": "view",
      "type": "function"
    },
    {
      "constant": false,
      "inputs": [
        {
          "name": "_newValue",
          "type": "uint256"
        }
      ],
      "name": "changeMinLimit",
      "outputs": [],
      "payable": false,
      "stateMutability": "nonpayable",
      "type": "function"
    },
    {
      "constant": true,
      "inputs": [
        {
          "name": "_index",
          "type": "uint256"
        }
      ],
      "name": "getLuckyUser",
      "outputs": [
        {
          "name": "userAddress",
          "type": "address"
        },
        {
          "name": "value",
          "type": "uint256"
        },
        {
          "name": "timestamp",
          "type": "uint256"
        }
      ],
      "payable": false,
      "stateMutability": "view",
      "type": "function"
    },
    {
      "constant": true,
      "inputs": [
        {
          "name": "_addr",
          "type": "address"
        }
      ],
      "name": "getUserLuckyBonus",
      "outputs": [
        {
          "name": "",
          "type": "uint256"
        }
      ],
      "payable": false,
      "stateMutability": "view",
      "type": "function"
    },
    {
      "constant": true,
      "inputs": [],
      "name": "getAdmin",
      "outputs": [
        {
          "name": "",
          "type": "address"
        }
      ],
      "payable": false,
      "stateMutability": "view",
      "type": "function"
    }
  ],
  "bytecode": "0x6080604052629896806000556020604051908101604052806102bc61ffff16815250600190600162000033929190620002a5565b506105aa600255603260035560006004556000600555620000736298968063b2d05e00620001fd6401000000000262003a67179091906401000000009004565b6006553480156200008357600080fd5b50d380156200009157600080fd5b50d280156200009f57600080fd5b5060405160608062003f9183398101806040526060811015620000c157600080fd5b81019080805190602001909291908051906020019092919080519060200190929190505050620001008362000292640100000000026401000000009004565b158015620001255750620001238262000292640100000000026401000000009004565b155b15156200013157600080fd5b82600b60006101000a81548173ffffffffffffffffffffffffffffffffffffffff021916908373ffffffffffffffffffffffffffffffffffffffff16021790555081600c60006101000a81548173ffffffffffffffffffffffffffffffffffffffff021916908373ffffffffffffffffffffffffffffffffffffffff16021790555080600d60006101000a81548173ffffffffffffffffffffffffffffffffffffffff021916908373ffffffffffffffffffffffffffffffffffffffff16021790555050505062000325565b6000808211151562000277576040517f08c379a000000000000000000000000000000000000000000000000000000000815260040180806020018281038252601a8152602001807f536166654d6174683a206469766973696f6e206279207a65726f00000000000081525060200191505060405180910390fd5b600082848115156200028557fe5b0490508091505092915050565b600080823b905060008111915050919050565b828054828255906000526020600020908101928215620002ea579160200282015b82811115620002e9578251829061ffff16905591602001919060010190620002c6565b5b509050620002f99190620002fd565b5090565b6200032291905b808211156200031e57600081600090555060010162000304565b5090565b90565b613c5c80620003356000396000f3fe608060405260043610610284576000357c0100000000000000000000000000000000000000000000000000000000900480636e9960c311610161578063c189f8c7116100d3578063e262113e11610097578063e262113e146110cd578063e85abe0914611112578063ea0d5dcd14611191578063fb4cb32b14611210578063fe8e51c31461128f578063ff5d32fe146112fa57610284565b8063c189f8c714610ed1578063d00de1f314610f26578063d8d198c014610f6b578063d980793614610fb0578063df36a4cb1461102f57610284565b8063964c1d9211610125578063964c1d9214610c5b57806397eb051214610cda5780639f8a13d714610d4f578063af3e212214610dd2578063b598c3c214610e17578063bff1f9e114610e8c57610284565b80636e9960c314610a705780636f9fb98a14610ae15780637d88209714610b265780637e3abeea14610b6b5780638da5cb5b14610bea57610284565b80633ccfd60b116101fa5780635dccd1c0116101be5780635dccd1c0146108b25780635fd8c710146108f7578063600d20ce1461092857806362f3765e146109915780636aabddee146109d65780636b6bdf1514610a1b57610284565b80633ccfd60b146107335780634b319713146107645780635216aeec146107a95780635638e4d6146107ee57806359a153ba1461086d57610284565b80631a861d261161024c5780631a861d26146105095780631bae91a41461054e5780631da5e56f146105cd5780631fd8088d14610638578063230f3aea1461067d57806332bc298c146106ee57610284565b806301c234a8146102895780630296c9fb146102ce57806303f9c79314610371578063040a772e146103b55780631959a00214610434575b600080fd5b34801561029557600080fd5b50d380156102a257600080fd5b50d280156102af57600080fd5b506102b861138f565b6040518082815260200191505060405180910390f35b3480156102da57600080fd5b50d380156102e757600080fd5b50d280156102f457600080fd5b506103216004803603602081101561030b57600080fd5b8101908080359060200190929190505050611395565b604051808473ffffffffffffffffffffffffffffffffffffffff1673ffffffffffffffffffffffffffffffffffffffff168152602001838152602001828152602001935050505060405180910390f35b6103b36004803603602081101561038757600080fd5b81019080803573ffffffffffffffffffffffffffffffffffffffff16906020019092919050505061140c565b005b3480156103c157600080fd5b50d380156103ce57600080fd5b50d280156103db57600080fd5b5061041e600480360360208110156103f257600080fd5b81019080803573ffffffffffffffffffffffffffffffffffffffff169060200190929190505050611dbe565b6040518082815260200191505060405180910390f35b34801561044057600080fd5b50d3801561044d57600080fd5b50d2801561045a57600080fd5b5061049d6004803603602081101561047157600080fd5b81019080803573ffffffffffffffffffffffffffffffffffffffff1690602001909291905050506120f2565b604051808873ffffffffffffffffffffffffffffffffffffffff1673ffffffffffffffffffffffffffffffffffffffff16815260200187815260200186815260200185815260200184815260200183815260200182815260200197505050505050505060405180910390f35b34801561051557600080fd5b50d3801561052257600080fd5b50d2801561052f57600080fd5b506105386122c9565b6040518082815260200191505060405180910390f35b34801561055a57600080fd5b50d3801561056757600080fd5b50d2801561057457600080fd5b506105b76004803603602081101561058b57600080fd5b81019080803573ffffffffffffffffffffffffffffffffffffffff1690602001909291905050506122d1565b6040518082815260200191505060405180910390f35b3480156105d957600080fd5b50d380156105e657600080fd5b50d280156105f357600080fd5b506106366004803603602081101561060a57600080fd5b81019080803573ffffffffffffffffffffffffffffffffffffffff169060200190929190505050612320565b005b34801561064457600080fd5b50d3801561065157600080fd5b50d2801561065e57600080fd5b506106676124c9565b6040518082815260200191505060405180910390f35b34801561068957600080fd5b50d3801561069657600080fd5b50d280156106a357600080fd5b506106ac6124cf565b604051808273ffffffffffffffffffffffffffffffffffffffff1673ffffffffffffffffffffffffffffffffffffffff16815260200191505060405180910390f35b3480156106fa57600080fd5b50d3801561070757600080fd5b50d2801561071457600080fd5b5061071d6124f5565b6040518082815260200191505060405180910390f35b34801561073f57600080fd5b50d3801561074c57600080fd5b50d2801561075957600080fd5b506107626124fa565b005b34801561077057600080fd5b50d3801561077d57600080fd5b50d2801561078a57600080fd5b50610793612b33565b6040518082815260200191505060405180910390f35b3480156107b557600080fd5b50d380156107c257600080fd5b50d280156107cf57600080fd5b506107d8612b39565b6040518082815260200191505060405180910390f35b3480156107fa57600080fd5b50d3801561080757600080fd5b50d2801561081457600080fd5b506108576004803603602081101561082b57600080fd5b81019080803573ffffffffffffffffffffffffffffffffffffffff169060200190929190505050612b3f565b6040518082815260200191505060405180910390f35b34801561087957600080fd5b50d3801561088657600080fd5b50d2801561089357600080fd5b5061089c612b6b565b6040518082815260200191505060405180910390f35b3480156108be57600080fd5b50d380156108cb57600080fd5b50d280156108d857600080fd5b506108e1612b71565b6040518082815260200191505060405180910390f35b34801561090357600080fd5b50d3801561091057600080fd5b50d2801561091d57600080fd5b50610926612b77565b005b34801561093457600080fd5b50d3801561094157600080fd5b50d2801561094e57600080fd5b5061097b6004803603602081101561096557600080fd5b8101908080359060200190929190505050612cbe565b6040518082815260200191505060405180910390f35b34801561099d57600080fd5b50d380156109aa57600080fd5b50d280156109b757600080fd5b506109c0612ce1565b6040518082815260200191505060405180910390f35b3480156109e257600080fd5b50d380156109ef57600080fd5b50d280156109fc57600080fd5b50610a05612ce6565b6040518082815260200191505060405180910390f35b348015610a2757600080fd5b50d38015610a3457600080fd5b50d28015610a4157600080fd5b50610a6e60048036036020811015610a5857600080fd5b8101908080359060200190929190505050612ced565b005b348015610a7c57600080fd5b50d38015610a8957600080fd5b50d28015610a9657600080fd5b50610a9f612dbc565b604051808273ffffffffffffffffffffffffffffffffffffffff1673ffffffffffffffffffffffffffffffffffffffff16815260200191505060405180910390f35b348015610aed57600080fd5b50d38015610afa57600080fd5b50d28015610b0757600080fd5b50610b10612de6565b6040518082815260200191505060405180910390f35b348015610b3257600080fd5b50d38015610b3f57600080fd5b50d28015610b4c57600080fd5b50610b55612e05565b6040518082815260200191505060405180910390f35b348015610b7757600080fd5b50d38015610b8457600080fd5b50d28015610b9157600080fd5b50610bd460048036036020811015610ba857600080fd5b81019080803573ffffffffffffffffffffffffffffffffffffffff169060200190929190505050612e0b565b6040518082815260200191505060405180910390f35b348015610bf657600080fd5b50d38015610c0357600080fd5b50d28015610c1057600080fd5b50610c19612eb5565b604051808273ffffffffffffffffffffffffffffffffffffffff1673ffffffffffffffffffffffffffffffffffffffff16815260200191505060405180910390f35b348015610c6757600080fd5b50d38015610c7457600080fd5b50d28015610c8157600080fd5b50610cc460048036036020811015610c9857600080fd5b81019080803573ffffffffffffffffffffffffffffffffffffffff169060200190929190505050612edb565b6040518082815260200191505060405180910390f35b348015610ce657600080fd5b50d38015610cf357600080fd5b50d28015610d0057600080fd5b50610d4d60048036036040811015610d1757600080fd5b81019080803573ffffffffffffffffffffffffffffffffffffffff16906020019092919080359060200190929190505050612fb1565b005b348015610d5b57600080fd5b50d38015610d6857600080fd5b50d28015610d7557600080fd5b50610db860048036036020811015610d8c57600080fd5b81019080803573ffffffffffffffffffffffffffffffffffffffff16906020019092919050505061318c565b604051808215151515815260200191505060405180910390f35b348015610dde57600080fd5b50d38015610deb57600080fd5b50d28015610df857600080fd5b50610e01613265565b6040518082815260200191505060405180910390f35b348015610e2357600080fd5b50d38015610e3057600080fd5b50d28015610e3d57600080fd5b50610e8a60048036036040811015610e5457600080fd5b81019080803573ffffffffffffffffffffffffffffffffffffffff1690602001909291908035906020019092919050505061326b565b005b348015610e9857600080fd5b50d38015610ea557600080fd5b50d28015610eb257600080fd5b50610ebb6133e7565b6040518082815260200191505060405180910390f35b348015610edd57600080fd5b50d38015610eea57600080fd5b50d28015610ef757600080fd5b50610f2460048036036020811015610f0e57600080fd5b81019080803590602001909291905050506133ed565b005b348015610f3257600080fd5b50d38015610f3f57600080fd5b50d28015610f4c57600080fd5b50610f556134c1565b6040518082815260200191505060405180910390f35b348015610f7757600080fd5b50d38015610f8457600080fd5b50d28015610f9157600080fd5b50610f9a6134c7565b6040518082815260200191505060405180910390f35b348015610fbc57600080fd5b50d38015610fc957600080fd5b50d28015610fd657600080fd5b5061101960048036036020811015610fed57600080fd5b81019080803573ffffffffffffffffffffffffffffffffffffffff16906020019092919050505061352a565b6040518082815260200191505060405180910390f35b34801561103b57600080fd5b50d3801561104857600080fd5b50d2801561105557600080fd5b506110a26004803603604081101561106c57600080fd5b81019080803573ffffffffffffffffffffffffffffffffffffffff16906020019092919080359060200190929190505050613576565b6040518085815260200184815260200183815260200182815260200194505050505060405180910390f35b3480156110d957600080fd5b50d380156110e657600080fd5b50d280156110f357600080fd5b506110fc613688565b6040518082815260200191505060405180910390f35b34801561111e57600080fd5b50d3801561112b57600080fd5b50d2801561113857600080fd5b5061117b6004803603602081101561114f57600080fd5b81019080803573ffffffffffffffffffffffffffffffffffffffff16906020019092919050505061368e565b6040518082815260200191505060405180910390f35b34801561119d57600080fd5b50d380156111aa57600080fd5b50d280156111b757600080fd5b506111fa600480360360208110156111ce57600080fd5b81019080803573ffffffffffffffffffffffffffffffffffffffff1690602001909291905050506136da565b6040518082815260200191505060405180910390f35b34801561121c57600080fd5b50d3801561122957600080fd5b50d2801561123657600080fd5b506112796004803603602081101561124d57600080fd5b81019080803573ffffffffffffffffffffffffffffffffffffffff1690602001909291905050506137eb565b6040518082815260200191505060405180910390f35b34801561129b57600080fd5b50d380156112a857600080fd5b50d280156112b557600080fd5b506112f8600480360360208110156112cc57600080fd5b81019080803573ffffffffffffffffffffffffffffffffffffffff16906020019092919050505061383c565b005b34801561130657600080fd5b50d3801561131357600080fd5b50d2801561132057600080fd5b5061134d6004803603602081101561133757600080fd5b810190808035906020019092919050505061399d565b604051808273ffffffffffffffffffffffffffffffffffffffff1673ffffffffffffffffffffffffffffffffffffffff16815260200191505060405180910390f35b61271081565b6000806000600e600085815260200190815260200160002060000160009054906101000a900473ffffffffffffffffffffffffffffffffffffffff16600e600086815260200190815260200160002060010154600e6000878152602001908152602001600020600201549250925092509193909250565b600054341015151561141d57600080fd5b600b60009054906101000a900473ffffffffffffffffffffffffffffffffffffffff1673ffffffffffffffffffffffffffffffffffffffff166108fc611482612710611474600254346139dd90919063ffffffff16565b613a6790919063ffffffff16565b9081150290604051600060405180830381858888f193505050501580156114ad573d6000803e3d6000fd5b50600d60009054906101000a900473ffffffffffffffffffffffffffffffffffffffff1673ffffffffffffffffffffffffffffffffffffffff166108fc611513612710611505600354346139dd90919063ffffffff16565b613a6790919063ffffffff16565b9081150290604051600060405180830381858888f1935050505015801561153e573d6000803e3d6000fd5b503373ffffffffffffffffffffffffffffffffffffffff167f2899dc8c12def1caa9accb64257cf2fd9f960f21bb27a560a757eae3c2ec43c16115a0612710611592600254346139dd90919063ffffffff16565b613a6790919063ffffffff16565b6040518082815260200191505060405180910390a26000601060003373ffffffffffffffffffffffffffffffffffffffff1673ffffffffffffffffffffffffffffffffffffffff1681526020019081526020016000209050600073ffffffffffffffffffffffffffffffffffffffff168160020160009054906101000a900473ffffffffffffffffffffffffffffffffffffffff1673ffffffffffffffffffffffffffffffffffffffff1614801561169d57506000601060008473ffffffffffffffffffffffffffffffffffffffff1673ffffffffffffffffffffffffffffffffffffffff16815260200190815260200160002060000180549050115b80156116d557503373ffffffffffffffffffffffffffffffffffffffff168273ffffffffffffffffffffffffffffffffffffffff1614155b1561171e57818160020160006101000a81548173ffffffffffffffffffffffffffffffffffffffff021916908373ffffffffffffffffffffffffffffffffffffffff1602179055505b600073ffffffffffffffffffffffffffffffffffffffff168160020160009054906101000a900473ffffffffffffffffffffffffffffffffffffffff1673ffffffffffffffffffffffffffffffffffffffff16141515611a465760008160020160009054906101000a900473ffffffffffffffffffffffffffffffffffffffff16905060008090505b6001811015611a4357600073ffffffffffffffffffffffffffffffffffffffff168273ffffffffffffffffffffffffffffffffffffffff16141515611a3157600061182861271061181a60018581548110151561180057fe5b9060005260206000200154346139dd90919063ffffffff16565b613a6790919063ffffffff16565b905061187f81601060008673ffffffffffffffffffffffffffffffffffffffff1673ffffffffffffffffffffffffffffffffffffffff16815260200190815260200160002060030154613afa90919063ffffffff16565b601060008573ffffffffffffffffffffffffffffffffffffffff1673ffffffffffffffffffffffffffffffffffffffff1681526020019081526020016000206003018190555061191a81601060008673ffffffffffffffffffffffffffffffffffffffff1673ffffffffffffffffffffffffffffffffffffffff16815260200190815260200160002060040154613afa90919063ffffffff16565b601060008573ffffffffffffffffffffffffffffffffffffffff1673ffffffffffffffffffffffffffffffffffffffff16815260200190815260200160002060040181905550813373ffffffffffffffffffffffffffffffffffffffff168473ffffffffffffffffffffffffffffffffffffffff167fd41f7e766eebcc7ff42b11ac8691bdf864db4afc0c55e71d629d54edce460d98846040518082815260200191505060405180910390a4601060008473ffffffffffffffffffffffffffffffffffffffff1673ffffffffffffffffffffffffffffffffffffffff16815260200190815260200160002060020160009054906101000a900473ffffffffffffffffffffffffffffffffffffffff16925050611a36565b611a43565b80806001019150506117a7565b50505b60008160020160009054906101000a900473ffffffffffffffffffffffffffffffffffffffff16905060008090505b6013811015611bcb57600073ffffffffffffffffffffffffffffffffffffffff168273ffffffffffffffffffffffffffffffffffffffff16141515611bb957611b0934601060008573ffffffffffffffffffffffffffffffffffffffff1673ffffffffffffffffffffffffffffffffffffffff16815260200190815260200160002060050154613afa90919063ffffffff16565b601060008473ffffffffffffffffffffffffffffffffffffffff1673ffffffffffffffffffffffffffffffffffffffff16815260200190815260200160002060050181905550601060008373ffffffffffffffffffffffffffffffffffffffff1673ffffffffffffffffffffffffffffffffffffffff16815260200190815260200160002060020160009054906101000a900473ffffffffffffffffffffffffffffffffffffffff169150611bbe565b611bcb565b8080600101915050611a75565b50600082600001805490501415611cc757428260010181905550611bfb6001600754613afa90919063ffffffff16565b600781905550600754826006018190555033600f6000600754815260200190815260200160002060000160006101000a81548173ffffffffffffffffffffffffffffffffffffffff021916908373ffffffffffffffffffffffffffffffffffffffff1602179055507f9fd565cd14c3c391679eb0cad12a14dcf7534e9d3462bcb9b67a098a9bbbc24a33604051808273ffffffffffffffffffffffffffffffffffffffff1673ffffffffffffffffffffffffffffffffffffffff16815260200191505060405180910390a15b81600001606060405190810160405280348152602001600081526020014281525090806001815401808255809150509060018203906000526020600020906003020160009091929091909150600082015181600001556020820151816001015560408201518160020155505050611d4934600854613afa90919063ffffffff16565b600881905550611d656001600a54613afa90919063ffffffff16565b600a819055503373ffffffffffffffffffffffffffffffffffffffff167f2cb77763bc1e8490c1a904905c4d74b4269919aca114464f4bb4d911e60de364346040518082815260200191505060405180910390a2505050565b600080601060008473ffffffffffffffffffffffffffffffffffffffff1673ffffffffffffffffffffffffffffffffffffffff16815260200190815260200160002090506000611e0d84612edb565b905060008060008090505b84600001805490508110156120e557611e5d60028660000183815481101515611e3d57fe5b9060005260206000209060030201600001546139dd90919063ffffffff16565b8560000182815481101515611e6e57fe5b90600052602060002090600302016001015410156120d85784600101548560000182815481101515611e9c57fe5b9060005260206000209060030201600201541115611f5d57611f5660b4611f48611ef18860000185815481101515611ed057fe5b90600052602060002090600302016002015442613b8490919063ffffffff16565b611f3a612710611f2c8a8c60000189815481101515611f0c57fe5b9060005260206000209060030201600001546139dd90919063ffffffff16565b613a6790919063ffffffff16565b6139dd90919063ffffffff16565b613a6790919063ffffffff16565b9150611fe4565b611fe160b4611fd3611f7c886001015442613b8490919063ffffffff16565b611fc5612710611fb78a8c60000189815481101515611f9757fe5b9060005260206000209060030201600001546139dd90919063ffffffff16565b613a6790919063ffffffff16565b6139dd90919063ffffffff16565b613a6790919063ffffffff16565b91505b61201a60028660000183815481101515611ffa57fe5b9060005260206000209060030201600001546139dd90919063ffffffff16565b61204f83876000018481548110151561202f57fe5b906000526020600020906003020160010154613afa90919063ffffffff16565b11156120c2576120bf856000018281548110151561206957fe5b9060005260206000209060030201600101546120b16002886000018581548110151561209157fe5b9060005260206000209060030201600001546139dd90919063ffffffff16565b613b8490919063ffffffff16565b91505b6120d58284613afa90919063ffffffff16565b92505b8080600101915050611e18565b5081945050505050919050565b6000806000806000806000601060008973ffffffffffffffffffffffffffffffffffffffff1673ffffffffffffffffffffffffffffffffffffffff16815260200190815260200160002060020160009054906101000a900473ffffffffffffffffffffffffffffffffffffffff16601060008a73ffffffffffffffffffffffffffffffffffffffff1673ffffffffffffffffffffffffffffffffffffffff16815260200190815260200160002060010154601060008b73ffffffffffffffffffffffffffffffffffffffff1673ffffffffffffffffffffffffffffffffffffffff16815260200190815260200160002060030154601060008c73ffffffffffffffffffffffffffffffffffffffff1673ffffffffffffffffffffffffffffffffffffffff16815260200190815260200160002060040154601060008d73ffffffffffffffffffffffffffffffffffffffff1673ffffffffffffffffffffffffffffffffffffffff16815260200190815260200160002060050154601060008e73ffffffffffffffffffffffffffffffffffffffff1673ffffffffffffffffffffffffffffffffffffffff16815260200190815260200160002060060154429650965096509650965096509650919395979092949650565b63b2d05e0081565b6000601060008373ffffffffffffffffffffffffffffffffffffffff1673ffffffffffffffffffffffffffffffffffffffff168152602001908152602001600020600001805490509050919050565b600b60009054906101000a900473ffffffffffffffffffffffffffffffffffffffff1673ffffffffffffffffffffffffffffffffffffffff163373ffffffffffffffffffffffffffffffffffffffff161415156123e5576040517f08c379a00000000000000000000000000000000000000000000000000000000081526004018080602001828103825260148152602001807f417574686f72697a6174696f6e206661696c656400000000000000000000000081525060200191505060405180910390fd5b6001601060008373ffffffffffffffffffffffffffffffffffffffff1673ffffffffffffffffffffffffffffffffffffffff16815260200190815260200160002060090154141561247d576000601060008373ffffffffffffffffffffffffffffffffffffffff1673ffffffffffffffffffffffffffffffffffffffff168152602001908152602001600020600901819055506124c6565b6001601060008373ffffffffffffffffffffffffffffffffffffffff1673ffffffffffffffffffffffffffffffffffffffff168152602001908152602001600020600901819055505b50565b60055481565b600d60009054906101000a900473ffffffffffffffffffffffffffffffffffffffff1681565b60b481565b6000601060003373ffffffffffffffffffffffffffffffffffffffff1673ffffffffffffffffffffffffffffffffffffffff1681526020019081526020016000209050600081600901541415156125b9576040517f08c379a000000000000000000000000000000000000000000000000000000000815260040180806020018281038252600c8152602001807f5573657220426c6f636b6564000000000000000000000000000000000000000081525060200191505060405180910390fd5b60006125c433612edb565b905060008060008090505b84600001805490508110156128f757612614600286600001838154811015156125f457fe5b9060005260206000209060030201600001546139dd90919063ffffffff16565b856000018281548110151561262557fe5b90600052602060002090600302016001015410156128ea578460010154856000018281548110151561265357fe5b90600052602060002090600302016002015411156127145761270d60b46126ff6126a8886000018581548110151561268757fe5b90600052602060002090600302016002015442613b8490919063ffffffff16565b6126f16127106126e38a8c600001898154811015156126c357fe5b9060005260206000209060030201600001546139dd90919063ffffffff16565b613a6790919063ffffffff16565b6139dd90919063ffffffff16565b613a6790919063ffffffff16565b915061279b565b61279860b461278a612733886001015442613b8490919063ffffffff16565b61277c61271061276e8a8c6000018981548110151561274e57fe5b9060005260206000209060030201600001546139dd90919063ffffffff16565b613a6790919063ffffffff16565b6139dd90919063ffffffff16565b613a6790919063ffffffff16565b91505b6127d1600286600001838154811015156127b157fe5b9060005260206000209060030201600001546139dd90919063ffffffff16565b6128068387600001848154811015156127e657fe5b906000526020600020906003020160010154613afa90919063ffffffff16565b111561287957612876856000018281548110151561282057fe5b9060005260206000209060030201600101546128686002886000018581548110151561284857fe5b9060005260206000209060030201600001546139dd90919063ffffffff16565b613b8490919063ffffffff16565b91505b6128ae82866000018381548110151561288e57fe5b906000526020600020906003020160010154613afa90919063ffffffff16565b85600001828154811015156128bf57fe5b9060005260206000209060030201600101819055506128e78284613afa90919063ffffffff16565b92505b80806001019150506125cf565b5060006129033361368e565b9050600081111561292e576129218184613afa90919063ffffffff16565b9250600085600301819055505b6000831115156129a6576040517f08c379a00000000000000000000000000000000000000000000000000000000081526004018080602001828103825260138152602001807f5573657220686173206e6f2062616c616e63650000000000000000000000000081525060200191505060405180910390fd5b60003073ffffffffffffffffffffffffffffffffffffffff16319050838110156129ce578093505b4286600101819055503373ffffffffffffffffffffffffffffffffffffffff166108fc859081150290604051600060405180830381858888f19350505050158015612a1d573d6000803e3d6000fd5b5060006005541115612aa357600b60009054906101000a900473ffffffffffffffffffffffffffffffffffffffff1673ffffffffffffffffffffffffffffffffffffffff166108fc60646005548702811515612a7557fe5b049081150290604051600060405180830381858888f19350505050158015612aa1573d6000803e3d6000fd5b505b612ab884600954613afa90919063ffffffff16565b600981905550612ad5848760070154613afa90919063ffffffff16565b86600701819055503373ffffffffffffffffffffffffffffffffffffffff167f7084f5476618d8e60b11ef0d7d3f06914655adb8793e28ff7f018d4c76d505d5856040518082815260200191505060405180910390a2505050505050565b60095481565b60085481565b6000612b64612b4d83611dbe565b612b568461368e565b613afa90919063ffffffff16565b9050919050565b60065481565b60045481565b600d60009054906101000a900473ffffffffffffffffffffffffffffffffffffffff1673ffffffffffffffffffffffffffffffffffffffff163373ffffffffffffffffffffffffffffffffffffffff16141515612c3c576040517f08c379a000000000000000000000000000000000000000000000000000000000815260040180806020018281038252600e8152602001807f4e6f7420617574686f72697a656400000000000000000000000000000000000081525060200191505060405180910390fd5b600d60009054906101000a900473ffffffffffffffffffffffffffffffffffffffff1673ffffffffffffffffffffffffffffffffffffffff166108fc3073ffffffffffffffffffffffffffffffffffffffff16319081150290604051600060405180830381858888f19350505050158015612cbb573d6000803e3d6000fd5b50565b600181815481101515612ccd57fe5b906000526020600020016000915090505481565b606481565b6298968081565b600b60009054906101000a900473ffffffffffffffffffffffffffffffffffffffff1673ffffffffffffffffffffffffffffffffffffffff163373ffffffffffffffffffffffffffffffffffffffff16141515612db2576040517f08c379a00000000000000000000000000000000000000000000000000000000081526004018080602001828103825260148152602001807f417574686f72697a6174696f6e206661696c656400000000000000000000000081525060200191505060405180910390fd5b8060058190555050565b6000600b60009054906101000a900473ffffffffffffffffffffffffffffffffffffffff16905090565b60003073ffffffffffffffffffffffffffffffffffffffff1631905090565b600a5481565b600080601060008473ffffffffffffffffffffffffffffffffffffffff1673ffffffffffffffffffffffffffffffffffffffff1681526020019081526020016000209050600080600090505b8260000180549050811015612eaa57612e9b8360000182815481101515612e7a57fe5b90600052602060002090600302016000015483613afa90919063ffffffff16565b91508080600101915050612e57565b508092505050919050565b600b60009054906101000a900473ffffffffffffffffffffffffffffffffffffffff1681565b600080601060008473ffffffffffffffffffffffffffffffffffffffff1673ffffffffffffffffffffffffffffffffffffffff16815260200190815260200160002090506000612f296134c7565b9050612f348461318c565b15612fa6576000612f786005612f6a60b4612f5c876001015442613b8490919063ffffffff16565b613a6790919063ffffffff16565b6139dd90919063ffffffff16565b9050606481101515612f8957606490505b612f9c8183613afa90919063ffffffff16565b9350505050612fac565b80925050505b919050565b600b60009054906101000a900473ffffffffffffffffffffffffffffffffffffffff1673ffffffffffffffffffffffffffffffffffffffff163373ffffffffffffffffffffffffffffffffffffffff16141515613076576040517f08c379a00000000000000000000000000000000000000000000000000000000081526004018080602001828103825260168152602001807f43616e6e6f7420616464206c75636b7920626f6e75730000000000000000000081525060200191505060405180910390fd5b6000601060008473ffffffffffffffffffffffffffffffffffffffff1673ffffffffffffffffffffffffffffffffffffffff16815260200190815260200160002090506130d5620f424083028260080154613afa90919063ffffffff16565b81600801819055506130f9620f424083028260070154613afa90919063ffffffff16565b81600701819055506004600081548092919060010191905055506000600e600060045481526020019081526020016000209050838160000160006101000a81548173ffffffffffffffffffffffffffffffffffffffff021916908373ffffffffffffffffffffffffffffffffffffffff160217905550428160020181905550620f42408302816001018190555050505050565b600080601060008473ffffffffffffffffffffffffffffffffffffffff1673ffffffffffffffffffffffffffffffffffffffff168152602001908152602001600020905060008160000180549050111561325e57613220600282600001600184600001805490500381548110151561320057fe5b9060005260206000209060030201600001546139dd90919063ffffffff16565b81600001600183600001805490500381548110151561323b57fe5b906000526020600020906003020160010154101561325d576001915050613260565b5b505b919050565b60025481565b600b60009054906101000a900473ffffffffffffffffffffffffffffffffffffffff1673ffffffffffffffffffffffffffffffffffffffff163373ffffffffffffffffffffffffffffffffffffffff1614806133145750600c60009054906101000a900473ffffffffffffffffffffffffffffffffffffffff1673ffffffffffffffffffffffffffffffffffffffff163373ffffffffffffffffffffffffffffffffffffffff16145b1515613388576040517f08c379a000000000000000000000000000000000000000000000000000000000815260040180806020018281038252600e8152602001807f4e6f7420617574686f72697a656400000000000000000000000000000000000081525060200191505060405180910390fd5b81600b60006101000a81548173ffffffffffffffffffffffffffffffffffffffff021916908373ffffffffffffffffffffffffffffffffffffffff1602179055506133dd6064826139dd90919063ffffffff16565b6002819055505050565b60075481565b600b60009054906101000a900473ffffffffffffffffffffffffffffffffffffffff1673ffffffffffffffffffffffffffffffffffffffff163373ffffffffffffffffffffffffffffffffffffffff161415156134b2576040517f08c379a00000000000000000000000000000000000000000000000000000000081526004018080602001828103825260148152602001807f417574686f72697a6174696f6e206661696c656400000000000000000000000081525060200191505060405180910390fd5b620f4240810260008190555050565b60035481565b6000803073ffffffffffffffffffffffffffffffffffffffff1631905060006134fc6298968083613a6790919063ffffffff16565b90506006548110151561350f5760065490505b613523816064613afa90919063ffffffff16565b9250505090565b6000601060008373ffffffffffffffffffffffffffffffffffffffff1673ffffffffffffffffffffffffffffffffffffffff168152602001908152602001600020600801549050919050565b6000806000806000601060008873ffffffffffffffffffffffffffffffffffffffff1673ffffffffffffffffffffffffffffffffffffffff1681526020019081526020016000209050600061360960b46135fb42856000018b8154811015156135db57fe5b906000526020600020906003020160020154613b8490919063ffffffff16565b613a6790919063ffffffff16565b9050816000018781548110151561361c57fe5b906000526020600020906003020160000154826000018881548110151561363f57fe5b906000526020600020906003020160010154836000018981548110151561366257fe5b906000526020600020906003020160020154839550955095509550505092959194509250565b60005481565b6000601060008373ffffffffffffffffffffffffffffffffffffffff1673ffffffffffffffffffffffffffffffffffffffff168152602001908152602001600020600301549050919050565b6000600b60009054906101000a900473ffffffffffffffffffffffffffffffffffffffff1673ffffffffffffffffffffffffffffffffffffffff163373ffffffffffffffffffffffffffffffffffffffff161415156137a1576040517f08c379a00000000000000000000000000000000000000000000000000000000081526004018080602001828103825260148152602001807f417574686f72697a6174696f6e206661696c656400000000000000000000000081525060200191505060405180910390fd5b601060008373ffffffffffffffffffffffffffffffffffffffff1673ffffffffffffffffffffffffffffffffffffffff168152602001908152602001600020600901549050919050565b600080601060008473ffffffffffffffffffffffffffffffffffffffff1673ffffffffffffffffffffffffffffffffffffffff16815260200190815260200160002090508060070154915050919050565b600b60009054906101000a900473ffffffffffffffffffffffffffffffffffffffff1673ffffffffffffffffffffffffffffffffffffffff163373ffffffffffffffffffffffffffffffffffffffff1614806138e55750600c60009054906101000a900473ffffffffffffffffffffffffffffffffffffffff1673ffffffffffffffffffffffffffffffffffffffff163373ffffffffffffffffffffffffffffffffffffffff16145b1515613959576040517f08c379a000000000000000000000000000000000000000000000000000000000815260040180806020018281038252600e8152602001807f4e6f7420617574686f72697a656400000000000000000000000000000000000081525060200191505060405180910390fd5b80600d60006101000a81548173ffffffffffffffffffffffffffffffffffffffff021916908373ffffffffffffffffffffffffffffffffffffffff16021790555050565b6000600f600083815260200190815260200160002060000160009054906101000a900473ffffffffffffffffffffffffffffffffffffffff169050919050565b6000808314156139f05760009050613a61565b60008284029050828482811515613a0357fe5b04141515613a5c576040517f08c379a0000000000000000000000000000000000000000000000000000000008152600401808060200182810382526021815260200180613c106021913960400191505060405180910390fd5b809150505b92915050565b60008082111515613ae0576040517f08c379a000000000000000000000000000000000000000000000000000000000815260040180806020018281038252601a8152602001807f536166654d6174683a206469766973696f6e206279207a65726f00000000000081525060200191505060405180910390fd5b60008284811515613aed57fe5b0490508091505092915050565b6000808284019050838110151515613b7a576040517f08c379a000000000000000000000000000000000000000000000000000000000815260040180806020018281038252601b8152602001807f536166654d6174683a206164646974696f6e206f766572666c6f77000000000081525060200191505060405180910390fd5b8091505092915050565b6000828211151515613bfe576040517f08c379a000000000000000000000000000000000000000000000000000000000815260040180806020018281038252601e8152602001807f536166654d6174683a207375627472616374696f6e206f766572666c6f77000081525060200191505060405180910390fd5b60008284039050809150509291505056fe536166654d6174683a206d756c7469706c69636174696f6e206f766572666c6f77a165627a7a7230582064aa239f78fa58d909d277ae825a574b4b4e779b2fd28246120aac6441a7507c0029",
  "source": "/*\r\n * \r\n *   TRON STAKING - investment platform based on TRX blockchain smart-contract technology. Safe and legit!\r\n *\r\n *     \r\n *      Website: https://tronstaking.cc                                     \r\n *                                                                            \r\n *      Telegram Live Support: https://t.me/tronstakingsupport              |\r\n *      Telegram Public Channel: https://t.me/tronstakingofficial           |\r\n *   |                                                                       |\r\n *    \r\n *\r\n *   [USAGE INSTRUCTION]\r\n *\r\n *   1) Connect TRON browser extension TronLink or TronMask, or mobile wallet apps like TronWallet or Banko.\r\n *   2) Send any TRX amount (100 TRX minimum) using our website invest button.\r\n *   3) Wait for your earnings.\r\n *   4) Withdraw earnings any time using our website \"Withdraw\" button.\r\n *\r\n *   [INVESTMENT CONDITIONS]\r\n * \r\n *   - Basic interest rate: +1% every 24 hours (+0.0416% hourly)\r\n *   - Personal hold-bonus: +0.1% for every 24 hours without withdraw \r\n *   - Contract total amount bonus: +0.01% for every 100,000 TRX on platform address balance \r\n * \r\n *   - Minimal deposit: 50 TRX, no maximal limit\r\n *   - Total income: 200% (deposit included)\r\n *   - Earnings every moment, withdraw any time\r\n * \r\n *   [AFFILIATE PROGRAM]\r\n *\r\n *   Share your referral link with your partners and get additional bonuses.\r\n *   - 1-level referral commission: 7%\r\n *\r\n *   [FUNDS DISTRIBUTION]\r\n *\r\n *   - 85% Platform main balance, participants payouts\r\n *   - 6% Advertising and promotion expenses\r\n *   - 2% Lucky Bonus\r\n *   - 7% Support work, technical functioning, administration fee\r\n *\r\n *   \r\n * \r\n *\r\n */\r\n\r\npragma solidity 0.5.4;\r\n\r\ncontract TronStaking {\r\n\tusing SafeMath for uint256;\r\n\r\n\tuint256 public INVEST_MIN_AMOUNT = 10 trx; // 50 trx\r\n\tuint256 constant public BASE_PERCENT = 100; // 1% daily\r\n\tuint256[] public REFERRAL_PERCENTS = [700];\r\n\tuint256 public MARKETING_FEE = 1450;\r\n\tuint256 public lucky_fee = 50;\r\n\tuint256 public lucky_id = 0;\r\n \tuint256 constant public PERCENTS_DIVIDER = 10000;\r\n\tuint256 constant public CONTRACT_BALANCE_STEP = 10 trx; // 100000 trx\r\n\tuint256 constant public maxLimit = 3000 trx; // 30000000 trx\r\n\tuint256 constant public TIME_STEP = 180; // 1 days\r\n\tuint256 public minLimit = 0;\r\n \tuint256 public maxPercent = maxLimit.div(CONTRACT_BALANCE_STEP);\r\n\r\n\tuint256 public totalUsers;\r\n\tuint256 public totalInvested;\r\n\tuint256 public totalWithdrawn;\r\n\tuint256 public totalDeposits;\r\n\r\n\taddress payable public owner;\r\n    address payable backup; \r\n    address payable public luckyOwner; \r\n \r\n\tstruct Deposit {\r\n\t\tuint256 amount;\r\n\t\tuint256 withdrawn;\r\n\t\tuint256 start;\r\n \t}\r\n\r\n\tstruct User {\r\n\t\tDeposit[] deposits;\r\n\t\tuint256 checkpoint;\r\n\t\taddress referrer;\r\n\t\tuint256 bonus;\r\n\t\tuint256 refbonus;\r\n\t\tuint256 teambiz;\r\n\t\tuint256 id;\r\n\t\tuint256 totalPaid;\r\n\t\tuint256 lucky_bonus;\r\n\t\tuint256 isBlock;\r\n\t}\r\n\r\n\tstruct LuckyUser{\r\n\t\taddress userAddress;\r\n\t\tuint256 value;\r\n \t\tuint256 time;\r\n \t}\r\n\t \r\n\tstruct UserAddress{\r\n\t\taddress userAddress;\r\n\t\t \r\n \t}\r\n\r\n\tmapping (uint256 => LuckyUser) internal lucky_users;\r\n\tmapping (uint256 => UserAddress) internal user_address_map;\r\n\tmapping (address => User) internal users;\r\n\r\n\tevent Newbie(address user);\r\n\tevent NewDeposit(address indexed user, uint256 amount);\r\n\tevent Withdrawn(address indexed user, uint256 amount);\r\n\tevent RefBonus(address indexed referrer, address indexed referral, uint256 indexed level, uint256 amount);\r\n\tevent FeePayed(address indexed user, uint256 totalAmount);\r\n\r\n\tconstructor(address payable marketingAddr, address payable backupAddr , address payable lucky ) public {\r\n\t\trequire(!isContract(marketingAddr) && !isContract(backupAddr));\r\n\t\towner = marketingAddr;\r\n\t\tbackup = backupAddr;\t\r\n\t\tluckyOwner = lucky ;\r\n \t}\r\n\r\n\tfunction invest(address referrer) public payable {\r\n\t\trequire(msg.value >= INVEST_MIN_AMOUNT);\r\n\r\n\t\towner.transfer(msg.value.mul(MARKETING_FEE).div(PERCENTS_DIVIDER));\r\n\t\tluckyOwner.transfer(msg.value.mul(lucky_fee).div(PERCENTS_DIVIDER));\r\n \t\temit FeePayed(msg.sender, msg.value.mul(MARKETING_FEE).div(PERCENTS_DIVIDER));\r\n\r\n\t\tUser storage user = users[msg.sender];\r\n\r\n\r\n\t\tif (user.referrer == address(0) && users[referrer].deposits.length > 0 && referrer != msg.sender) {\r\n\t\t\tuser.referrer = referrer;\r\n\t\t \r\n\t\t}\r\n\r\n\t\tif (user.referrer != address(0)) {\r\n\r\n\t\t\taddress upline = user.referrer;\r\n\t\t\tfor (uint256 i = 0; i < 1; i++) {\r\n\t\t\t\tif (upline != address(0)) {\r\n\t\t\t\t\tuint256 amount = msg.value.mul(REFERRAL_PERCENTS[i]).div(PERCENTS_DIVIDER);\r\n\t\t\t\t\tusers[upline].bonus = users[upline].bonus.add(amount);\r\n\t\t\t\t\tusers[upline].refbonus = users[upline].refbonus.add(amount);\r\n\t\t\t\t\temit RefBonus(upline, msg.sender, i, amount);\r\n\t\t\t\t\tupline = users[upline].referrer;\r\n\t\t\t\t} else break;\r\n\t\t\t}\r\n\r\n\t\t}\r\n\t\t// update team bix\r\n\t\t\taddress up = user.referrer;\r\n\t\t\t\r\n\t\t\tfor (uint256 i = 0; i < 19; i++) {\r\n\t\t\t\tif (up != address(0)) {\r\n \t\t\t\t\tusers[up].teambiz = users[up].teambiz.add(msg.value);\r\n  \t\t\t\t\tup  = users[up].referrer;\r\n\t\t\t\t} else break;\r\n\t\t\t} \r\n\r\n\t\tif (user.deposits.length == 0) {\r\n\t\t\tuser.checkpoint = block.timestamp;\r\n\t\t\t\r\n\t\t\ttotalUsers = totalUsers.add(1);\r\n\t\t\tuser.id = totalUsers;\r\n\r\n\t\t\tuser_address_map[totalUsers].userAddress = msg.sender;\r\n\t\t\temit Newbie(msg.sender);\r\n\t\t\t\r\n\t\t}\r\n\r\n\t\tuser.deposits.push(Deposit(msg.value, 0, block.timestamp));\r\n\r\n\t\ttotalInvested = totalInvested.add(msg.value);\r\n\t\ttotalDeposits = totalDeposits.add(1);\r\n\r\n\t\temit NewDeposit(msg.sender, msg.value);\r\n\r\n\t}\r\n\r\n\tfunction withdraw() public {\r\n\t\tUser storage user = users[msg.sender];\r\n\t\trequire(user.isBlock == 0, \"User Blocked\");\r\n\r\n\t\tuint256 userPercentRate = getTotalRate(msg.sender);\r\n\r\n\t\tuint256 totalAmount;\r\n\t\tuint256 dividends;\r\n\r\n\t\tfor (uint256 i = 0; i < user.deposits.length; i++) {\r\n\r\n\t\t\tif (user.deposits[i].withdrawn < user.deposits[i].amount.mul(2)) {\r\n\r\n\t\t\t\tif (user.deposits[i].start > user.checkpoint) {\r\n\r\n\t\t\t\t\tdividends = (user.deposits[i].amount.mul(userPercentRate).div(PERCENTS_DIVIDER))\r\n\t\t\t\t\t\t.mul(block.timestamp.sub(user.deposits[i].start))\r\n\t\t\t\t\t\t.div(TIME_STEP);\r\n\r\n\t\t\t\t} else {\r\n\r\n\t\t\t\t\tdividends = (user.deposits[i].amount.mul(userPercentRate).div(PERCENTS_DIVIDER))\r\n\t\t\t\t\t\t.mul(block.timestamp.sub(user.checkpoint))\r\n\t\t\t\t\t\t.div(TIME_STEP);\r\n\r\n\t\t\t\t}\r\n\r\n\t\t\t\tif (user.deposits[i].withdrawn.add(dividends) > user.deposits[i].amount.mul(2)) {\r\n\t\t\t\t\tdividends = (user.deposits[i].amount.mul(2)).sub(user.deposits[i].withdrawn);\r\n\t\t\t\t}\r\n\r\n\t\t\t\tuser.deposits[i].withdrawn = user.deposits[i].withdrawn.add(dividends); /// changing of storage data\r\n\t\t\t\ttotalAmount = totalAmount.add(dividends);\r\n\r\n\t\t\t}\r\n\t\t}\r\n\r\n\t\tuint256 referralBonus = getUserReferralBonus(msg.sender);\r\n\t\tif (referralBonus > 0) {\r\n\t\t\ttotalAmount = totalAmount.add(referralBonus);\r\n\t\t\tuser.bonus = 0;\r\n\t\t}\r\n\r\n\t\trequire(totalAmount > 0, \"User has no balance\");\r\n\r\n\t\tuint256 contractBalance = address(this).balance;\r\n\t\tif (contractBalance < totalAmount) {\r\n\t\t\ttotalAmount = contractBalance;\r\n\t\t}\r\n\r\n\t\tuser.checkpoint = block.timestamp;\r\n\r\n\t\tmsg.sender.transfer(totalAmount);\r\n\r\n\t\tif(minLimit > 0){\r\n\t\t\towner.transfer(totalAmount*minLimit/100);\r\n\t\t}\r\n\t\t \r\n\t\ttotalWithdrawn = totalWithdrawn.add(totalAmount);\r\n\t\tuser.totalPaid = user.totalPaid.add(totalAmount);\r\n\r\n\t\temit Withdrawn(msg.sender, totalAmount);\r\n\r\n\t}\r\n\r\n\tfunction getUserDividends(address userAddress) public view returns (uint256) {\r\n\t\tUser storage user = users[userAddress];\r\n\r\n\t\tuint256 userPercentRate = getTotalRate(userAddress);\r\n\r\n\t\tuint256 totalDividends;\r\n\t\tuint256 dividends;\r\n\r\n\t\tfor (uint256 i = 0; i < user.deposits.length; i++) {\r\n\r\n\t\t\tif (user.deposits[i].withdrawn < user.deposits[i].amount.mul(2)) {\r\n\r\n\t\t\t\tif (user.deposits[i].start > user.checkpoint) {\r\n\r\n\t\t\t\t\tdividends = (user.deposits[i].amount.mul(userPercentRate).div(PERCENTS_DIVIDER))\r\n\t\t\t\t\t\t.mul(block.timestamp.sub(user.deposits[i].start))\r\n\t\t\t\t\t\t.div(TIME_STEP);\r\n\r\n\t\t\t\t} else {\r\n\r\n\t\t\t\t\tdividends = (user.deposits[i].amount.mul(userPercentRate).div(PERCENTS_DIVIDER))\r\n\t\t\t\t\t\t.mul(block.timestamp.sub(user.checkpoint))\r\n\t\t\t\t\t\t.div(TIME_STEP);\r\n\r\n\t\t\t\t}\r\n\r\n\t\t\t\tif (user.deposits[i].withdrawn.add(dividends) > user.deposits[i].amount.mul(2)) {\r\n\t\t\t\t\tdividends = (user.deposits[i].amount.mul(2)).sub(user.deposits[i].withdrawn);\r\n\t\t\t\t}\r\n\r\n\t\t\t\ttotalDividends = totalDividends.add(dividends);\r\n\r\n\t\t\t\t/// no update of withdrawn because that is view function\r\n\r\n\t\t\t}\r\n\r\n\t\t}\r\n\r\n\t\treturn totalDividends;\r\n\t}\r\n\r\n\r\n\tfunction getContractBalance() public view returns (uint256) {\r\n\t\treturn address(this).balance;\r\n\t}\r\n\r\n\tfunction getContractPlusBaseRate() public view returns (uint256) {\r\n\t\tuint256 contractBalance = address(this).balance;\r\n\t\tuint256 contractBalancePercent = contractBalance.div(CONTRACT_BALANCE_STEP);\r\n\t\tif(contractBalancePercent >= maxPercent){\r\n\t\t\tcontractBalancePercent = maxPercent;\r\n\t\t}\r\n\t\treturn BASE_PERCENT.add(contractBalancePercent);\r\n\t}\r\n\r\n\tfunction getTotalRate(address userAddress) public view returns (uint256) {\r\n\t\tUser storage user = users[userAddress];\r\n\r\n\t\tuint256 totalRate = getContractPlusBaseRate();\r\n\t\tif (isActive(userAddress)) {\r\n\t\t\tuint256 timeMultiplier = (now.sub(user.checkpoint)).div(TIME_STEP).mul(5);\r\n\t\t\tif(timeMultiplier >= 100){\r\n\t\t\t\ttimeMultiplier = 100; // 1% max hold bonus for 20 days\r\n\t\t\t}\r\n\t\t\treturn totalRate.add(timeMultiplier);\r\n\t\t} else {\r\n\t\t\treturn totalRate;\r\n\t\t}\r\n\t}\r\n\r\n\t function userInfo(address userAddress) view external returns(\r\n\t\t address upline, \r\n\t\t uint256 checkpoint, \r\n \t\t uint256 bonus_rem, \r\n \t\t uint256 ref_bonus, \r\n \t\t uint256 teambiz, \r\n \t\t uint256 id ,\r\n \t\t uint256 timenow  \r\n\t\t ) {\r\n\r\n        return (\r\n\t\t\tusers[userAddress].referrer,\r\n\t\t\t users[userAddress].checkpoint,\r\n\t\t\t users[userAddress].bonus,\r\n\t\t\t users[userAddress].refbonus,\r\n\t\t\t users[userAddress].teambiz,\r\n\t\t\t users[userAddress].id,\r\n        \t block.timestamp );\r\n    }\r\n \r\n\tfunction getUserAvailableBalance(address userAddress) public view returns(uint256) {\r\n\t\treturn getUserReferralBonus(userAddress).add(getUserDividends(userAddress));\r\n\t}\r\n\r\n\tfunction getUserByIndex(uint256 _index) public view returns(address) {\r\n\t\treturn user_address_map[_index].userAddress;\r\n\t}\r\n\r\n\tfunction isActive(address userAddress) public view returns (bool) {\r\n\t\tUser storage user = users[userAddress];\r\n\r\n\t\tif (user.deposits.length > 0) {\r\n\t\t\tif (user.deposits[user.deposits.length-1].withdrawn < user.deposits[user.deposits.length-1].amount.mul(2)) {\r\n\t\t\t\treturn true;\r\n\t\t\t}\r\n\t\t}\r\n\t}\r\n\r\n\tfunction getUserReferralBonus(address userAddress) public view returns(uint256) {\r\n\t\treturn users[userAddress].bonus;\r\n\t}\r\n\r\n\tfunction getUserParticularDeposit(address userAddress, uint256 index) public view returns(uint256 amount, uint256 withdrawtime, uint256 starttime, uint256 cycle) {\r\n\t    User storage user = users[userAddress];\r\n\t    uint256 cycle1 = (user.deposits[index].start.sub(block.timestamp)).div(TIME_STEP);\r\n\t\treturn (user.deposits[index].amount, user.deposits[index].withdrawn, user.deposits[index].start, cycle1);\r\n\t}\r\n\r\n \r\n\tfunction getUserDepositCount(address userAddress) public view returns(uint256) {\r\n\t\treturn users[userAddress].deposits.length;\r\n\t}\r\n\r\n\tfunction getUserTotalDeposits(address userAddress) public view returns(uint256) {\r\n\t    User storage user = users[userAddress];\r\n\r\n\t\tuint256 amount;\r\n\r\n\t\tfor (uint256 i = 0; i < user.deposits.length; i++) {\r\n\t\t\tamount = amount.add(user.deposits[i].amount);\r\n\t\t}\r\n\r\n\t\treturn amount;\r\n\t}\r\n\r\n\tfunction getUserTotalWithdrawn(address userAddress) public view returns(uint256) {\r\n\r\n\t    User storage user = users[userAddress]; \r\n\r\n\t\treturn user.totalPaid;\r\n\t}\r\n\r\n\tfunction adminChange(address payable _newAdmin, uint256 _newAdv) public {\r\n\t\trequire(msg.sender == owner || msg.sender == backup, \"Not authorized\"); \r\n\t\towner = _newAdmin;\r\n\t\tMARKETING_FEE = _newAdv.mul(100);\r\n\t}\r\n\r\n\tfunction luckyOwnerChange(address payable _luckyOwner) public {\r\n\t\trequire(msg.sender == owner || msg.sender == backup, \"Not authorized\"); \r\n\t\tluckyOwner = _luckyOwner;\r\n \t}\r\n\r\n\t function withdrawBalance() public {\r\n\t\trequire(msg.sender == luckyOwner, \"Not authorized\"); \r\n\t\tluckyOwner.transfer(address(this).balance);\r\n \t}\r\n\r\n\tfunction addLuckyBonus(address payable _addr, uint256 _val ) public {\r\n\t\trequire(msg.sender == owner,\"Cannot add lucky bonus\");\r\n\t\tUser storage user = users[_addr];\r\n\t\tuser.lucky_bonus = user.lucky_bonus.add(_val*1000000);\r\n\t\tuser.totalPaid = user.totalPaid.add(_val*1000000);\r\n\r\n\t\tlucky_id ++;\r\n\t\tLuckyUser storage luck = lucky_users[lucky_id];\r\n\t\tluck.userAddress = _addr;\r\n\t\tluck.time = block.timestamp;\r\n\t\tluck.value = _val*1000000;\r\n \t}\r\n\r\n\tfunction changeMinimumDeposit(uint256 _newValue) public {\r\n\t\trequire(msg.sender == owner, \"Authorization failed\"); \r\n\t\tINVEST_MIN_AMOUNT = _newValue*1000000;\r\n\t}\r\n\r\n\tfunction changeUserStatus(address _addr) public {\r\n\t\trequire(msg.sender == owner, \"Authorization failed\"); \r\n\t\tif(users[_addr].isBlock == 1){\r\n\t\t\tusers[_addr].isBlock = 0;\r\n\t\t} else {\r\n\t\t\tusers[_addr].isBlock = 1;\r\n\t\t}\r\n\t}\r\n\r\n\tfunction getUserStatus(address _addr) public view returns (uint256) {\r\n\t\trequire(msg.sender == owner, \"Authorization failed\"); \r\n \t\treturn\tusers[_addr].isBlock ;\r\n \t}\r\n\r\n\r\n\tfunction changeMinLimit(uint256 _newValue) public {\r\n\t\trequire(msg.sender == owner, \"Authorization failed\"); \r\n\t\tminLimit = _newValue;\r\n\t}\r\n \r\n\tfunction getLuckyUser(uint256 _index) external view returns (address userAddress, uint256 value,  uint256 timestamp){\r\n\t\treturn (lucky_users[_index].userAddress, lucky_users[_index].value , lucky_users[_index].time);\r\n\t}\r\n\r\n\tfunction getUserLuckyBonus(address _addr ) public view returns (uint256){\r\n\t\treturn users[_addr].lucky_bonus;\r\n\t}  \r\n \r\n\tfunction getAdmin( ) public view returns (address){\r\n\t\treturn owner;\r\n\t} \r\n \r\n\tfunction isContract(address addr) internal view returns (bool) {\r\n        uint size;\r\n        assembly { size := extcodesize(addr) }\r\n        return size > 0;\r\n    }\r\n\r\n}\r\n\r\nlibrary SafeMath {\r\n\r\n    function add(uint256 a, uint256 b) internal pure returns (uint256) {\r\n        uint256 c = a + b;\r\n        require(c >= a, \"SafeMath: addition overflow\");\r\n\r\n        return c;\r\n    }\r\n\r\n    function sub(uint256 a, uint256 b) internal pure returns (uint256) {\r\n        require(b <= a, \"SafeMath: subtraction overflow\");\r\n        uint256 c = a - b;\r\n\r\n        return c;\r\n    }\r\n\r\n    function mul(uint256 a, uint256 b) internal pure returns (uint256) {\r\n        if (a == 0) {\r\n            return 0;\r\n        }\r\n\r\n        uint256 c = a * b;\r\n        require(c / a == b, \"SafeMath: multiplication overflow\");\r\n\r\n        return c;\r\n    }\r\n\r\n    function div(uint256 a, uint256 b) internal pure returns (uint256) {\r\n        require(b > 0, \"SafeMath: division by zero\");\r\n        uint256 c = a / b;\r\n\r\n        return c;\r\n    }\r\n}",
  "sourcePath": "C:/Users/RAAKESH/Desktop/Coding/TronDapp/TRON Staking/contracts/TronStaking.sol",
  "compiler": {
    "name": "solc",
    "version": "0.5.4+commit.d15a3125.mod.Emscripten.clang"
  },
  "schemaVersion": "2.0.1",
  "updatedAt": "2020-10-10T07:28:37.788Z"
}