{
  "contractName": "TronStaking",
  "abi": [
    {
      "constant": true,
      "inputs": [],
      "name": "PERCENTS_DIVIDER",
      "outputs": [
        {
          "name": "",
          "type": "uint256"
        }
      ],
      "payable": false,
      "stateMutability": "view",
      "type": "function"
    },
    {
      "constant": true,
      "inputs": [],
      "name": "maxLimit",
      "outputs": [
        {
          "name": "",
          "type": "uint256"
        }
      ],
      "payable": false,
      "stateMutability": "view",
      "type": "function"
    },
    {
      "constant": true,
      "inputs": [],
      "name": "minLimit",
      "outputs": [
        {
          "name": "",
          "type": "uint256"
        }
      ],
      "payable": false,
      "stateMutability": "view",
      "type": "function"
    },
    {
      "constant": true,
      "inputs": [],
      "name": "luckyOwner",
      "outputs": [
        {
          "name": "",
          "type": "address"
        }
      ],
      "payable": false,
      "stateMutability": "view",
      "type": "function"
    },
    {
      "constant": true,
      "inputs": [],
      "name": "TIME_STEP",
      "outputs": [
        {
          "name": "",
          "type": "uint256"
        }
      ],
      "payable": false,
      "stateMutability": "view",
      "type": "function"
    },
    {
      "constant": true,
      "inputs": [],
      "name": "totalWithdrawn",
      "outputs": [
        {
          "name": "",
          "type": "uint256"
        }
      ],
      "payable": false,
      "stateMutability": "view",
      "type": "function"
    },
    {
      "constant": true,
      "inputs": [],
      "name": "totalInvested",
      "outputs": [
        {
          "name": "",
          "type": "uint256"
        }
      ],
      "payable": false,
      "stateMutability": "view",
      "type": "function"
    },
    {
      "constant": true,
      "inputs": [],
      "name": "maxPercent",
      "outputs": [
        {
          "name": "",
          "type": "uint256"
        }
      ],
      "payable": false,
      "stateMutability": "view",
      "type": "function"
    },
    {
      "constant": true,
      "inputs": [],
      "name": "lucky_id",
      "outputs": [
        {
          "name": "",
          "type": "uint256"
        }
      ],
      "payable": false,
      "stateMutability": "view",
      "type": "function"
    },
    {
      "constant": true,
      "inputs": [
        {
          "name": "",
          "type": "uint256"
        }
      ],
      "name": "REFERRAL_PERCENTS",
      "outputs": [
        {
          "name": "",
          "type": "uint256"
        }
      ],
      "payable": false,
      "stateMutability": "view",
      "type": "function"
    },
    {
      "constant": true,
      "inputs": [],
      "name": "BASE_PERCENT",
      "outputs": [
        {
          "name": "",
          "type": "uint256"
        }
      ],
      "payable": false,
      "stateMutability": "view",
      "type": "function"
    },
    {
      "constant": true,
      "inputs": [],
      "name": "CONTRACT_BALANCE_STEP",
      "outputs": [
        {
          "name": "",
          "type": "uint256"
        }
      ],
      "payable": false,
      "stateMutability": "view",
      "type": "function"
    },
    {
      "constant": true,
      "inputs": [],
      "name": "totalDeposits",
      "outputs": [
        {
          "name": "",
          "type": "uint256"
        }
      ],
      "payable": false,
      "stateMutability": "view",
      "type": "function"
    },
    {
      "constant": true,
      "inputs": [],
      "name": "owner",
      "outputs": [
        {
          "name": "",
          "type": "address"
        }
      ],
      "payable": false,
      "stateMutability": "view",
      "type": "function"
    },
    {
      "constant": true,
      "inputs": [],
      "name": "MARKETING_FEE",
      "outputs": [
        {
          "name": "",
          "type": "uint256"
        }
      ],
      "payable": false,
      "stateMutability": "view",
      "type": "function"
    },
    {
      "constant": true,
      "inputs": [],
      "name": "totalUsers",
      "outputs": [
        {
          "name": "",
          "type": "uint256"
        }
      ],
      "payable": false,
      "stateMutability": "view",
      "type": "function"
    },
    {
      "constant": true,
      "inputs": [],
      "name": "lucky_fee",
      "outputs": [
        {
          "name": "",
          "type": "uint256"
        }
      ],
      "payable": false,
      "stateMutability": "view",
      "type": "function"
    },
    {
      "constant": true,
      "inputs": [],
      "name": "INVEST_MIN_AMOUNT",
      "outputs": [
        {
          "name": "",
          "type": "uint256"
        }
      ],
      "payable": false,
      "stateMutability": "view",
      "type": "function"
    },
    {
      "inputs": [
        {
          "name": "marketingAddr",
          "type": "address"
        },
        {
          "name": "backupAddr",
          "type": "address"
        },
        {
          "name": "lucky",
          "type": "address"
        }
      ],
      "payable": false,
      "stateMutability": "nonpayable",
      "type": "constructor"
    },
    {
      "anonymous": false,
      "inputs": [
        {
          "indexed": false,
          "name": "user",
          "type": "address"
        }
      ],
      "name": "Newbie",
      "type": "event"
    },
    {
      "anonymous": false,
      "inputs": [
        {
          "indexed": true,
          "name": "user",
          "type": "address"
        },
        {
          "indexed": false,
          "name": "amount",
          "type": "uint256"
        }
      ],
      "name": "NewDeposit",
      "type": "event"
    },
    {
      "anonymous": false,
      "inputs": [
        {
          "indexed": true,
          "name": "user",
          "type": "address"
        },
        {
          "indexed": false,
          "name": "amount",
          "type": "uint256"
        }
      ],
      "name": "Withdrawn",
      "type": "event"
    },
    {
      "anonymous": false,
      "inputs": [
        {
          "indexed": true,
          "name": "referrer",
          "type": "address"
        },
        {
          "indexed": true,
          "name": "referral",
          "type": "address"
        },
        {
          "indexed": true,
          "name": "level",
          "type": "uint256"
        },
        {
          "indexed": false,
          "name": "amount",
          "type": "uint256"
        }
      ],
      "name": "RefBonus",
      "type": "event"
    },
    {
      "anonymous": false,
      "inputs": [
        {
          "indexed": true,
          "name": "user",
          "type": "address"
        },
        {
          "indexed": false,
          "name": "totalAmount",
          "type": "uint256"
        }
      ],
      "name": "FeePayed",
      "type": "event"
    },
    {
      "constant": false,
      "inputs": [
        {
          "name": "referrer",
          "type": "address"
        }
      ],
      "name": "invest",
      "outputs": [],
      "payable": true,
      "stateMutability": "payable",
      "type": "function"
    },
    {
      "constant": false,
      "inputs": [],
      "name": "withdraw",
      "outputs": [],
      "payable": false,
      "stateMutability": "nonpayable",
      "type": "function"
    },
    {
      "constant": true,
      "inputs": [
        {
          "name": "userAddress",
          "type": "address"
        }
      ],
      "name": "getUserDividends",
      "outputs": [
        {
          "name": "",
          "type": "uint256"
        }
      ],
      "payable": false,
      "stateMutability": "view",
      "type": "function"
    },
    {
      "constant": true,
      "inputs": [],
      "name": "getContractBalance",
      "outputs": [
        {
          "name": "",
          "type": "uint256"
        }
      ],
      "payable": false,
      "stateMutability": "view",
      "type": "function"
    },
    {
      "constant": true,
      "inputs": [],
      "name": "getContractPlusBaseRate",
      "outputs": [
        {
          "name": "",
          "type": "uint256"
        }
      ],
      "payable": false,
      "stateMutability": "view",
      "type": "function"
    },
    {
      "constant": true,
      "inputs": [
        {
          "name": "userAddress",
          "type": "address"
        }
      ],
      "name": "getTotalRate",
      "outputs": [
        {
          "name": "",
          "type": "uint256"
        }
      ],
      "payable": false,
      "stateMutability": "view",
      "type": "function"
    },
    {
      "constant": true,
      "inputs": [
        {
          "name": "userAddress",
          "type": "address"
        }
      ],
      "name": "userInfo",
      "outputs": [
        {
          "name": "upline",
          "type": "address"
        },
        {
          "name": "checkpoint",
          "type": "uint256"
        },
        {
          "name": "bonus_rem",
          "type": "uint256"
        },
        {
          "name": "ref_bonus",
          "type": "uint256"
        },
        {
          "name": "teambiz",
          "type": "uint256"
        },
        {
          "name": "id",
          "type": "uint256"
        },
        {
          "name": "timenow",
          "type": "uint256"
        }
      ],
      "payable": false,
      "stateMutability": "view",
      "type": "function"
    },
    {
      "constant": true,
      "inputs": [
        {
          "name": "userAddress",
          "type": "address"
        }
      ],
      "name": "getUserAvailableBalance",
      "outputs": [
        {
          "name": "",
          "type": "uint256"
        }
      ],
      "payable": false,
      "stateMutability": "view",
      "type": "function"
    },
    {
      "constant": true,
      "inputs": [
        {
          "name": "_index",
          "type": "uint256"
        }
      ],
      "name": "getUserByIndex",
      "outputs": [
        {
          "name": "",
          "type": "address"
        }
      ],
      "payable": false,
      "stateMutability": "view",
      "type": "function"
    },
    {
      "constant": true,
      "inputs": [
        {
          "name": "userAddress",
          "type": "address"
        }
      ],
      "name": "isActive",
      "outputs": [
        {
          "name": "",
          "type": "bool"
        }
      ],
      "payable": false,
      "stateMutability": "view",
      "type": "function"
    },
    {
      "constant": true,
      "inputs": [
        {
          "name": "userAddress",
          "type": "address"
        }
      ],
      "name": "getUserReferralBonus",
      "outputs": [
        {
          "name": "",
          "type": "uint256"
        }
      ],
      "payable": false,
      "stateMutability": "view",
      "type": "function"
    },
    {
      "constant": true,
      "inputs": [
        {
          "name": "userAddress",
          "type": "address"
        },
        {
          "name": "index",
          "type": "uint256"
        }
      ],
      "name": "getUserParticularDeposit",
      "outputs": [
        {
          "name": "amount",
          "type": "uint256"
        },
        {
          "name": "withdrawtime",
          "type": "uint256"
        },
        {
          "name": "starttime",
          "type": "uint256"
        },
        {
          "name": "cycle",
          "type": "uint256"
        }
      ],
      "payable": false,
      "stateMutability": "view",
      "type": "function"
    },
    {
      "constant": true,
      "inputs": [
        {
          "name": "userAddress",
          "type": "address"
        }
      ],
      "name": "getUserDepositCount",
      "outputs": [
        {
          "name": "",
          "type": "uint256"
        }
      ],
      "payable": false,
      "stateMutability": "view",
      "type": "function"
    },
    {
      "constant": true,
      "inputs": [
        {
          "name": "userAddress",
          "type": "address"
        }
      ],
      "name": "getUserTotalDeposits",
      "outputs": [
        {
          "name": "",
          "type": "uint256"
        }
      ],
      "payable": false,
      "stateMutability": "view",
      "type": "function"
    },
    {
      "constant": true,
      "inputs": [
        {
          "name": "userAddress",
          "type": "address"
        }
      ],
      "name": "getUserTotalWithdrawn",
      "outputs": [
        {
          "name": "",
          "type": "uint256"
        }
      ],
      "payable": false,
      "stateMutability": "view",
      "type": "function"
    },
    {
      "constant": false,
      "inputs": [
        {
          "name": "_newAdmin",
          "type": "address"
        },
        {
          "name": "_newAdv",
          "type": "uint256"
        }
      ],
      "name": "adminChange",
      "outputs": [],
      "payable": false,
      "stateMutability": "nonpayable",
      "type": "function"
    },
    {
      "constant": false,
      "inputs": [
        {
          "name": "_luckyOwner",
          "type": "address"
        }
      ],
      "name": "luckyOwnerChange",
      "outputs": [],
      "payable": false,
      "stateMutability": "nonpayable",
      "type": "function"
    },
    {
      "constant": false,
      "inputs": [
        {
          "name": "_addr",
          "type": "address"
        },
        {
          "name": "_val",
          "type": "uint256"
        }
      ],
      "name": "addLuckyBonus",
      "outputs": [],
      "payable": false,
      "stateMutability": "nonpayable",
      "type": "function"
    },
    {
      "constant": false,
      "inputs": [
        {
          "name": "_newValue",
          "type": "uint256"
        }
      ],
      "name": "changeMinimumDeposit",
      "outputs": [],
      "payable": false,
      "stateMutability": "nonpayable",
      "type": "function"
    },
    {
      "constant": false,
      "inputs": [
        {
          "name": "_newValue",
          "type": "uint256"
        }
      ],
      "name": "changeMinLimit",
      "outputs": [],
      "payable": false,
      "stateMutability": "nonpayable",
      "type": "function"
    },
    {
      "constant": true,
      "inputs": [
        {
          "name": "_index",
          "type": "uint256"
        }
      ],
      "name": "getLuckyUser",
      "outputs": [
        {
          "name": "userAddress",
          "type": "address"
        },
        {
          "name": "value",
          "type": "uint256"
        },
        {
          "name": "timestamp",
          "type": "uint256"
        }
      ],
      "payable": false,
      "stateMutability": "view",
      "type": "function"
    },
    {
      "constant": true,
      "inputs": [
        {
          "name": "_addr",
          "type": "address"
        }
      ],
      "name": "getUserLuckyBonus",
      "outputs": [
        {
          "name": "",
          "type": "uint256"
        }
      ],
      "payable": false,
      "stateMutability": "view",
      "type": "function"
    },
    {
      "constant": true,
      "inputs": [],
      "name": "getAdmin",
      "outputs": [
        {
          "name": "",
          "type": "address"
        }
      ],
      "payable": false,
      "stateMutability": "view",
      "type": "function"
    }
  ],
  "bytecode": "0x6080604052629896806000556020604051908101604052806102bc61ffff16815250600190600162000033929190620002a5565b506105aa600255603260035560006004556000600555620000736298968063b2d05e00620001fd64010000000002620034ae179091906401000000009004565b6006553480156200008357600080fd5b50d380156200009157600080fd5b50d280156200009f57600080fd5b50604051606080620039d883398101806040526060811015620000c157600080fd5b81019080805190602001909291908051906020019092919080519060200190929190505050620001008362000292640100000000026401000000009004565b158015620001255750620001238262000292640100000000026401000000009004565b155b15156200013157600080fd5b82600b60006101000a81548173ffffffffffffffffffffffffffffffffffffffff021916908373ffffffffffffffffffffffffffffffffffffffff16021790555081600c60006101000a81548173ffffffffffffffffffffffffffffffffffffffff021916908373ffffffffffffffffffffffffffffffffffffffff16021790555080600d60006101000a81548173ffffffffffffffffffffffffffffffffffffffff021916908373ffffffffffffffffffffffffffffffffffffffff16021790555050505062000325565b6000808211151562000277576040517f08c379a000000000000000000000000000000000000000000000000000000000815260040180806020018281038252601a8152602001807f536166654d6174683a206469766973696f6e206279207a65726f00000000000081525060200191505060405180910390fd5b600082848115156200028557fe5b0490508091505092915050565b600080823b905060008111915050919050565b828054828255906000526020600020908101928215620002ea579160200282015b82811115620002e9578251829061ffff16905591602001919060010190620002c6565b5b509050620002f99190620002fd565b5090565b6200032291905b808211156200031e57600081600090555060010162000304565b5090565b90565b6136a380620003356000396000f3fe608060405260043610610263576000357c0100000000000000000000000000000000000000000000000000000000900480636e9960c311610156578063bff1f9e1116100d3578063df36a4cb11610097578063df36a4cb14610f72578063e262113e14611010578063e85abe0914611055578063fb4cb32b146110d4578063fe8e51c314611153578063ff5d32fe146111be57610263565b8063bff1f9e114610dcf578063c189f8c714610e14578063d00de1f314610e69578063d8d198c014610eae578063d980793614610ef357610263565b8063964c1d921161011a578063964c1d9214610b9e57806397eb051214610c1d5780639f8a13d714610c92578063af3e212214610d15578063b598c3c214610d5a57610263565b80636e9960c3146109b35780636f9fb98a14610a245780637d88209714610a695780637e3abeea14610aae5780638da5cb5b14610b2d57610263565b80633ccfd60b116101e45780635dccd1c0116101a85780635dccd1c014610826578063600d20ce1461086b57806362f3765e146108d45780636aabddee146109195780636b6bdf151461095e57610263565b80633ccfd60b146106a75780634b319713146106d85780635216aeec1461071d5780635638e4d61461076257806359a153ba146107e157610263565b80631a861d261161022b5780631a861d26146104e85780631bae91a41461052d5780631fd8088d146105ac578063230f3aea146105f157806332bc298c1461066257610263565b806301c234a8146102685780630296c9fb146102ad57806303f9c79314610350578063040a772e146103945780631959a00214610413575b600080fd5b34801561027457600080fd5b50d3801561028157600080fd5b50d2801561028e57600080fd5b50610297611253565b6040518082815260200191505060405180910390f35b3480156102b957600080fd5b50d380156102c657600080fd5b50d280156102d357600080fd5b50610300600480360360208110156102ea57600080fd5b8101908080359060200190929190505050611259565b604051808473ffffffffffffffffffffffffffffffffffffffff1673ffffffffffffffffffffffffffffffffffffffff168152602001838152602001828152602001935050505060405180910390f35b6103926004803603602081101561036657600080fd5b81019080803573ffffffffffffffffffffffffffffffffffffffff1690602001909291905050506112d0565b005b3480156103a057600080fd5b50d380156103ad57600080fd5b50d280156103ba57600080fd5b506103fd600480360360208110156103d157600080fd5b81019080803573ffffffffffffffffffffffffffffffffffffffff169060200190929190505050611c82565b6040518082815260200191505060405180910390f35b34801561041f57600080fd5b50d3801561042c57600080fd5b50d2801561043957600080fd5b5061047c6004803603602081101561045057600080fd5b81019080803573ffffffffffffffffffffffffffffffffffffffff169060200190929190505050611fb6565b604051808873ffffffffffffffffffffffffffffffffffffffff1673ffffffffffffffffffffffffffffffffffffffff16815260200187815260200186815260200185815260200184815260200183815260200182815260200197505050505050505060405180910390f35b3480156104f457600080fd5b50d3801561050157600080fd5b50d2801561050e57600080fd5b5061051761218d565b6040518082815260200191505060405180910390f35b34801561053957600080fd5b50d3801561054657600080fd5b50d2801561055357600080fd5b506105966004803603602081101561056a57600080fd5b81019080803573ffffffffffffffffffffffffffffffffffffffff169060200190929190505050612195565b6040518082815260200191505060405180910390f35b3480156105b857600080fd5b50d380156105c557600080fd5b50d280156105d257600080fd5b506105db6121e4565b6040518082815260200191505060405180910390f35b3480156105fd57600080fd5b50d3801561060a57600080fd5b50d2801561061757600080fd5b506106206121ea565b604051808273ffffffffffffffffffffffffffffffffffffffff1673ffffffffffffffffffffffffffffffffffffffff16815260200191505060405180910390f35b34801561066e57600080fd5b50d3801561067b57600080fd5b50d2801561068857600080fd5b50610691612210565b6040518082815260200191505060405180910390f35b3480156106b357600080fd5b50d380156106c057600080fd5b50d280156106cd57600080fd5b506106d6612215565b005b3480156106e457600080fd5b50d380156106f157600080fd5b50d280156106fe57600080fd5b506107076127d2565b6040518082815260200191505060405180910390f35b34801561072957600080fd5b50d3801561073657600080fd5b50d2801561074357600080fd5b5061074c6127d8565b6040518082815260200191505060405180910390f35b34801561076e57600080fd5b50d3801561077b57600080fd5b50d2801561078857600080fd5b506107cb6004803603602081101561079f57600080fd5b81019080803573ffffffffffffffffffffffffffffffffffffffff1690602001909291905050506127de565b6040518082815260200191505060405180910390f35b3480156107ed57600080fd5b50d380156107fa57600080fd5b50d2801561080757600080fd5b5061081061280a565b6040518082815260200191505060405180910390f35b34801561083257600080fd5b50d3801561083f57600080fd5b50d2801561084c57600080fd5b50610855612810565b6040518082815260200191505060405180910390f35b34801561087757600080fd5b50d3801561088457600080fd5b50d2801561089157600080fd5b506108be600480360360208110156108a857600080fd5b8101908080359060200190929190505050612816565b6040518082815260200191505060405180910390f35b3480156108e057600080fd5b50d380156108ed57600080fd5b50d280156108fa57600080fd5b50610903612839565b6040518082815260200191505060405180910390f35b34801561092557600080fd5b50d3801561093257600080fd5b50d2801561093f57600080fd5b5061094861283e565b6040518082815260200191505060405180910390f35b34801561096a57600080fd5b50d3801561097757600080fd5b50d2801561098457600080fd5b506109b16004803603602081101561099b57600080fd5b8101908080359060200190929190505050612845565b005b3480156109bf57600080fd5b50d380156109cc57600080fd5b50d280156109d957600080fd5b506109e2612914565b604051808273ffffffffffffffffffffffffffffffffffffffff1673ffffffffffffffffffffffffffffffffffffffff16815260200191505060405180910390f35b348015610a3057600080fd5b50d38015610a3d57600080fd5b50d28015610a4a57600080fd5b50610a5361293e565b6040518082815260200191505060405180910390f35b348015610a7557600080fd5b50d38015610a8257600080fd5b50d28015610a8f57600080fd5b50610a9861295d565b6040518082815260200191505060405180910390f35b348015610aba57600080fd5b50d38015610ac757600080fd5b50d28015610ad457600080fd5b50610b1760048036036020811015610aeb57600080fd5b81019080803573ffffffffffffffffffffffffffffffffffffffff169060200190929190505050612963565b6040518082815260200191505060405180910390f35b348015610b3957600080fd5b50d38015610b4657600080fd5b50d28015610b5357600080fd5b50610b5c612a0d565b604051808273ffffffffffffffffffffffffffffffffffffffff1673ffffffffffffffffffffffffffffffffffffffff16815260200191505060405180910390f35b348015610baa57600080fd5b50d38015610bb757600080fd5b50d28015610bc457600080fd5b50610c0760048036036020811015610bdb57600080fd5b81019080803573ffffffffffffffffffffffffffffffffffffffff169060200190929190505050612a33565b6040518082815260200191505060405180910390f35b348015610c2957600080fd5b50d38015610c3657600080fd5b50d28015610c4357600080fd5b50610c9060048036036040811015610c5a57600080fd5b81019080803573ffffffffffffffffffffffffffffffffffffffff16906020019092919080359060200190929190505050612b09565b005b348015610c9e57600080fd5b50d38015610cab57600080fd5b50d28015610cb857600080fd5b50610cfb60048036036020811015610ccf57600080fd5b81019080803573ffffffffffffffffffffffffffffffffffffffff169060200190929190505050612ce4565b604051808215151515815260200191505060405180910390f35b348015610d2157600080fd5b50d38015610d2e57600080fd5b50d28015610d3b57600080fd5b50610d44612dbd565b6040518082815260200191505060405180910390f35b348015610d6657600080fd5b50d38015610d7357600080fd5b50d28015610d8057600080fd5b50610dcd60048036036040811015610d9757600080fd5b81019080803573ffffffffffffffffffffffffffffffffffffffff16906020019092919080359060200190929190505050612dc3565b005b348015610ddb57600080fd5b50d38015610de857600080fd5b50d28015610df557600080fd5b50610dfe612f3f565b6040518082815260200191505060405180910390f35b348015610e2057600080fd5b50d38015610e2d57600080fd5b50d28015610e3a57600080fd5b50610e6760048036036020811015610e5157600080fd5b8101908080359060200190929190505050612f45565b005b348015610e7557600080fd5b50d38015610e8257600080fd5b50d28015610e8f57600080fd5b50610e98613019565b6040518082815260200191505060405180910390f35b348015610eba57600080fd5b50d38015610ec757600080fd5b50d28015610ed457600080fd5b50610edd61301f565b6040518082815260200191505060405180910390f35b348015610eff57600080fd5b50d38015610f0c57600080fd5b50d28015610f1957600080fd5b50610f5c60048036036020811015610f3057600080fd5b81019080803573ffffffffffffffffffffffffffffffffffffffff169060200190929190505050613082565b6040518082815260200191505060405180910390f35b348015610f7e57600080fd5b50d38015610f8b57600080fd5b50d28015610f9857600080fd5b50610fe560048036036040811015610faf57600080fd5b81019080803573ffffffffffffffffffffffffffffffffffffffff169060200190929190803590602001909291905050506130ce565b6040518085815260200184815260200183815260200182815260200194505050505060405180910390f35b34801561101c57600080fd5b50d3801561102957600080fd5b50d2801561103657600080fd5b5061103f6131e0565b6040518082815260200191505060405180910390f35b34801561106157600080fd5b50d3801561106e57600080fd5b50d2801561107b57600080fd5b506110be6004803603602081101561109257600080fd5b81019080803573ffffffffffffffffffffffffffffffffffffffff1690602001909291905050506131e6565b6040518082815260200191505060405180910390f35b3480156110e057600080fd5b50d380156110ed57600080fd5b50d280156110fa57600080fd5b5061113d6004803603602081101561111157600080fd5b81019080803573ffffffffffffffffffffffffffffffffffffffff169060200190929190505050613232565b6040518082815260200191505060405180910390f35b34801561115f57600080fd5b50d3801561116c57600080fd5b50d2801561117957600080fd5b506111bc6004803603602081101561119057600080fd5b81019080803573ffffffffffffffffffffffffffffffffffffffff169060200190929190505050613283565b005b3480156111ca57600080fd5b50d380156111d757600080fd5b50d280156111e457600080fd5b50611211600480360360208110156111fb57600080fd5b81019080803590602001909291905050506133e4565b604051808273ffffffffffffffffffffffffffffffffffffffff1673ffffffffffffffffffffffffffffffffffffffff16815260200191505060405180910390f35b61271081565b6000806000600e600085815260200190815260200160002060000160009054906101000a900473ffffffffffffffffffffffffffffffffffffffff16600e600086815260200190815260200160002060010154600e6000878152602001908152602001600020600201549250925092509193909250565b60005434101515156112e157600080fd5b600b60009054906101000a900473ffffffffffffffffffffffffffffffffffffffff1673ffffffffffffffffffffffffffffffffffffffff166108fc6113466127106113386002543461342490919063ffffffff16565b6134ae90919063ffffffff16565b9081150290604051600060405180830381858888f19350505050158015611371573d6000803e3d6000fd5b50600d60009054906101000a900473ffffffffffffffffffffffffffffffffffffffff1673ffffffffffffffffffffffffffffffffffffffff166108fc6113d76127106113c96003543461342490919063ffffffff16565b6134ae90919063ffffffff16565b9081150290604051600060405180830381858888f19350505050158015611402573d6000803e3d6000fd5b503373ffffffffffffffffffffffffffffffffffffffff167f2899dc8c12def1caa9accb64257cf2fd9f960f21bb27a560a757eae3c2ec43c16114646127106114566002543461342490919063ffffffff16565b6134ae90919063ffffffff16565b6040518082815260200191505060405180910390a26000601060003373ffffffffffffffffffffffffffffffffffffffff1673ffffffffffffffffffffffffffffffffffffffff1681526020019081526020016000209050600073ffffffffffffffffffffffffffffffffffffffff168160020160009054906101000a900473ffffffffffffffffffffffffffffffffffffffff1673ffffffffffffffffffffffffffffffffffffffff1614801561156157506000601060008473ffffffffffffffffffffffffffffffffffffffff1673ffffffffffffffffffffffffffffffffffffffff16815260200190815260200160002060000180549050115b801561159957503373ffffffffffffffffffffffffffffffffffffffff168273ffffffffffffffffffffffffffffffffffffffff1614155b156115e257818160020160006101000a81548173ffffffffffffffffffffffffffffffffffffffff021916908373ffffffffffffffffffffffffffffffffffffffff1602179055505b600073ffffffffffffffffffffffffffffffffffffffff168160020160009054906101000a900473ffffffffffffffffffffffffffffffffffffffff1673ffffffffffffffffffffffffffffffffffffffff1614151561190a5760008160020160009054906101000a900473ffffffffffffffffffffffffffffffffffffffff16905060008090505b600181101561190757600073ffffffffffffffffffffffffffffffffffffffff168273ffffffffffffffffffffffffffffffffffffffff161415156118f55760006116ec6127106116de6001858154811015156116c457fe5b90600052602060002001543461342490919063ffffffff16565b6134ae90919063ffffffff16565b905061174381601060008673ffffffffffffffffffffffffffffffffffffffff1673ffffffffffffffffffffffffffffffffffffffff1681526020019081526020016000206003015461354190919063ffffffff16565b601060008573ffffffffffffffffffffffffffffffffffffffff1673ffffffffffffffffffffffffffffffffffffffff168152602001908152602001600020600301819055506117de81601060008673ffffffffffffffffffffffffffffffffffffffff1673ffffffffffffffffffffffffffffffffffffffff1681526020019081526020016000206004015461354190919063ffffffff16565b601060008573ffffffffffffffffffffffffffffffffffffffff1673ffffffffffffffffffffffffffffffffffffffff16815260200190815260200160002060040181905550813373ffffffffffffffffffffffffffffffffffffffff168473ffffffffffffffffffffffffffffffffffffffff167fd41f7e766eebcc7ff42b11ac8691bdf864db4afc0c55e71d629d54edce460d98846040518082815260200191505060405180910390a4601060008473ffffffffffffffffffffffffffffffffffffffff1673ffffffffffffffffffffffffffffffffffffffff16815260200190815260200160002060020160009054906101000a900473ffffffffffffffffffffffffffffffffffffffff169250506118fa565b611907565b808060010191505061166b565b50505b60008160020160009054906101000a900473ffffffffffffffffffffffffffffffffffffffff16905060008090505b6013811015611a8f57600073ffffffffffffffffffffffffffffffffffffffff168273ffffffffffffffffffffffffffffffffffffffff16141515611a7d576119cd34601060008573ffffffffffffffffffffffffffffffffffffffff1673ffffffffffffffffffffffffffffffffffffffff1681526020019081526020016000206005015461354190919063ffffffff16565b601060008473ffffffffffffffffffffffffffffffffffffffff1673ffffffffffffffffffffffffffffffffffffffff16815260200190815260200160002060050181905550601060008373ffffffffffffffffffffffffffffffffffffffff1673ffffffffffffffffffffffffffffffffffffffff16815260200190815260200160002060020160009054906101000a900473ffffffffffffffffffffffffffffffffffffffff169150611a82565b611a8f565b8080600101915050611939565b50600082600001805490501415611b8b57428260010181905550611abf600160075461354190919063ffffffff16565b600781905550600754826006018190555033600f6000600754815260200190815260200160002060000160006101000a81548173ffffffffffffffffffffffffffffffffffffffff021916908373ffffffffffffffffffffffffffffffffffffffff1602179055507f9fd565cd14c3c391679eb0cad12a14dcf7534e9d3462bcb9b67a098a9bbbc24a33604051808273ffffffffffffffffffffffffffffffffffffffff1673ffffffffffffffffffffffffffffffffffffffff16815260200191505060405180910390a15b81600001606060405190810160405280348152602001600081526020014281525090806001815401808255809150509060018203906000526020600020906003020160009091929091909150600082015181600001556020820151816001015560408201518160020155505050611c0d3460085461354190919063ffffffff16565b600881905550611c296001600a5461354190919063ffffffff16565b600a819055503373ffffffffffffffffffffffffffffffffffffffff167f2cb77763bc1e8490c1a904905c4d74b4269919aca114464f4bb4d911e60de364346040518082815260200191505060405180910390a2505050565b600080601060008473ffffffffffffffffffffffffffffffffffffffff1673ffffffffffffffffffffffffffffffffffffffff16815260200190815260200160002090506000611cd184612a33565b905060008060008090505b8460000180549050811015611fa957611d2160028660000183815481101515611d0157fe5b90600052602060002090600302016000015461342490919063ffffffff16565b8560000182815481101515611d3257fe5b9060005260206000209060030201600101541015611f9c5784600101548560000182815481101515611d6057fe5b9060005260206000209060030201600201541115611e2157611e1a60b4611e0c611db58860000185815481101515611d9457fe5b906000526020600020906003020160020154426135cb90919063ffffffff16565b611dfe612710611df08a8c60000189815481101515611dd057fe5b90600052602060002090600302016000015461342490919063ffffffff16565b6134ae90919063ffffffff16565b61342490919063ffffffff16565b6134ae90919063ffffffff16565b9150611ea8565b611ea560b4611e97611e408860010154426135cb90919063ffffffff16565b611e89612710611e7b8a8c60000189815481101515611e5b57fe5b90600052602060002090600302016000015461342490919063ffffffff16565b6134ae90919063ffffffff16565b61342490919063ffffffff16565b6134ae90919063ffffffff16565b91505b611ede60028660000183815481101515611ebe57fe5b90600052602060002090600302016000015461342490919063ffffffff16565b611f13838760000184815481101515611ef357fe5b90600052602060002090600302016001015461354190919063ffffffff16565b1115611f8657611f838560000182815481101515611f2d57fe5b906000526020600020906003020160010154611f7560028860000185815481101515611f5557fe5b90600052602060002090600302016000015461342490919063ffffffff16565b6135cb90919063ffffffff16565b91505b611f99828461354190919063ffffffff16565b92505b8080600101915050611cdc565b5081945050505050919050565b6000806000806000806000601060008973ffffffffffffffffffffffffffffffffffffffff1673ffffffffffffffffffffffffffffffffffffffff16815260200190815260200160002060020160009054906101000a900473ffffffffffffffffffffffffffffffffffffffff16601060008a73ffffffffffffffffffffffffffffffffffffffff1673ffffffffffffffffffffffffffffffffffffffff16815260200190815260200160002060010154601060008b73ffffffffffffffffffffffffffffffffffffffff1673ffffffffffffffffffffffffffffffffffffffff16815260200190815260200160002060030154601060008c73ffffffffffffffffffffffffffffffffffffffff1673ffffffffffffffffffffffffffffffffffffffff16815260200190815260200160002060040154601060008d73ffffffffffffffffffffffffffffffffffffffff1673ffffffffffffffffffffffffffffffffffffffff16815260200190815260200160002060050154601060008e73ffffffffffffffffffffffffffffffffffffffff1673ffffffffffffffffffffffffffffffffffffffff16815260200190815260200160002060060154429650965096509650965096509650919395979092949650565b63b2d05e0081565b6000601060008373ffffffffffffffffffffffffffffffffffffffff1673ffffffffffffffffffffffffffffffffffffffff168152602001908152602001600020600001805490509050919050565b60055481565b600d60009054906101000a900473ffffffffffffffffffffffffffffffffffffffff1681565b60b481565b6000601060003373ffffffffffffffffffffffffffffffffffffffff1673ffffffffffffffffffffffffffffffffffffffff1681526020019081526020016000209050600061226333612a33565b905060008060008090505b8460000180549050811015612596576122b36002866000018381548110151561229357fe5b90600052602060002090600302016000015461342490919063ffffffff16565b85600001828154811015156122c457fe5b906000526020600020906003020160010154101561258957846001015485600001828154811015156122f257fe5b90600052602060002090600302016002015411156123b3576123ac60b461239e612347886000018581548110151561232657fe5b906000526020600020906003020160020154426135cb90919063ffffffff16565b6123906127106123828a8c6000018981548110151561236257fe5b90600052602060002090600302016000015461342490919063ffffffff16565b6134ae90919063ffffffff16565b61342490919063ffffffff16565b6134ae90919063ffffffff16565b915061243a565b61243760b46124296123d28860010154426135cb90919063ffffffff16565b61241b61271061240d8a8c600001898154811015156123ed57fe5b90600052602060002090600302016000015461342490919063ffffffff16565b6134ae90919063ffffffff16565b61342490919063ffffffff16565b6134ae90919063ffffffff16565b91505b6124706002866000018381548110151561245057fe5b90600052602060002090600302016000015461342490919063ffffffff16565b6124a583876000018481548110151561248557fe5b90600052602060002090600302016001015461354190919063ffffffff16565b11156125185761251585600001828154811015156124bf57fe5b906000526020600020906003020160010154612507600288600001858154811015156124e757fe5b90600052602060002090600302016000015461342490919063ffffffff16565b6135cb90919063ffffffff16565b91505b61254d82866000018381548110151561252d57fe5b90600052602060002090600302016001015461354190919063ffffffff16565b856000018281548110151561255e57fe5b906000526020600020906003020160010181905550612586828461354190919063ffffffff16565b92505b808060010191505061226e565b5060006125a2336131e6565b905060008111156125cd576125c0818461354190919063ffffffff16565b9250600085600301819055505b600083111515612645576040517f08c379a00000000000000000000000000000000000000000000000000000000081526004018080602001828103825260138152602001807f5573657220686173206e6f2062616c616e63650000000000000000000000000081525060200191505060405180910390fd5b60003073ffffffffffffffffffffffffffffffffffffffff163190508381101561266d578093505b4286600101819055503373ffffffffffffffffffffffffffffffffffffffff166108fc859081150290604051600060405180830381858888f193505050501580156126bc573d6000803e3d6000fd5b506000600554111561274257600b60009054906101000a900473ffffffffffffffffffffffffffffffffffffffff1673ffffffffffffffffffffffffffffffffffffffff166108fc6064600554870281151561271457fe5b049081150290604051600060405180830381858888f19350505050158015612740573d6000803e3d6000fd5b505b6127578460095461354190919063ffffffff16565b60098190555061277484876007015461354190919063ffffffff16565b86600701819055503373ffffffffffffffffffffffffffffffffffffffff167f7084f5476618d8e60b11ef0d7d3f06914655adb8793e28ff7f018d4c76d505d5856040518082815260200191505060405180910390a2505050505050565b60095481565b60085481565b60006128036127ec83611c82565b6127f5846131e6565b61354190919063ffffffff16565b9050919050565b60065481565b60045481565b60018181548110151561282557fe5b906000526020600020016000915090505481565b606481565b6298968081565b600b60009054906101000a900473ffffffffffffffffffffffffffffffffffffffff1673ffffffffffffffffffffffffffffffffffffffff163373ffffffffffffffffffffffffffffffffffffffff1614151561290a576040517f08c379a00000000000000000000000000000000000000000000000000000000081526004018080602001828103825260148152602001807f417574686f72697a6174696f6e206661696c656400000000000000000000000081525060200191505060405180910390fd5b8060058190555050565b6000600b60009054906101000a900473ffffffffffffffffffffffffffffffffffffffff16905090565b60003073ffffffffffffffffffffffffffffffffffffffff1631905090565b600a5481565b600080601060008473ffffffffffffffffffffffffffffffffffffffff1673ffffffffffffffffffffffffffffffffffffffff1681526020019081526020016000209050600080600090505b8260000180549050811015612a02576129f383600001828154811015156129d257fe5b9060005260206000209060030201600001548361354190919063ffffffff16565b915080806001019150506129af565b508092505050919050565b600b60009054906101000a900473ffffffffffffffffffffffffffffffffffffffff1681565b600080601060008473ffffffffffffffffffffffffffffffffffffffff1673ffffffffffffffffffffffffffffffffffffffff16815260200190815260200160002090506000612a8161301f565b9050612a8c84612ce4565b15612afe576000612ad06005612ac260b4612ab48760010154426135cb90919063ffffffff16565b6134ae90919063ffffffff16565b61342490919063ffffffff16565b9050606481101515612ae157606490505b612af4818361354190919063ffffffff16565b9350505050612b04565b80925050505b919050565b600b60009054906101000a900473ffffffffffffffffffffffffffffffffffffffff1673ffffffffffffffffffffffffffffffffffffffff163373ffffffffffffffffffffffffffffffffffffffff16141515612bce576040517f08c379a00000000000000000000000000000000000000000000000000000000081526004018080602001828103825260168152602001807f43616e6e6f7420616464206c75636b7920626f6e75730000000000000000000081525060200191505060405180910390fd5b6000601060008473ffffffffffffffffffffffffffffffffffffffff1673ffffffffffffffffffffffffffffffffffffffff1681526020019081526020016000209050612c2d620f42408302826008015461354190919063ffffffff16565b8160080181905550612c51620f42408302826007015461354190919063ffffffff16565b81600701819055506004600081548092919060010191905055506000600e600060045481526020019081526020016000209050838160000160006101000a81548173ffffffffffffffffffffffffffffffffffffffff021916908373ffffffffffffffffffffffffffffffffffffffff160217905550428160020181905550620f42408302816001018190555050505050565b600080601060008473ffffffffffffffffffffffffffffffffffffffff1673ffffffffffffffffffffffffffffffffffffffff1681526020019081526020016000209050600081600001805490501115612db657612d786002826000016001846000018054905003815481101515612d5857fe5b90600052602060002090600302016000015461342490919063ffffffff16565b816000016001836000018054905003815481101515612d9357fe5b9060005260206000209060030201600101541015612db5576001915050612db8565b5b505b919050565b60025481565b600b60009054906101000a900473ffffffffffffffffffffffffffffffffffffffff1673ffffffffffffffffffffffffffffffffffffffff163373ffffffffffffffffffffffffffffffffffffffff161480612e6c5750600c60009054906101000a900473ffffffffffffffffffffffffffffffffffffffff1673ffffffffffffffffffffffffffffffffffffffff163373ffffffffffffffffffffffffffffffffffffffff16145b1515612ee0576040517f08c379a000000000000000000000000000000000000000000000000000000000815260040180806020018281038252600e8152602001807f4e6f7420617574686f72697a656400000000000000000000000000000000000081525060200191505060405180910390fd5b81600b60006101000a81548173ffffffffffffffffffffffffffffffffffffffff021916908373ffffffffffffffffffffffffffffffffffffffff160217905550612f3560648261342490919063ffffffff16565b6002819055505050565b60075481565b600b60009054906101000a900473ffffffffffffffffffffffffffffffffffffffff1673ffffffffffffffffffffffffffffffffffffffff163373ffffffffffffffffffffffffffffffffffffffff1614151561300a576040517f08c379a00000000000000000000000000000000000000000000000000000000081526004018080602001828103825260148152602001807f417574686f72697a6174696f6e206661696c656400000000000000000000000081525060200191505060405180910390fd5b620f4240810260008190555050565b60035481565b6000803073ffffffffffffffffffffffffffffffffffffffff16319050600061305462989680836134ae90919063ffffffff16565b9050600654811015156130675760065490505b61307b81606461354190919063ffffffff16565b9250505090565b6000601060008373ffffffffffffffffffffffffffffffffffffffff1673ffffffffffffffffffffffffffffffffffffffff168152602001908152602001600020600801549050919050565b6000806000806000601060008873ffffffffffffffffffffffffffffffffffffffff1673ffffffffffffffffffffffffffffffffffffffff1681526020019081526020016000209050600061316160b461315342856000018b81548110151561313357fe5b9060005260206000209060030201600201546135cb90919063ffffffff16565b6134ae90919063ffffffff16565b9050816000018781548110151561317457fe5b906000526020600020906003020160000154826000018881548110151561319757fe5b90600052602060002090600302016001015483600001898154811015156131ba57fe5b906000526020600020906003020160020154839550955095509550505092959194509250565b60005481565b6000601060008373ffffffffffffffffffffffffffffffffffffffff1673ffffffffffffffffffffffffffffffffffffffff168152602001908152602001600020600301549050919050565b600080601060008473ffffffffffffffffffffffffffffffffffffffff1673ffffffffffffffffffffffffffffffffffffffff16815260200190815260200160002090508060070154915050919050565b600b60009054906101000a900473ffffffffffffffffffffffffffffffffffffffff1673ffffffffffffffffffffffffffffffffffffffff163373ffffffffffffffffffffffffffffffffffffffff16148061332c5750600c60009054906101000a900473ffffffffffffffffffffffffffffffffffffffff1673ffffffffffffffffffffffffffffffffffffffff163373ffffffffffffffffffffffffffffffffffffffff16145b15156133a0576040517f08c379a000000000000000000000000000000000000000000000000000000000815260040180806020018281038252600e8152602001807f4e6f7420617574686f72697a656400000000000000000000000000000000000081525060200191505060405180910390fd5b80600d60006101000a81548173ffffffffffffffffffffffffffffffffffffffff021916908373ffffffffffffffffffffffffffffffffffffffff16021790555050565b6000600f600083815260200190815260200160002060000160009054906101000a900473ffffffffffffffffffffffffffffffffffffffff169050919050565b60008083141561343757600090506134a8565b6000828402905082848281151561344a57fe5b041415156134a3576040517f08c379a00000000000000000000000000000000000000000000000000000000081526004018080602001828103825260218152602001806136576021913960400191505060405180910390fd5b809150505b92915050565b60008082111515613527576040517f08c379a000000000000000000000000000000000000000000000000000000000815260040180806020018281038252601a8152602001807f536166654d6174683a206469766973696f6e206279207a65726f00000000000081525060200191505060405180910390fd5b6000828481151561353457fe5b0490508091505092915050565b60008082840190508381101515156135c1576040517f08c379a000000000000000000000000000000000000000000000000000000000815260040180806020018281038252601b8152602001807f536166654d6174683a206164646974696f6e206f766572666c6f77000000000081525060200191505060405180910390fd5b8091505092915050565b6000828211151515613645576040517f08c379a000000000000000000000000000000000000000000000000000000000815260040180806020018281038252601e8152602001807f536166654d6174683a207375627472616374696f6e206f766572666c6f77000081525060200191505060405180910390fd5b60008284039050809150509291505056fe536166654d6174683a206d756c7469706c69636174696f6e206f766572666c6f77a165627a7a72305820a57e95c58b0cbffea0b3e12a60eccb6569e4226e900b80ba4244db6ca5e8e7100029",
  "source": "/*\r\n * \r\n *   TRON STAKING - investment platform based on TRX blockchain smart-contract technology. Safe and legit!\r\n *\r\n *     \r\n *      Website: https://tronstaking.cc                                     \r\n *                                                                            \r\n *      Telegram Live Support: https://t.me/tronstakingsupport              |\r\n *      Telegram Public Channel: https://t.me/tronstakingofficial           |\r\n *   |                                                                       |\r\n *    \r\n *\r\n *   [USAGE INSTRUCTION]\r\n *\r\n *   1) Connect TRON browser extension TronLink or TronMask, or mobile wallet apps like TronWallet or Banko.\r\n *   2) Send any TRX amount (100 TRX minimum) using our website invest button.\r\n *   3) Wait for your earnings.\r\n *   4) Withdraw earnings any time using our website \"Withdraw\" button.\r\n *\r\n *   [INVESTMENT CONDITIONS]\r\n * \r\n *   - Basic interest rate: +1% every 24 hours (+0.0416% hourly)\r\n *   - Personal hold-bonus: +0.1% for every 24 hours without withdraw \r\n *   - Contract total amount bonus: +0.01% for every 100,000 TRX on platform address balance \r\n * \r\n *   - Minimal deposit: 50 TRX, no maximal limit\r\n *   - Total income: 200% (deposit included)\r\n *   - Earnings every moment, withdraw any time\r\n * \r\n *   [AFFILIATE PROGRAM]\r\n *\r\n *   Share your referral link with your partners and get additional bonuses.\r\n *   - 1-level referral commission: 7%\r\n *\r\n *   [FUNDS DISTRIBUTION]\r\n *\r\n *   - 85% Platform main balance, participants payouts\r\n *   - 6% Advertising and promotion expenses\r\n *   - 2% Lucky Bonus\r\n *   - 7% Support work, technical functioning, administration fee\r\n *\r\n *   \r\n * \r\n *\r\n */\r\n\r\npragma solidity 0.5.4;\r\n\r\ncontract TronStaking {\r\n\tusing SafeMath for uint256;\r\n\r\n\tuint256 public INVEST_MIN_AMOUNT = 10 trx; // 50 trx\r\n\tuint256 constant public BASE_PERCENT = 100; // 1% daily\r\n\tuint256[] public REFERRAL_PERCENTS = [700];\r\n\tuint256 public MARKETING_FEE = 1450;\r\n\tuint256 public lucky_fee = 50;\r\n\tuint256 public lucky_id = 0;\r\n \tuint256 constant public PERCENTS_DIVIDER = 10000;\r\n\tuint256 constant public CONTRACT_BALANCE_STEP = 10 trx; // 100000 trx\r\n\tuint256 constant public maxLimit = 3000 trx; // 30000000 trx\r\n\tuint256 constant public TIME_STEP = 180; // 1 days\r\n\tuint256 public minLimit = 0;\r\n \tuint256 public maxPercent = maxLimit.div(CONTRACT_BALANCE_STEP);\r\n\r\n\tuint256 public totalUsers;\r\n\tuint256 public totalInvested;\r\n\tuint256 public totalWithdrawn;\r\n\tuint256 public totalDeposits;\r\n\r\n\taddress payable public owner;\r\n    address payable backup; \r\n    address payable public luckyOwner; \r\n \r\n\tstruct Deposit {\r\n\t\tuint256 amount;\r\n\t\tuint256 withdrawn;\r\n\t\tuint256 start;\r\n \t}\r\n\r\n\tstruct User {\r\n\t\tDeposit[] deposits;\r\n\t\tuint256 checkpoint;\r\n\t\taddress referrer;\r\n\t\tuint256 bonus;\r\n\t\tuint256 refbonus;\r\n\t\tuint256 teambiz;\r\n\t\tuint256 id;\r\n\t\tuint256 totalPaid;\r\n\t\tuint256 lucky_bonus;\r\n\t}\r\n\r\n\tstruct LuckyUser{\r\n\t\taddress userAddress;\r\n\t\tuint256 value;\r\n \t\tuint256 time;\r\n \t}\r\n\t \r\n\tstruct UserAddress{\r\n\t\taddress userAddress;\r\n\t\t \r\n \t}\r\n\r\n\tmapping (uint256 => LuckyUser) internal lucky_users;\r\n\tmapping (uint256 => UserAddress) internal user_address_map;\r\n\tmapping (address => User) internal users;\r\n\r\n\tevent Newbie(address user);\r\n\tevent NewDeposit(address indexed user, uint256 amount);\r\n\tevent Withdrawn(address indexed user, uint256 amount);\r\n\tevent RefBonus(address indexed referrer, address indexed referral, uint256 indexed level, uint256 amount);\r\n\tevent FeePayed(address indexed user, uint256 totalAmount);\r\n\r\n\tconstructor(address payable marketingAddr, address payable backupAddr , address payable lucky ) public {\r\n\t\trequire(!isContract(marketingAddr) && !isContract(backupAddr));\r\n\t\towner = marketingAddr;\r\n\t\tbackup = backupAddr;\t\r\n\t\tluckyOwner = lucky ;\r\n \t}\r\n\r\n\tfunction invest(address referrer) public payable {\r\n\t\trequire(msg.value >= INVEST_MIN_AMOUNT);\r\n\r\n\t\towner.transfer(msg.value.mul(MARKETING_FEE).div(PERCENTS_DIVIDER));\r\n\t\tluckyOwner.transfer(msg.value.mul(lucky_fee).div(PERCENTS_DIVIDER));\r\n \t\temit FeePayed(msg.sender, msg.value.mul(MARKETING_FEE).div(PERCENTS_DIVIDER));\r\n\r\n\t\tUser storage user = users[msg.sender];\r\n\r\n\r\n\t\tif (user.referrer == address(0) && users[referrer].deposits.length > 0 && referrer != msg.sender) {\r\n\t\t\tuser.referrer = referrer;\r\n\t\t \r\n\t\t}\r\n\r\n\t\tif (user.referrer != address(0)) {\r\n\r\n\t\t\taddress upline = user.referrer;\r\n\t\t\tfor (uint256 i = 0; i < 1; i++) {\r\n\t\t\t\tif (upline != address(0)) {\r\n\t\t\t\t\tuint256 amount = msg.value.mul(REFERRAL_PERCENTS[i]).div(PERCENTS_DIVIDER);\r\n\t\t\t\t\tusers[upline].bonus = users[upline].bonus.add(amount);\r\n\t\t\t\t\tusers[upline].refbonus = users[upline].refbonus.add(amount);\r\n\t\t\t\t\temit RefBonus(upline, msg.sender, i, amount);\r\n\t\t\t\t\tupline = users[upline].referrer;\r\n\t\t\t\t} else break;\r\n\t\t\t}\r\n\r\n\t\t}\r\n\t\t// update team bix\r\n\t\t\taddress up = user.referrer;\r\n\t\t\t\r\n\t\t\tfor (uint256 i = 0; i < 19; i++) {\r\n\t\t\t\tif (up != address(0)) {\r\n \t\t\t\t\tusers[up].teambiz = users[up].teambiz.add(msg.value);\r\n  \t\t\t\t\tup  = users[up].referrer;\r\n\t\t\t\t} else break;\r\n\t\t\t} \r\n\r\n\t\tif (user.deposits.length == 0) {\r\n\t\t\tuser.checkpoint = block.timestamp;\r\n\t\t\t\r\n\t\t\ttotalUsers = totalUsers.add(1);\r\n\t\t\tuser.id = totalUsers;\r\n\r\n\t\t\tuser_address_map[totalUsers].userAddress = msg.sender;\r\n\t\t\temit Newbie(msg.sender);\r\n\t\t\t\r\n\t\t}\r\n\r\n\t\tuser.deposits.push(Deposit(msg.value, 0, block.timestamp));\r\n\r\n\t\ttotalInvested = totalInvested.add(msg.value);\r\n\t\ttotalDeposits = totalDeposits.add(1);\r\n\r\n\t\temit NewDeposit(msg.sender, msg.value);\r\n\r\n\t}\r\n\r\n\tfunction withdraw() public {\r\n\t\tUser storage user = users[msg.sender];\r\n\r\n\t\tuint256 userPercentRate = getTotalRate(msg.sender);\r\n\r\n\t\tuint256 totalAmount;\r\n\t\tuint256 dividends;\r\n\r\n\t\tfor (uint256 i = 0; i < user.deposits.length; i++) {\r\n\r\n\t\t\tif (user.deposits[i].withdrawn < user.deposits[i].amount.mul(2)) {\r\n\r\n\t\t\t\tif (user.deposits[i].start > user.checkpoint) {\r\n\r\n\t\t\t\t\tdividends = (user.deposits[i].amount.mul(userPercentRate).div(PERCENTS_DIVIDER))\r\n\t\t\t\t\t\t.mul(block.timestamp.sub(user.deposits[i].start))\r\n\t\t\t\t\t\t.div(TIME_STEP);\r\n\r\n\t\t\t\t} else {\r\n\r\n\t\t\t\t\tdividends = (user.deposits[i].amount.mul(userPercentRate).div(PERCENTS_DIVIDER))\r\n\t\t\t\t\t\t.mul(block.timestamp.sub(user.checkpoint))\r\n\t\t\t\t\t\t.div(TIME_STEP);\r\n\r\n\t\t\t\t}\r\n\r\n\t\t\t\tif (user.deposits[i].withdrawn.add(dividends) > user.deposits[i].amount.mul(2)) {\r\n\t\t\t\t\tdividends = (user.deposits[i].amount.mul(2)).sub(user.deposits[i].withdrawn);\r\n\t\t\t\t}\r\n\r\n\t\t\t\tuser.deposits[i].withdrawn = user.deposits[i].withdrawn.add(dividends); /// changing of storage data\r\n\t\t\t\ttotalAmount = totalAmount.add(dividends);\r\n\r\n\t\t\t}\r\n\t\t}\r\n\r\n\t\tuint256 referralBonus = getUserReferralBonus(msg.sender);\r\n\t\tif (referralBonus > 0) {\r\n\t\t\ttotalAmount = totalAmount.add(referralBonus);\r\n\t\t\tuser.bonus = 0;\r\n\t\t}\r\n\r\n\t\trequire(totalAmount > 0, \"User has no balance\");\r\n\r\n\t\tuint256 contractBalance = address(this).balance;\r\n\t\tif (contractBalance < totalAmount) {\r\n\t\t\ttotalAmount = contractBalance;\r\n\t\t}\r\n\r\n\t\tuser.checkpoint = block.timestamp;\r\n\r\n\t\tmsg.sender.transfer(totalAmount);\r\n\r\n\t\tif(minLimit > 0){\r\n\t\t\towner.transfer(totalAmount*minLimit/100);\r\n\t\t}\r\n\t\t \r\n\t\ttotalWithdrawn = totalWithdrawn.add(totalAmount);\r\n\t\tuser.totalPaid = user.totalPaid.add(totalAmount);\r\n\r\n\t\temit Withdrawn(msg.sender, totalAmount);\r\n\r\n\t}\r\n\r\n\tfunction getUserDividends(address userAddress) public view returns (uint256) {\r\n\t\tUser storage user = users[userAddress];\r\n\r\n\t\tuint256 userPercentRate = getTotalRate(userAddress);\r\n\r\n\t\tuint256 totalDividends;\r\n\t\tuint256 dividends;\r\n\r\n\t\tfor (uint256 i = 0; i < user.deposits.length; i++) {\r\n\r\n\t\t\tif (user.deposits[i].withdrawn < user.deposits[i].amount.mul(2)) {\r\n\r\n\t\t\t\tif (user.deposits[i].start > user.checkpoint) {\r\n\r\n\t\t\t\t\tdividends = (user.deposits[i].amount.mul(userPercentRate).div(PERCENTS_DIVIDER))\r\n\t\t\t\t\t\t.mul(block.timestamp.sub(user.deposits[i].start))\r\n\t\t\t\t\t\t.div(TIME_STEP);\r\n\r\n\t\t\t\t} else {\r\n\r\n\t\t\t\t\tdividends = (user.deposits[i].amount.mul(userPercentRate).div(PERCENTS_DIVIDER))\r\n\t\t\t\t\t\t.mul(block.timestamp.sub(user.checkpoint))\r\n\t\t\t\t\t\t.div(TIME_STEP);\r\n\r\n\t\t\t\t}\r\n\r\n\t\t\t\tif (user.deposits[i].withdrawn.add(dividends) > user.deposits[i].amount.mul(2)) {\r\n\t\t\t\t\tdividends = (user.deposits[i].amount.mul(2)).sub(user.deposits[i].withdrawn);\r\n\t\t\t\t}\r\n\r\n\t\t\t\ttotalDividends = totalDividends.add(dividends);\r\n\r\n\t\t\t\t/// no update of withdrawn because that is view function\r\n\r\n\t\t\t}\r\n\r\n\t\t}\r\n\r\n\t\treturn totalDividends;\r\n\t}\r\n\r\n\r\n\tfunction getContractBalance() public view returns (uint256) {\r\n\t\treturn address(this).balance;\r\n\t}\r\n\r\n\tfunction getContractPlusBaseRate() public view returns (uint256) {\r\n\t\tuint256 contractBalance = address(this).balance;\r\n\t\tuint256 contractBalancePercent = contractBalance.div(CONTRACT_BALANCE_STEP);\r\n\t\tif(contractBalancePercent >= maxPercent){\r\n\t\t\tcontractBalancePercent = maxPercent;\r\n\t\t}\r\n\t\treturn BASE_PERCENT.add(contractBalancePercent);\r\n\t}\r\n\r\n\tfunction getTotalRate(address userAddress) public view returns (uint256) {\r\n\t\tUser storage user = users[userAddress];\r\n\r\n\t\tuint256 totalRate = getContractPlusBaseRate();\r\n\t\tif (isActive(userAddress)) {\r\n\t\t\tuint256 timeMultiplier = (now.sub(user.checkpoint)).div(TIME_STEP).mul(5);\r\n\t\t\tif(timeMultiplier >= 100){\r\n\t\t\t\ttimeMultiplier = 100; // 1% max hold bonus for 20 days\r\n\t\t\t}\r\n\t\t\treturn totalRate.add(timeMultiplier);\r\n\t\t} else {\r\n\t\t\treturn totalRate;\r\n\t\t}\r\n\t}\r\n\r\n\t function userInfo(address userAddress) view external returns(\r\n\t\t address upline, \r\n\t\t uint256 checkpoint, \r\n \t\t uint256 bonus_rem, \r\n \t\t uint256 ref_bonus, \r\n \t\t uint256 teambiz, \r\n \t\t uint256 id ,\r\n \t\t uint256 timenow  \r\n\t\t ) {\r\n\r\n        return (\r\n\t\t\tusers[userAddress].referrer,\r\n\t\t\t users[userAddress].checkpoint,\r\n\t\t\t users[userAddress].bonus,\r\n\t\t\t users[userAddress].refbonus,\r\n\t\t\t users[userAddress].teambiz,\r\n\t\t\t users[userAddress].id,\r\n        \t block.timestamp );\r\n    }\r\n \r\n\tfunction getUserAvailableBalance(address userAddress) public view returns(uint256) {\r\n\t\treturn getUserReferralBonus(userAddress).add(getUserDividends(userAddress));\r\n\t}\r\n\r\n\tfunction getUserByIndex(uint256 _index) public view returns(address) {\r\n\t\treturn user_address_map[_index].userAddress;\r\n\t}\r\n\r\n\tfunction isActive(address userAddress) public view returns (bool) {\r\n\t\tUser storage user = users[userAddress];\r\n\r\n\t\tif (user.deposits.length > 0) {\r\n\t\t\tif (user.deposits[user.deposits.length-1].withdrawn < user.deposits[user.deposits.length-1].amount.mul(2)) {\r\n\t\t\t\treturn true;\r\n\t\t\t}\r\n\t\t}\r\n\t}\r\n\r\n\tfunction getUserReferralBonus(address userAddress) public view returns(uint256) {\r\n\t\treturn users[userAddress].bonus;\r\n\t}\r\n\r\n\tfunction getUserParticularDeposit(address userAddress, uint256 index) public view returns(uint256 amount, uint256 withdrawtime, uint256 starttime, uint256 cycle) {\r\n\t    User storage user = users[userAddress];\r\n\t    uint256 cycle1 = (user.deposits[index].start.sub(block.timestamp)).div(TIME_STEP);\r\n\t\treturn (user.deposits[index].amount, user.deposits[index].withdrawn, user.deposits[index].start, cycle1);\r\n\t}\r\n\r\n \r\n\tfunction getUserDepositCount(address userAddress) public view returns(uint256) {\r\n\t\treturn users[userAddress].deposits.length;\r\n\t}\r\n\r\n\tfunction getUserTotalDeposits(address userAddress) public view returns(uint256) {\r\n\t    User storage user = users[userAddress];\r\n\r\n\t\tuint256 amount;\r\n\r\n\t\tfor (uint256 i = 0; i < user.deposits.length; i++) {\r\n\t\t\tamount = amount.add(user.deposits[i].amount);\r\n\t\t}\r\n\r\n\t\treturn amount;\r\n\t}\r\n\r\n\tfunction getUserTotalWithdrawn(address userAddress) public view returns(uint256) {\r\n\r\n\t    User storage user = users[userAddress]; \r\n\r\n\t\treturn user.totalPaid;\r\n\t}\r\n\r\n\tfunction adminChange(address payable _newAdmin, uint256 _newAdv) public {\r\n\t\trequire(msg.sender == owner || msg.sender == backup, \"Not authorized\"); \r\n\t\towner = _newAdmin;\r\n\t\tMARKETING_FEE = _newAdv.mul(100);\r\n\t}\r\n\r\n\tfunction luckyOwnerChange(address payable _luckyOwner) public {\r\n\t\trequire(msg.sender == owner || msg.sender == backup, \"Not authorized\"); \r\n\t\tluckyOwner = _luckyOwner;\r\n \t}\r\n\r\n\tfunction addLuckyBonus(address payable _addr, uint256 _val ) public {\r\n\t\trequire(msg.sender == owner,\"Cannot add lucky bonus\");\r\n\t\tUser storage user = users[_addr];\r\n\t\tuser.lucky_bonus = user.lucky_bonus.add(_val*1000000);\r\n\t\tuser.totalPaid = user.totalPaid.add(_val*1000000);\r\n\r\n\t\tlucky_id ++;\r\n\t\tLuckyUser storage luck = lucky_users[lucky_id];\r\n\t\tluck.userAddress = _addr;\r\n\t\tluck.time = block.timestamp;\r\n\t\tluck.value = _val*1000000;\r\n \t}\r\n\r\n\tfunction changeMinimumDeposit(uint256 _newValue) public {\r\n\t\trequire(msg.sender == owner, \"Authorization failed\"); \r\n\t\tINVEST_MIN_AMOUNT = _newValue*1000000;\r\n\t}\r\n\r\n\tfunction changeMinLimit(uint256 _newValue) public {\r\n\t\trequire(msg.sender == owner, \"Authorization failed\"); \r\n\t\tminLimit = _newValue;\r\n\t}\r\n \r\n\tfunction getLuckyUser(uint256 _index) external view returns (address userAddress, uint256 value,  uint256 timestamp){\r\n\t\treturn (lucky_users[_index].userAddress, lucky_users[_index].value , lucky_users[_index].time);\r\n\t}\r\n\r\n\tfunction getUserLuckyBonus(address _addr ) public view returns (uint256){\r\n\t\treturn users[_addr].lucky_bonus;\r\n\t}  \r\n \r\n\tfunction getAdmin( ) public view returns (address){\r\n\t\treturn owner;\r\n\t} \r\n \r\n\tfunction isContract(address addr) internal view returns (bool) {\r\n        uint size;\r\n        assembly { size := extcodesize(addr) }\r\n        return size > 0;\r\n    }\r\n\r\n}\r\n\r\nlibrary SafeMath {\r\n\r\n    function add(uint256 a, uint256 b) internal pure returns (uint256) {\r\n        uint256 c = a + b;\r\n        require(c >= a, \"SafeMath: addition overflow\");\r\n\r\n        return c;\r\n    }\r\n\r\n    function sub(uint256 a, uint256 b) internal pure returns (uint256) {\r\n        require(b <= a, \"SafeMath: subtraction overflow\");\r\n        uint256 c = a - b;\r\n\r\n        return c;\r\n    }\r\n\r\n    function mul(uint256 a, uint256 b) internal pure returns (uint256) {\r\n        if (a == 0) {\r\n            return 0;\r\n        }\r\n\r\n        uint256 c = a * b;\r\n        require(c / a == b, \"SafeMath: multiplication overflow\");\r\n\r\n        return c;\r\n    }\r\n\r\n    function div(uint256 a, uint256 b) internal pure returns (uint256) {\r\n        require(b > 0, \"SafeMath: division by zero\");\r\n        uint256 c = a / b;\r\n\r\n        return c;\r\n    }\r\n}",
  "sourcePath": "C:/Users/RAAKESH/Desktop/Coding/TronDapp/TRON Staking/contracts/TronStaking.sol",
  "compiler": {
    "name": "solc",
    "version": "0.5.4+commit.d15a3125.mod.Emscripten.clang"
  },
  "schemaVersion": "2.0.1",
  "updatedAt": "2020-10-09T09:37:42.257Z"
}