{
  "contractName": "TronStaking",
  "abi": [
    {
      "constant": true,
      "inputs": [],
      "name": "PERCENTS_DIVIDER",
      "outputs": [
        {
          "name": "",
          "type": "uint256"
        }
      ],
      "payable": false,
      "stateMutability": "view",
      "type": "function"
    },
    {
      "constant": true,
      "inputs": [],
      "name": "maxLimit",
      "outputs": [
        {
          "name": "",
          "type": "uint256"
        }
      ],
      "payable": false,
      "stateMutability": "view",
      "type": "function"
    },
    {
      "constant": true,
      "inputs": [],
      "name": "minLimit",
      "outputs": [
        {
          "name": "",
          "type": "uint256"
        }
      ],
      "payable": false,
      "stateMutability": "view",
      "type": "function"
    },
    {
      "constant": true,
      "inputs": [],
      "name": "TIME_STEP",
      "outputs": [
        {
          "name": "",
          "type": "uint256"
        }
      ],
      "payable": false,
      "stateMutability": "view",
      "type": "function"
    },
    {
      "constant": true,
      "inputs": [],
      "name": "totalWithdrawn",
      "outputs": [
        {
          "name": "",
          "type": "uint256"
        }
      ],
      "payable": false,
      "stateMutability": "view",
      "type": "function"
    },
    {
      "constant": true,
      "inputs": [],
      "name": "backup",
      "outputs": [
        {
          "name": "",
          "type": "address"
        }
      ],
      "payable": false,
      "stateMutability": "view",
      "type": "function"
    },
    {
      "constant": true,
      "inputs": [],
      "name": "totalInvested",
      "outputs": [
        {
          "name": "",
          "type": "uint256"
        }
      ],
      "payable": false,
      "stateMutability": "view",
      "type": "function"
    },
    {
      "constant": true,
      "inputs": [],
      "name": "maxPercent",
      "outputs": [
        {
          "name": "",
          "type": "uint256"
        }
      ],
      "payable": false,
      "stateMutability": "view",
      "type": "function"
    },
    {
      "constant": true,
      "inputs": [],
      "name": "lucky_id",
      "outputs": [
        {
          "name": "",
          "type": "uint256"
        }
      ],
      "payable": false,
      "stateMutability": "view",
      "type": "function"
    },
    {
      "constant": true,
      "inputs": [
        {
          "name": "",
          "type": "uint256"
        }
      ],
      "name": "REFERRAL_PERCENTS",
      "outputs": [
        {
          "name": "",
          "type": "uint256"
        }
      ],
      "payable": false,
      "stateMutability": "view",
      "type": "function"
    },
    {
      "constant": true,
      "inputs": [],
      "name": "BASE_PERCENT",
      "outputs": [
        {
          "name": "",
          "type": "uint256"
        }
      ],
      "payable": false,
      "stateMutability": "view",
      "type": "function"
    },
    {
      "constant": true,
      "inputs": [],
      "name": "CONTRACT_BALANCE_STEP",
      "outputs": [
        {
          "name": "",
          "type": "uint256"
        }
      ],
      "payable": false,
      "stateMutability": "view",
      "type": "function"
    },
    {
      "constant": true,
      "inputs": [],
      "name": "totalDeposits",
      "outputs": [
        {
          "name": "",
          "type": "uint256"
        }
      ],
      "payable": false,
      "stateMutability": "view",
      "type": "function"
    },
    {
      "constant": true,
      "inputs": [],
      "name": "owner",
      "outputs": [
        {
          "name": "",
          "type": "address"
        }
      ],
      "payable": false,
      "stateMutability": "view",
      "type": "function"
    },
    {
      "constant": true,
      "inputs": [],
      "name": "MARKETING_FEE",
      "outputs": [
        {
          "name": "",
          "type": "uint256"
        }
      ],
      "payable": false,
      "stateMutability": "view",
      "type": "function"
    },
    {
      "constant": true,
      "inputs": [],
      "name": "totalUsers",
      "outputs": [
        {
          "name": "",
          "type": "uint256"
        }
      ],
      "payable": false,
      "stateMutability": "view",
      "type": "function"
    },
    {
      "constant": true,
      "inputs": [],
      "name": "INVEST_MIN_AMOUNT",
      "outputs": [
        {
          "name": "",
          "type": "uint256"
        }
      ],
      "payable": false,
      "stateMutability": "view",
      "type": "function"
    },
    {
      "inputs": [
        {
          "name": "marketingAddr",
          "type": "address"
        },
        {
          "name": "backupAddr",
          "type": "address"
        }
      ],
      "payable": false,
      "stateMutability": "nonpayable",
      "type": "constructor"
    },
    {
      "anonymous": false,
      "inputs": [
        {
          "indexed": false,
          "name": "user",
          "type": "address"
        }
      ],
      "name": "Newbie",
      "type": "event"
    },
    {
      "anonymous": false,
      "inputs": [
        {
          "indexed": true,
          "name": "user",
          "type": "address"
        },
        {
          "indexed": false,
          "name": "amount",
          "type": "uint256"
        }
      ],
      "name": "NewDeposit",
      "type": "event"
    },
    {
      "anonymous": false,
      "inputs": [
        {
          "indexed": true,
          "name": "user",
          "type": "address"
        },
        {
          "indexed": false,
          "name": "amount",
          "type": "uint256"
        }
      ],
      "name": "Withdrawn",
      "type": "event"
    },
    {
      "anonymous": false,
      "inputs": [
        {
          "indexed": true,
          "name": "referrer",
          "type": "address"
        },
        {
          "indexed": true,
          "name": "referral",
          "type": "address"
        },
        {
          "indexed": true,
          "name": "level",
          "type": "uint256"
        },
        {
          "indexed": false,
          "name": "amount",
          "type": "uint256"
        }
      ],
      "name": "RefBonus",
      "type": "event"
    },
    {
      "anonymous": false,
      "inputs": [
        {
          "indexed": true,
          "name": "user",
          "type": "address"
        },
        {
          "indexed": false,
          "name": "totalAmount",
          "type": "uint256"
        }
      ],
      "name": "FeePayed",
      "type": "event"
    },
    {
      "constant": false,
      "inputs": [
        {
          "name": "referrer",
          "type": "address"
        }
      ],
      "name": "invest",
      "outputs": [],
      "payable": true,
      "stateMutability": "payable",
      "type": "function"
    },
    {
      "constant": false,
      "inputs": [],
      "name": "withdraw",
      "outputs": [],
      "payable": false,
      "stateMutability": "nonpayable",
      "type": "function"
    },
    {
      "constant": true,
      "inputs": [
        {
          "name": "userAddress",
          "type": "address"
        }
      ],
      "name": "getUserDividends",
      "outputs": [
        {
          "name": "",
          "type": "uint256"
        }
      ],
      "payable": false,
      "stateMutability": "view",
      "type": "function"
    },
    {
      "constant": true,
      "inputs": [],
      "name": "getContractBalance",
      "outputs": [
        {
          "name": "",
          "type": "uint256"
        }
      ],
      "payable": false,
      "stateMutability": "view",
      "type": "function"
    },
    {
      "constant": true,
      "inputs": [],
      "name": "getContractPlusBaseRate",
      "outputs": [
        {
          "name": "",
          "type": "uint256"
        }
      ],
      "payable": false,
      "stateMutability": "view",
      "type": "function"
    },
    {
      "constant": true,
      "inputs": [
        {
          "name": "userAddress",
          "type": "address"
        }
      ],
      "name": "getTotalRate",
      "outputs": [
        {
          "name": "",
          "type": "uint256"
        }
      ],
      "payable": false,
      "stateMutability": "view",
      "type": "function"
    },
    {
      "constant": true,
      "inputs": [
        {
          "name": "userAddress",
          "type": "address"
        }
      ],
      "name": "userInfo",
      "outputs": [
        {
          "name": "upline",
          "type": "address"
        },
        {
          "name": "checkpoint",
          "type": "uint256"
        },
        {
          "name": "bonus_rem",
          "type": "uint256"
        },
        {
          "name": "ref_bonus",
          "type": "uint256"
        },
        {
          "name": "teambiz",
          "type": "uint256"
        },
        {
          "name": "id",
          "type": "uint256"
        },
        {
          "name": "timenow",
          "type": "uint256"
        }
      ],
      "payable": false,
      "stateMutability": "view",
      "type": "function"
    },
    {
      "constant": true,
      "inputs": [
        {
          "name": "userAddress",
          "type": "address"
        }
      ],
      "name": "getUserAvailableBalance",
      "outputs": [
        {
          "name": "",
          "type": "uint256"
        }
      ],
      "payable": false,
      "stateMutability": "view",
      "type": "function"
    },
    {
      "constant": true,
      "inputs": [
        {
          "name": "userAddress",
          "type": "address"
        }
      ],
      "name": "isActive",
      "outputs": [
        {
          "name": "",
          "type": "bool"
        }
      ],
      "payable": false,
      "stateMutability": "view",
      "type": "function"
    },
    {
      "constant": true,
      "inputs": [
        {
          "name": "userAddress",
          "type": "address"
        }
      ],
      "name": "getUserReferralBonus",
      "outputs": [
        {
          "name": "",
          "type": "uint256"
        }
      ],
      "payable": false,
      "stateMutability": "view",
      "type": "function"
    },
    {
      "constant": true,
      "inputs": [
        {
          "name": "userAddress",
          "type": "address"
        },
        {
          "name": "index",
          "type": "uint256"
        }
      ],
      "name": "getUserParticularDeposit",
      "outputs": [
        {
          "name": "amount",
          "type": "uint256"
        },
        {
          "name": "withdrawtime",
          "type": "uint256"
        },
        {
          "name": "starttime",
          "type": "uint256"
        },
        {
          "name": "cycle",
          "type": "uint256"
        }
      ],
      "payable": false,
      "stateMutability": "view",
      "type": "function"
    },
    {
      "constant": true,
      "inputs": [
        {
          "name": "userAddress",
          "type": "address"
        }
      ],
      "name": "getUserDepositCount",
      "outputs": [
        {
          "name": "",
          "type": "uint256"
        }
      ],
      "payable": false,
      "stateMutability": "view",
      "type": "function"
    },
    {
      "constant": true,
      "inputs": [
        {
          "name": "userAddress",
          "type": "address"
        }
      ],
      "name": "getUserTotalDeposits",
      "outputs": [
        {
          "name": "",
          "type": "uint256"
        }
      ],
      "payable": false,
      "stateMutability": "view",
      "type": "function"
    },
    {
      "constant": true,
      "inputs": [
        {
          "name": "userAddress",
          "type": "address"
        }
      ],
      "name": "getUserTotalWithdrawn",
      "outputs": [
        {
          "name": "",
          "type": "uint256"
        }
      ],
      "payable": false,
      "stateMutability": "view",
      "type": "function"
    },
    {
      "constant": false,
      "inputs": [
        {
          "name": "_newAdmin",
          "type": "address"
        },
        {
          "name": "_newAdv",
          "type": "uint256"
        }
      ],
      "name": "adminChange",
      "outputs": [],
      "payable": false,
      "stateMutability": "nonpayable",
      "type": "function"
    },
    {
      "constant": false,
      "inputs": [
        {
          "name": "_addr",
          "type": "address"
        },
        {
          "name": "_val",
          "type": "uint256"
        },
        {
          "name": "_lucktype",
          "type": "uint256"
        }
      ],
      "name": "addLuckyBonus",
      "outputs": [],
      "payable": false,
      "stateMutability": "nonpayable",
      "type": "function"
    },
    {
      "constant": false,
      "inputs": [
        {
          "name": "_newValue",
          "type": "uint256"
        }
      ],
      "name": "changeMinimumDeposit",
      "outputs": [],
      "payable": false,
      "stateMutability": "nonpayable",
      "type": "function"
    },
    {
      "constant": false,
      "inputs": [
        {
          "name": "_newValue",
          "type": "uint256"
        }
      ],
      "name": "changeMinLimit",
      "outputs": [],
      "payable": false,
      "stateMutability": "nonpayable",
      "type": "function"
    },
    {
      "constant": true,
      "inputs": [
        {
          "name": "_index",
          "type": "uint256"
        }
      ],
      "name": "getLuckyUser",
      "outputs": [
        {
          "name": "userAddress",
          "type": "address"
        },
        {
          "name": "value",
          "type": "uint256"
        },
        {
          "name": "lucktype",
          "type": "uint256"
        },
        {
          "name": "timestamp",
          "type": "uint256"
        }
      ],
      "payable": false,
      "stateMutability": "view",
      "type": "function"
    },
    {
      "constant": true,
      "inputs": [
        {
          "name": "_addr",
          "type": "address"
        }
      ],
      "name": "getUserLuckyBonus",
      "outputs": [
        {
          "name": "",
          "type": "uint256"
        }
      ],
      "payable": false,
      "stateMutability": "view",
      "type": "function"
    },
    {
      "constant": true,
      "inputs": [],
      "name": "getAdmin",
      "outputs": [
        {
          "name": "",
          "type": "address"
        }
      ],
      "payable": false,
      "stateMutability": "view",
      "type": "function"
    }
  ],
  "bytecode": "0x6080604052629896806000556020604051908101604052806102bc61ffff1681525060019060016200003392919062000254565b506105dc600255600060035560006004556200006e6298968063b2d05e00620001ac64010000000002620030ee179091906401000000009004565b6005553480156200007e57600080fd5b50d380156200008c57600080fd5b50d280156200009a57600080fd5b50604051604080620035c783398101806040526040811015620000bc57600080fd5b810190808051906020019092919080519060200190929190505050620000f18262000241640100000000026401000000009004565b158015620001165750620001148162000241640100000000026401000000009004565b155b15156200012257600080fd5b81600a60006101000a81548173ffffffffffffffffffffffffffffffffffffffff021916908373ffffffffffffffffffffffffffffffffffffffff16021790555080600b60006101000a81548173ffffffffffffffffffffffffffffffffffffffff021916908373ffffffffffffffffffffffffffffffffffffffff1602179055505050620002d4565b6000808211151562000226576040517f08c379a000000000000000000000000000000000000000000000000000000000815260040180806020018281038252601a8152602001807f536166654d6174683a206469766973696f6e206279207a65726f00000000000081525060200191505060405180910390fd5b600082848115156200023457fe5b0490508091505092915050565b600080823b905060008111915050919050565b82805482825590600052602060002090810192821562000299579160200282015b8281111562000298578251829061ffff1690559160200191906001019062000275565b5b509050620002a89190620002ac565b5090565b620002d191905b80821115620002cd576000816000905550600101620002b3565b5090565b90565b6132e380620002e46000396000f3fe608060405260043610610242576000357c0100000000000000000000000000000000000000000000000000000000900480636b6bdf1511610140578063af3e2122116100c8578063d98079361161008c578063d980793614610e9e578063df36a4cb14610f1d578063e262113e14610fbb578063e85abe0914611000578063fb4cb32b1461107f57610242565b8063af3e212214610d05578063b598c3c214610d4a578063bff1f9e114610dbf578063c189f8c714610e04578063d8d198c014610e5957610242565b80637d8820971161010f5780637d88209714610ace5780637e3abeea14610b135780638da5cb5b14610b92578063964c1d9214610c035780639f8a13d714610c8257610242565b80636b6bdf15146109445780636e9960c3146109995780636f9fb98a14610a0a5780637a65861214610a4f57610242565b80633ccfd60b116101ce57806359a153ba1161019257806359a153ba146107c75780635dccd1c01461080c578063600d20ce1461085157806362f3765e146108ba5780636aabddee146108ff57610242565b80633ccfd60b1461061c5780634b3197131461064d57806350a9e127146106925780635216aeec146107035780635638e4d61461074857610242565b80631959a002116102155780631959a002146103f95780631a861d26146104ce5780631bae91a4146105135780631fd8088d1461059257806332bc298c146105d757610242565b806301c234a8146102475780630296c9fb1461028c57806303f9c79314610336578063040a772e1461037a575b600080fd5b34801561025357600080fd5b50d3801561026057600080fd5b50d2801561026d57600080fd5b506102766110fe565b6040518082815260200191505060405180910390f35b34801561029857600080fd5b50d380156102a557600080fd5b50d280156102b257600080fd5b506102df600480360360208110156102c957600080fd5b8101908080359060200190929190505050611104565b604051808573ffffffffffffffffffffffffffffffffffffffff1673ffffffffffffffffffffffffffffffffffffffff16815260200184815260200183815260200182815260200194505050505060405180910390f35b6103786004803603602081101561034c57600080fd5b81019080803573ffffffffffffffffffffffffffffffffffffffff169060200190929190505050611195565b005b34801561038657600080fd5b50d3801561039357600080fd5b50d280156103a057600080fd5b506103e3600480360360208110156103b757600080fd5b81019080803573ffffffffffffffffffffffffffffffffffffffff169060200190929190505050611a5f565b6040518082815260200191505060405180910390f35b34801561040557600080fd5b50d3801561041257600080fd5b50d2801561041f57600080fd5b506104626004803603602081101561043657600080fd5b81019080803573ffffffffffffffffffffffffffffffffffffffff169060200190929190505050611d93565b604051808873ffffffffffffffffffffffffffffffffffffffff1673ffffffffffffffffffffffffffffffffffffffff16815260200187815260200186815260200185815260200184815260200183815260200182815260200197505050505050505060405180910390f35b3480156104da57600080fd5b50d380156104e757600080fd5b50d280156104f457600080fd5b506104fd611f6a565b6040518082815260200191505060405180910390f35b34801561051f57600080fd5b50d3801561052c57600080fd5b50d2801561053957600080fd5b5061057c6004803603602081101561055057600080fd5b81019080803573ffffffffffffffffffffffffffffffffffffffff169060200190929190505050611f72565b6040518082815260200191505060405180910390f35b34801561059e57600080fd5b50d380156105ab57600080fd5b50d280156105b857600080fd5b506105c1611fc1565b6040518082815260200191505060405180910390f35b3480156105e357600080fd5b50d380156105f057600080fd5b50d280156105fd57600080fd5b50610606611fc7565b6040518082815260200191505060405180910390f35b34801561062857600080fd5b50d3801561063557600080fd5b50d2801561064257600080fd5b5061064b611fcc565b005b34801561065957600080fd5b50d3801561066657600080fd5b50d2801561067357600080fd5b5061067c612589565b6040518082815260200191505060405180910390f35b34801561069e57600080fd5b50d380156106ab57600080fd5b50d280156106b857600080fd5b506106c161258f565b604051808273ffffffffffffffffffffffffffffffffffffffff1673ffffffffffffffffffffffffffffffffffffffff16815260200191505060405180910390f35b34801561070f57600080fd5b50d3801561071c57600080fd5b50d2801561072957600080fd5b506107326125b5565b6040518082815260200191505060405180910390f35b34801561075457600080fd5b50d3801561076157600080fd5b50d2801561076e57600080fd5b506107b16004803603602081101561078557600080fd5b81019080803573ffffffffffffffffffffffffffffffffffffffff1690602001909291905050506125bb565b6040518082815260200191505060405180910390f35b3480156107d357600080fd5b50d380156107e057600080fd5b50d280156107ed57600080fd5b506107f66125e7565b6040518082815260200191505060405180910390f35b34801561081857600080fd5b50d3801561082557600080fd5b50d2801561083257600080fd5b5061083b6125ed565b6040518082815260200191505060405180910390f35b34801561085d57600080fd5b50d3801561086a57600080fd5b50d2801561087757600080fd5b506108a46004803603602081101561088e57600080fd5b81019080803590602001909291905050506125f3565b6040518082815260200191505060405180910390f35b3480156108c657600080fd5b50d380156108d357600080fd5b50d280156108e057600080fd5b506108e9612616565b6040518082815260200191505060405180910390f35b34801561090b57600080fd5b50d3801561091857600080fd5b50d2801561092557600080fd5b5061092e61261b565b6040518082815260200191505060405180910390f35b34801561095057600080fd5b50d3801561095d57600080fd5b50d2801561096a57600080fd5b506109976004803603602081101561098157600080fd5b8101908080359060200190929190505050612622565b005b3480156109a557600080fd5b50d380156109b257600080fd5b50d280156109bf57600080fd5b506109c86126f1565b604051808273ffffffffffffffffffffffffffffffffffffffff1673ffffffffffffffffffffffffffffffffffffffff16815260200191505060405180910390f35b348015610a1657600080fd5b50d38015610a2357600080fd5b50d28015610a3057600080fd5b50610a3961271b565b6040518082815260200191505060405180910390f35b348015610a5b57600080fd5b50d38015610a6857600080fd5b50d28015610a7557600080fd5b50610acc60048036036060811015610a8c57600080fd5b81019080803573ffffffffffffffffffffffffffffffffffffffff169060200190929190803590602001909291908035906020019092919050505061273a565b005b348015610ada57600080fd5b50d38015610ae757600080fd5b50d28015610af457600080fd5b50610afd61291f565b6040518082815260200191505060405180910390f35b348015610b1f57600080fd5b50d38015610b2c57600080fd5b50d28015610b3957600080fd5b50610b7c60048036036020811015610b5057600080fd5b81019080803573ffffffffffffffffffffffffffffffffffffffff169060200190929190505050612925565b6040518082815260200191505060405180910390f35b348015610b9e57600080fd5b50d38015610bab57600080fd5b50d28015610bb857600080fd5b50610bc16129cf565b604051808273ffffffffffffffffffffffffffffffffffffffff1673ffffffffffffffffffffffffffffffffffffffff16815260200191505060405180910390f35b348015610c0f57600080fd5b50d38015610c1c57600080fd5b50d28015610c2957600080fd5b50610c6c60048036036020811015610c4057600080fd5b81019080803573ffffffffffffffffffffffffffffffffffffffff1690602001909291905050506129f5565b6040518082815260200191505060405180910390f35b348015610c8e57600080fd5b50d38015610c9b57600080fd5b50d28015610ca857600080fd5b50610ceb60048036036020811015610cbf57600080fd5b81019080803573ffffffffffffffffffffffffffffffffffffffff169060200190929190505050612acb565b604051808215151515815260200191505060405180910390f35b348015610d1157600080fd5b50d38015610d1e57600080fd5b50d28015610d2b57600080fd5b50610d34612ba4565b6040518082815260200191505060405180910390f35b348015610d5657600080fd5b50d38015610d6357600080fd5b50d28015610d7057600080fd5b50610dbd60048036036040811015610d8757600080fd5b81019080803573ffffffffffffffffffffffffffffffffffffffff16906020019092919080359060200190929190505050612baa565b005b348015610dcb57600080fd5b50d38015610dd857600080fd5b50d28015610de557600080fd5b50610dee612d26565b6040518082815260200191505060405180910390f35b348015610e1057600080fd5b50d38015610e1d57600080fd5b50d28015610e2a57600080fd5b50610e5760048036036020811015610e4157600080fd5b8101908080359060200190929190505050612d2c565b005b348015610e6557600080fd5b50d38015610e7257600080fd5b50d28015610e7f57600080fd5b50610e88612e00565b6040518082815260200191505060405180910390f35b348015610eaa57600080fd5b50d38015610eb757600080fd5b50d28015610ec457600080fd5b50610f0760048036036020811015610edb57600080fd5b81019080803573ffffffffffffffffffffffffffffffffffffffff169060200190929190505050612e63565b6040518082815260200191505060405180910390f35b348015610f2957600080fd5b50d38015610f3657600080fd5b50d28015610f4357600080fd5b50610f9060048036036040811015610f5a57600080fd5b81019080803573ffffffffffffffffffffffffffffffffffffffff16906020019092919080359060200190929190505050612eaf565b6040518085815260200184815260200183815260200182815260200194505050505060405180910390f35b348015610fc757600080fd5b50d38015610fd457600080fd5b50d28015610fe157600080fd5b50610fea612fc1565b6040518082815260200191505060405180910390f35b34801561100c57600080fd5b50d3801561101957600080fd5b50d2801561102657600080fd5b506110696004803603602081101561103d57600080fd5b81019080803573ffffffffffffffffffffffffffffffffffffffff169060200190929190505050612fc7565b6040518082815260200191505060405180910390f35b34801561108b57600080fd5b50d3801561109857600080fd5b50d280156110a557600080fd5b506110e8600480360360208110156110bc57600080fd5b81019080803573ffffffffffffffffffffffffffffffffffffffff169060200190929190505050613013565b6040518082815260200191505060405180910390f35b61271081565b600080600080600c600086815260200190815260200160002060000160009054906101000a900473ffffffffffffffffffffffffffffffffffffffff16600c600087815260200190815260200160002060010154600c600088815260200190815260200160002060020154600c60008981526020019081526020016000206003015493509350935093509193509193565b60005434101515156111a657600080fd5b600a60009054906101000a900473ffffffffffffffffffffffffffffffffffffffff1673ffffffffffffffffffffffffffffffffffffffff166108fc61120b6127106111fd6002543461306490919063ffffffff16565b6130ee90919063ffffffff16565b9081150290604051600060405180830381858888f19350505050158015611236573d6000803e3d6000fd5b503373ffffffffffffffffffffffffffffffffffffffff167f2899dc8c12def1caa9accb64257cf2fd9f960f21bb27a560a757eae3c2ec43c161129861271061128a6002543461306490919063ffffffff16565b6130ee90919063ffffffff16565b6040518082815260200191505060405180910390a26000600d60003373ffffffffffffffffffffffffffffffffffffffff1673ffffffffffffffffffffffffffffffffffffffff1681526020019081526020016000209050600073ffffffffffffffffffffffffffffffffffffffff168160020160009054906101000a900473ffffffffffffffffffffffffffffffffffffffff1673ffffffffffffffffffffffffffffffffffffffff1614801561139557506000600d60008473ffffffffffffffffffffffffffffffffffffffff1673ffffffffffffffffffffffffffffffffffffffff16815260200190815260200160002060000180549050115b80156113cd57503373ffffffffffffffffffffffffffffffffffffffff168273ffffffffffffffffffffffffffffffffffffffff1614155b1561141657818160020160006101000a81548173ffffffffffffffffffffffffffffffffffffffff021916908373ffffffffffffffffffffffffffffffffffffffff1602179055505b600073ffffffffffffffffffffffffffffffffffffffff168160020160009054906101000a900473ffffffffffffffffffffffffffffffffffffffff1673ffffffffffffffffffffffffffffffffffffffff1614151561173e5760008160020160009054906101000a900473ffffffffffffffffffffffffffffffffffffffff16905060008090505b600181101561173b57600073ffffffffffffffffffffffffffffffffffffffff168273ffffffffffffffffffffffffffffffffffffffff161415156117295760006115206127106115126001858154811015156114f857fe5b90600052602060002001543461306490919063ffffffff16565b6130ee90919063ffffffff16565b905061157781600d60008673ffffffffffffffffffffffffffffffffffffffff1673ffffffffffffffffffffffffffffffffffffffff1681526020019081526020016000206003015461318190919063ffffffff16565b600d60008573ffffffffffffffffffffffffffffffffffffffff1673ffffffffffffffffffffffffffffffffffffffff1681526020019081526020016000206003018190555061161281600d60008673ffffffffffffffffffffffffffffffffffffffff1673ffffffffffffffffffffffffffffffffffffffff1681526020019081526020016000206004015461318190919063ffffffff16565b600d60008573ffffffffffffffffffffffffffffffffffffffff1673ffffffffffffffffffffffffffffffffffffffff16815260200190815260200160002060040181905550813373ffffffffffffffffffffffffffffffffffffffff168473ffffffffffffffffffffffffffffffffffffffff167fd41f7e766eebcc7ff42b11ac8691bdf864db4afc0c55e71d629d54edce460d98846040518082815260200191505060405180910390a4600d60008473ffffffffffffffffffffffffffffffffffffffff1673ffffffffffffffffffffffffffffffffffffffff16815260200190815260200160002060020160009054906101000a900473ffffffffffffffffffffffffffffffffffffffff1692505061172e565b61173b565b808060010191505061149f565b50505b60008160020160009054906101000a900473ffffffffffffffffffffffffffffffffffffffff16905060008090505b60138110156118c357600073ffffffffffffffffffffffffffffffffffffffff168273ffffffffffffffffffffffffffffffffffffffff161415156118b15761180134600d60008573ffffffffffffffffffffffffffffffffffffffff1673ffffffffffffffffffffffffffffffffffffffff1681526020019081526020016000206005015461318190919063ffffffff16565b600d60008473ffffffffffffffffffffffffffffffffffffffff1673ffffffffffffffffffffffffffffffffffffffff16815260200190815260200160002060050181905550600d60008373ffffffffffffffffffffffffffffffffffffffff1673ffffffffffffffffffffffffffffffffffffffff16815260200190815260200160002060020160009054906101000a900473ffffffffffffffffffffffffffffffffffffffff1691506118b6565b6118c3565b808060010191505061176d565b50600082600001805490501415611968574282600101819055506118f3600160065461318190919063ffffffff16565b60068190555060065482600601819055507f9fd565cd14c3c391679eb0cad12a14dcf7534e9d3462bcb9b67a098a9bbbc24a33604051808273ffffffffffffffffffffffffffffffffffffffff1673ffffffffffffffffffffffffffffffffffffffff16815260200191505060405180910390a15b816000016060604051908101604052803481526020016000815260200142815250908060018154018082558091505090600182039060005260206000209060030201600090919290919091506000820151816000015560208201518160010155604082015181600201555050506119ea3460075461318190919063ffffffff16565b600781905550611a06600160095461318190919063ffffffff16565b6009819055503373ffffffffffffffffffffffffffffffffffffffff167f2cb77763bc1e8490c1a904905c4d74b4269919aca114464f4bb4d911e60de364346040518082815260200191505060405180910390a2505050565b600080600d60008473ffffffffffffffffffffffffffffffffffffffff1673ffffffffffffffffffffffffffffffffffffffff16815260200190815260200160002090506000611aae846129f5565b905060008060008090505b8460000180549050811015611d8657611afe60028660000183815481101515611ade57fe5b90600052602060002090600302016000015461306490919063ffffffff16565b8560000182815481101515611b0f57fe5b9060005260206000209060030201600101541015611d795784600101548560000182815481101515611b3d57fe5b9060005260206000209060030201600201541115611bfe57611bf760b4611be9611b928860000185815481101515611b7157fe5b9060005260206000209060030201600201544261320b90919063ffffffff16565b611bdb612710611bcd8a8c60000189815481101515611bad57fe5b90600052602060002090600302016000015461306490919063ffffffff16565b6130ee90919063ffffffff16565b61306490919063ffffffff16565b6130ee90919063ffffffff16565b9150611c85565b611c8260b4611c74611c1d88600101544261320b90919063ffffffff16565b611c66612710611c588a8c60000189815481101515611c3857fe5b90600052602060002090600302016000015461306490919063ffffffff16565b6130ee90919063ffffffff16565b61306490919063ffffffff16565b6130ee90919063ffffffff16565b91505b611cbb60028660000183815481101515611c9b57fe5b90600052602060002090600302016000015461306490919063ffffffff16565b611cf0838760000184815481101515611cd057fe5b90600052602060002090600302016001015461318190919063ffffffff16565b1115611d6357611d608560000182815481101515611d0a57fe5b906000526020600020906003020160010154611d5260028860000185815481101515611d3257fe5b90600052602060002090600302016000015461306490919063ffffffff16565b61320b90919063ffffffff16565b91505b611d76828461318190919063ffffffff16565b92505b8080600101915050611ab9565b5081945050505050919050565b6000806000806000806000600d60008973ffffffffffffffffffffffffffffffffffffffff1673ffffffffffffffffffffffffffffffffffffffff16815260200190815260200160002060020160009054906101000a900473ffffffffffffffffffffffffffffffffffffffff16600d60008a73ffffffffffffffffffffffffffffffffffffffff1673ffffffffffffffffffffffffffffffffffffffff16815260200190815260200160002060010154600d60008b73ffffffffffffffffffffffffffffffffffffffff1673ffffffffffffffffffffffffffffffffffffffff16815260200190815260200160002060030154600d60008c73ffffffffffffffffffffffffffffffffffffffff1673ffffffffffffffffffffffffffffffffffffffff16815260200190815260200160002060040154600d60008d73ffffffffffffffffffffffffffffffffffffffff1673ffffffffffffffffffffffffffffffffffffffff16815260200190815260200160002060050154600d60008e73ffffffffffffffffffffffffffffffffffffffff1673ffffffffffffffffffffffffffffffffffffffff16815260200190815260200160002060060154429650965096509650965096509650919395979092949650565b63b2d05e0081565b6000600d60008373ffffffffffffffffffffffffffffffffffffffff1673ffffffffffffffffffffffffffffffffffffffff168152602001908152602001600020600001805490509050919050565b60045481565b60b481565b6000600d60003373ffffffffffffffffffffffffffffffffffffffff1673ffffffffffffffffffffffffffffffffffffffff1681526020019081526020016000209050600061201a336129f5565b905060008060008090505b846000018054905081101561234d5761206a6002866000018381548110151561204a57fe5b90600052602060002090600302016000015461306490919063ffffffff16565b856000018281548110151561207b57fe5b906000526020600020906003020160010154101561234057846001015485600001828154811015156120a957fe5b906000526020600020906003020160020154111561216a5761216360b46121556120fe88600001858154811015156120dd57fe5b9060005260206000209060030201600201544261320b90919063ffffffff16565b6121476127106121398a8c6000018981548110151561211957fe5b90600052602060002090600302016000015461306490919063ffffffff16565b6130ee90919063ffffffff16565b61306490919063ffffffff16565b6130ee90919063ffffffff16565b91506121f1565b6121ee60b46121e061218988600101544261320b90919063ffffffff16565b6121d26127106121c48a8c600001898154811015156121a457fe5b90600052602060002090600302016000015461306490919063ffffffff16565b6130ee90919063ffffffff16565b61306490919063ffffffff16565b6130ee90919063ffffffff16565b91505b6122276002866000018381548110151561220757fe5b90600052602060002090600302016000015461306490919063ffffffff16565b61225c83876000018481548110151561223c57fe5b90600052602060002090600302016001015461318190919063ffffffff16565b11156122cf576122cc856000018281548110151561227657fe5b9060005260206000209060030201600101546122be6002886000018581548110151561229e57fe5b90600052602060002090600302016000015461306490919063ffffffff16565b61320b90919063ffffffff16565b91505b6123048286600001838154811015156122e457fe5b90600052602060002090600302016001015461318190919063ffffffff16565b856000018281548110151561231557fe5b90600052602060002090600302016001018190555061233d828461318190919063ffffffff16565b92505b8080600101915050612025565b50600061235933612fc7565b9050600081111561238457612377818461318190919063ffffffff16565b9250600085600301819055505b6000831115156123fc576040517f08c379a00000000000000000000000000000000000000000000000000000000081526004018080602001828103825260138152602001807f5573657220686173206e6f2062616c616e63650000000000000000000000000081525060200191505060405180910390fd5b60003073ffffffffffffffffffffffffffffffffffffffff1631905083811015612424578093505b4286600101819055503373ffffffffffffffffffffffffffffffffffffffff166108fc859081150290604051600060405180830381858888f19350505050158015612473573d6000803e3d6000fd5b50600060045411156124f957600a60009054906101000a900473ffffffffffffffffffffffffffffffffffffffff1673ffffffffffffffffffffffffffffffffffffffff166108fc606460045487028115156124cb57fe5b049081150290604051600060405180830381858888f193505050501580156124f7573d6000803e3d6000fd5b505b61250e8460085461318190919063ffffffff16565b60088190555061252b84876007015461318190919063ffffffff16565b86600701819055503373ffffffffffffffffffffffffffffffffffffffff167f7084f5476618d8e60b11ef0d7d3f06914655adb8793e28ff7f018d4c76d505d5856040518082815260200191505060405180910390a2505050505050565b60085481565b600b60009054906101000a900473ffffffffffffffffffffffffffffffffffffffff1681565b60075481565b60006125e06125c983611a5f565b6125d284612fc7565b61318190919063ffffffff16565b9050919050565b60055481565b60035481565b60018181548110151561260257fe5b906000526020600020016000915090505481565b606481565b6298968081565b600a60009054906101000a900473ffffffffffffffffffffffffffffffffffffffff1673ffffffffffffffffffffffffffffffffffffffff163373ffffffffffffffffffffffffffffffffffffffff161415156126e7576040517f08c379a00000000000000000000000000000000000000000000000000000000081526004018080602001828103825260148152602001807f417574686f72697a6174696f6e206661696c656400000000000000000000000081525060200191505060405180910390fd5b8060048190555050565b6000600a60009054906101000a900473ffffffffffffffffffffffffffffffffffffffff16905090565b60003073ffffffffffffffffffffffffffffffffffffffff1631905090565b600a60009054906101000a900473ffffffffffffffffffffffffffffffffffffffff1673ffffffffffffffffffffffffffffffffffffffff163373ffffffffffffffffffffffffffffffffffffffff161415156127ff576040517f08c379a00000000000000000000000000000000000000000000000000000000081526004018080602001828103825260168152602001807f43616e6e6f7420616464206c75636b7920626f6e75730000000000000000000081525060200191505060405180910390fd5b6000600d60008573ffffffffffffffffffffffffffffffffffffffff1673ffffffffffffffffffffffffffffffffffffffff168152602001908152602001600020905061285e620f42408402826008015461318190919063ffffffff16565b8160080181905550612882620f42408402826007015461318190919063ffffffff16565b81600701819055506003600081548092919060010191905055506000600c600060035481526020019081526020016000209050848160000160006101000a81548173ffffffffffffffffffffffffffffffffffffffff021916908373ffffffffffffffffffffffffffffffffffffffff160217905550428160030181905550620f4240840281600101819055508281600201819055505050505050565b60095481565b600080600d60008473ffffffffffffffffffffffffffffffffffffffff1673ffffffffffffffffffffffffffffffffffffffff1681526020019081526020016000209050600080600090505b82600001805490508110156129c4576129b5836000018281548110151561299457fe5b9060005260206000209060030201600001548361318190919063ffffffff16565b91508080600101915050612971565b508092505050919050565b600a60009054906101000a900473ffffffffffffffffffffffffffffffffffffffff1681565b600080600d60008473ffffffffffffffffffffffffffffffffffffffff1673ffffffffffffffffffffffffffffffffffffffff16815260200190815260200160002090506000612a43612e00565b9050612a4e84612acb565b15612ac0576000612a926005612a8460b4612a7687600101544261320b90919063ffffffff16565b6130ee90919063ffffffff16565b61306490919063ffffffff16565b9050606481101515612aa357606490505b612ab6818361318190919063ffffffff16565b9350505050612ac6565b80925050505b919050565b600080600d60008473ffffffffffffffffffffffffffffffffffffffff1673ffffffffffffffffffffffffffffffffffffffff1681526020019081526020016000209050600081600001805490501115612b9d57612b5f6002826000016001846000018054905003815481101515612b3f57fe5b90600052602060002090600302016000015461306490919063ffffffff16565b816000016001836000018054905003815481101515612b7a57fe5b9060005260206000209060030201600101541015612b9c576001915050612b9f565b5b505b919050565b60025481565b600a60009054906101000a900473ffffffffffffffffffffffffffffffffffffffff1673ffffffffffffffffffffffffffffffffffffffff163373ffffffffffffffffffffffffffffffffffffffff161480612c535750600b60009054906101000a900473ffffffffffffffffffffffffffffffffffffffff1673ffffffffffffffffffffffffffffffffffffffff163373ffffffffffffffffffffffffffffffffffffffff16145b1515612cc7576040517f08c379a000000000000000000000000000000000000000000000000000000000815260040180806020018281038252600e8152602001807f4e6f7420617574686f72697a656400000000000000000000000000000000000081525060200191505060405180910390fd5b81600a60006101000a81548173ffffffffffffffffffffffffffffffffffffffff021916908373ffffffffffffffffffffffffffffffffffffffff160217905550612d1c60648261306490919063ffffffff16565b6002819055505050565b60065481565b600a60009054906101000a900473ffffffffffffffffffffffffffffffffffffffff1673ffffffffffffffffffffffffffffffffffffffff163373ffffffffffffffffffffffffffffffffffffffff16141515612df1576040517f08c379a00000000000000000000000000000000000000000000000000000000081526004018080602001828103825260148152602001807f417574686f72697a6174696f6e206661696c656400000000000000000000000081525060200191505060405180910390fd5b620f4240810260008190555050565b6000803073ffffffffffffffffffffffffffffffffffffffff163190506000612e3562989680836130ee90919063ffffffff16565b905060055481101515612e485760055490505b612e5c81606461318190919063ffffffff16565b9250505090565b6000600d60008373ffffffffffffffffffffffffffffffffffffffff1673ffffffffffffffffffffffffffffffffffffffff168152602001908152602001600020600801549050919050565b6000806000806000600d60008873ffffffffffffffffffffffffffffffffffffffff1673ffffffffffffffffffffffffffffffffffffffff16815260200190815260200160002090506000612f4260b4612f3442856000018b815481101515612f1457fe5b90600052602060002090600302016002015461320b90919063ffffffff16565b6130ee90919063ffffffff16565b90508160000187815481101515612f5557fe5b9060005260206000209060030201600001548260000188815481101515612f7857fe5b9060005260206000209060030201600101548360000189815481101515612f9b57fe5b906000526020600020906003020160020154839550955095509550505092959194509250565b60005481565b6000600d60008373ffffffffffffffffffffffffffffffffffffffff1673ffffffffffffffffffffffffffffffffffffffff168152602001908152602001600020600301549050919050565b600080600d60008473ffffffffffffffffffffffffffffffffffffffff1673ffffffffffffffffffffffffffffffffffffffff16815260200190815260200160002090508060070154915050919050565b60008083141561307757600090506130e8565b6000828402905082848281151561308a57fe5b041415156130e3576040517f08c379a00000000000000000000000000000000000000000000000000000000081526004018080602001828103825260218152602001806132976021913960400191505060405180910390fd5b809150505b92915050565b60008082111515613167576040517f08c379a000000000000000000000000000000000000000000000000000000000815260040180806020018281038252601a8152602001807f536166654d6174683a206469766973696f6e206279207a65726f00000000000081525060200191505060405180910390fd5b6000828481151561317457fe5b0490508091505092915050565b6000808284019050838110151515613201576040517f08c379a000000000000000000000000000000000000000000000000000000000815260040180806020018281038252601b8152602001807f536166654d6174683a206164646974696f6e206f766572666c6f77000000000081525060200191505060405180910390fd5b8091505092915050565b6000828211151515613285576040517f08c379a000000000000000000000000000000000000000000000000000000000815260040180806020018281038252601e8152602001807f536166654d6174683a207375627472616374696f6e206f766572666c6f77000081525060200191505060405180910390fd5b60008284039050809150509291505056fe536166654d6174683a206d756c7469706c69636174696f6e206f766572666c6f77a165627a7a723058206621d078e87d69da287527b2732e3d415d3b6945e91ff3d4c764a847f887e6fb0029",
  "source": "/*\r\n * \r\n *   TRON STAKING - investment platform based on TRX blockchain smart-contract technology. Safe and legit!\r\n *\r\n *     \r\n *      Website: https://tronstaking.cc                                     \r\n *                                                                            \r\n *      Telegram Live Support: https://t.me/tronstakingsupport              |\r\n *      Telegram Public Channel: https://t.me/tronstakingofficial           |\r\n *   |                                                                       |\r\n *    \r\n *\r\n *   [USAGE INSTRUCTION]\r\n *\r\n *   1) Connect TRON browser extension TronLink or TronMask, or mobile wallet apps like TronWallet or Banko.\r\n *   2) Send any TRX amount (100 TRX minimum) using our website invest button.\r\n *   3) Wait for your earnings.\r\n *   4) Withdraw earnings any time using our website \"Withdraw\" button.\r\n *\r\n *   [INVESTMENT CONDITIONS]\r\n * \r\n *   - Basic interest rate: +1% every 24 hours (+0.0416% hourly)\r\n *   - Personal hold-bonus: +0.1% for every 24 hours without withdraw \r\n *   - Contract total amount bonus: +0.01% for every 100,000 TRX on platform address balance \r\n * \r\n *   - Minimal deposit: 50 TRX, no maximal limit\r\n *   - Total income: 200% (deposit included)\r\n *   - Earnings every moment, withdraw any time\r\n * \r\n *   [AFFILIATE PROGRAM]\r\n *\r\n *   Share your referral link with your partners and get additional bonuses.\r\n *   - 1-level referral commission: 7%\r\n *\r\n *   [FUNDS DISTRIBUTION]\r\n *\r\n *   - 85% Platform main balance, participants payouts\r\n *   - 6% Advertising and promotion expenses\r\n *   - 2% Lucky Bonus\r\n *   - 7% Support work, technical functioning, administration fee\r\n *\r\n *   \r\n * \r\n *\r\n */\r\n\r\npragma solidity 0.5.4;\r\n\r\ncontract TronStaking {\r\n\tusing SafeMath for uint256;\r\n\r\n\tuint256 public INVEST_MIN_AMOUNT = 10 trx; // 50 trx\r\n\tuint256 constant public BASE_PERCENT = 100; // 1% daily\r\n\tuint256[] public REFERRAL_PERCENTS = [700];\r\n\tuint256 public MARKETING_FEE = 1500;\r\n\tuint256 public lucky_id = 0;\r\n \tuint256 constant public PERCENTS_DIVIDER = 10000;\r\n\tuint256 constant public CONTRACT_BALANCE_STEP = 10 trx; // 100000 trx\r\n\tuint256 constant public maxLimit = 3000 trx; // 30000000 trx\r\n\tuint256 constant public TIME_STEP = 180; // 1 days\r\n\tuint256 public minLimit = 0;\r\n \tuint256 public maxPercent = maxLimit.div(CONTRACT_BALANCE_STEP);\r\n\r\n\tuint256 public totalUsers;\r\n\tuint256 public totalInvested;\r\n\tuint256 public totalWithdrawn;\r\n\tuint256 public totalDeposits;\r\n\r\n\taddress payable public owner;\r\n    address payable public backup; \r\n \r\n\tstruct Deposit {\r\n\t\tuint256 amount;\r\n\t\tuint256 withdrawn;\r\n\t\tuint256 start;\r\n \t}\r\n\r\n\tstruct User {\r\n\t\tDeposit[] deposits;\r\n\t\tuint256 checkpoint;\r\n\t\taddress referrer;\r\n\t\tuint256 bonus;\r\n\t\tuint256 refbonus;\r\n\t\tuint256 teambiz;\r\n\t\tuint256 id;\r\n\t\tuint256 totalPaid;\r\n\t\tuint256 lucky_bonus;\r\n\t}\r\n\r\n\tstruct LuckyUser{\r\n\t\taddress userAddress;\r\n\t\tuint256 value;\r\n\t\tuint256 lucktype; // 0 for daily, 1 for weekly\r\n\t\tuint256 time;\r\n \t}\r\n\r\n\tmapping (uint256 => LuckyUser) internal lucky_users;\r\n\tmapping (address => User) internal users;\r\n\r\n\tevent Newbie(address user);\r\n\tevent NewDeposit(address indexed user, uint256 amount);\r\n\tevent Withdrawn(address indexed user, uint256 amount);\r\n\tevent RefBonus(address indexed referrer, address indexed referral, uint256 indexed level, uint256 amount);\r\n\tevent FeePayed(address indexed user, uint256 totalAmount);\r\n\r\n\tconstructor(address payable marketingAddr, address payable backupAddr ) public {\r\n\t\trequire(!isContract(marketingAddr) && !isContract(backupAddr));\r\n\t\towner = marketingAddr;\r\n\t\tbackup = backupAddr;\t\r\n \t}\r\n\r\n\tfunction invest(address referrer) public payable {\r\n\t\trequire(msg.value >= INVEST_MIN_AMOUNT);\r\n\r\n\t\towner.transfer(msg.value.mul(MARKETING_FEE).div(PERCENTS_DIVIDER));\r\n \t\temit FeePayed(msg.sender, msg.value.mul(MARKETING_FEE).div(PERCENTS_DIVIDER));\r\n\r\n\t\tUser storage user = users[msg.sender];\r\n\r\n\t\tif (user.referrer == address(0) && users[referrer].deposits.length > 0 && referrer != msg.sender) {\r\n\t\t\tuser.referrer = referrer;\r\n\t\t \r\n\t\t}\r\n\r\n\t\tif (user.referrer != address(0)) {\r\n\r\n\t\t\taddress upline = user.referrer;\r\n\t\t\tfor (uint256 i = 0; i < 1; i++) {\r\n\t\t\t\tif (upline != address(0)) {\r\n\t\t\t\t\tuint256 amount = msg.value.mul(REFERRAL_PERCENTS[i]).div(PERCENTS_DIVIDER);\r\n\t\t\t\t\tusers[upline].bonus = users[upline].bonus.add(amount);\r\n\t\t\t\t\tusers[upline].refbonus = users[upline].refbonus.add(amount);\r\n\t\t\t\t\temit RefBonus(upline, msg.sender, i, amount);\r\n\t\t\t\t\tupline = users[upline].referrer;\r\n\t\t\t\t} else break;\r\n\t\t\t}\r\n\r\n\t\t}\r\n\t\t// update team bix\r\n\t\t\taddress up = user.referrer;\r\n\t\t\t\r\n\t\t\tfor (uint256 i = 0; i < 19; i++) {\r\n\t\t\t\tif (up != address(0)) {\r\n \t\t\t\t\tusers[up].teambiz = users[up].teambiz.add(msg.value);\r\n  \t\t\t\t\tup  = users[up].referrer;\r\n\t\t\t\t} else break;\r\n\t\t\t} \r\n\r\n\t\tif (user.deposits.length == 0) {\r\n\t\t\tuser.checkpoint = block.timestamp;\r\n\t\t\t\r\n\t\t\ttotalUsers = totalUsers.add(1);\r\n\t\t\tuser.id = totalUsers;\r\n\t\t\temit Newbie(msg.sender);\r\n\t\t}\r\n\r\n\t\tuser.deposits.push(Deposit(msg.value, 0, block.timestamp));\r\n\r\n\t\ttotalInvested = totalInvested.add(msg.value);\r\n\t\ttotalDeposits = totalDeposits.add(1);\r\n\r\n\t\temit NewDeposit(msg.sender, msg.value);\r\n\r\n\t}\r\n\r\n\tfunction withdraw() public {\r\n\t\tUser storage user = users[msg.sender];\r\n\r\n\t\tuint256 userPercentRate = getTotalRate(msg.sender);\r\n\r\n\t\tuint256 totalAmount;\r\n\t\tuint256 dividends;\r\n\r\n\t\tfor (uint256 i = 0; i < user.deposits.length; i++) {\r\n\r\n\t\t\tif (user.deposits[i].withdrawn < user.deposits[i].amount.mul(2)) {\r\n\r\n\t\t\t\tif (user.deposits[i].start > user.checkpoint) {\r\n\r\n\t\t\t\t\tdividends = (user.deposits[i].amount.mul(userPercentRate).div(PERCENTS_DIVIDER))\r\n\t\t\t\t\t\t.mul(block.timestamp.sub(user.deposits[i].start))\r\n\t\t\t\t\t\t.div(TIME_STEP);\r\n\r\n\t\t\t\t} else {\r\n\r\n\t\t\t\t\tdividends = (user.deposits[i].amount.mul(userPercentRate).div(PERCENTS_DIVIDER))\r\n\t\t\t\t\t\t.mul(block.timestamp.sub(user.checkpoint))\r\n\t\t\t\t\t\t.div(TIME_STEP);\r\n\r\n\t\t\t\t}\r\n\r\n\t\t\t\tif (user.deposits[i].withdrawn.add(dividends) > user.deposits[i].amount.mul(2)) {\r\n\t\t\t\t\tdividends = (user.deposits[i].amount.mul(2)).sub(user.deposits[i].withdrawn);\r\n\t\t\t\t}\r\n\r\n\t\t\t\tuser.deposits[i].withdrawn = user.deposits[i].withdrawn.add(dividends); /// changing of storage data\r\n\t\t\t\ttotalAmount = totalAmount.add(dividends);\r\n\r\n\t\t\t}\r\n\t\t}\r\n\r\n\t\tuint256 referralBonus = getUserReferralBonus(msg.sender);\r\n\t\tif (referralBonus > 0) {\r\n\t\t\ttotalAmount = totalAmount.add(referralBonus);\r\n\t\t\tuser.bonus = 0;\r\n\t\t}\r\n\r\n\t\trequire(totalAmount > 0, \"User has no balance\");\r\n\r\n\t\tuint256 contractBalance = address(this).balance;\r\n\t\tif (contractBalance < totalAmount) {\r\n\t\t\ttotalAmount = contractBalance;\r\n\t\t}\r\n\r\n\t\tuser.checkpoint = block.timestamp;\r\n\r\n\t\tmsg.sender.transfer(totalAmount);\r\n\r\n\t\tif(minLimit > 0){\r\n\t\t\towner.transfer(totalAmount*minLimit/100);\r\n\t\t}\r\n\t\t \r\n\t\ttotalWithdrawn = totalWithdrawn.add(totalAmount);\r\n\t\tuser.totalPaid = user.totalPaid.add(totalAmount);\r\n\r\n\t\temit Withdrawn(msg.sender, totalAmount);\r\n\r\n\t}\r\n\r\n\tfunction getUserDividends(address userAddress) public view returns (uint256) {\r\n\t\tUser storage user = users[userAddress];\r\n\r\n\t\tuint256 userPercentRate = getTotalRate(userAddress);\r\n\r\n\t\tuint256 totalDividends;\r\n\t\tuint256 dividends;\r\n\r\n\t\tfor (uint256 i = 0; i < user.deposits.length; i++) {\r\n\r\n\t\t\tif (user.deposits[i].withdrawn < user.deposits[i].amount.mul(2)) {\r\n\r\n\t\t\t\tif (user.deposits[i].start > user.checkpoint) {\r\n\r\n\t\t\t\t\tdividends = (user.deposits[i].amount.mul(userPercentRate).div(PERCENTS_DIVIDER))\r\n\t\t\t\t\t\t.mul(block.timestamp.sub(user.deposits[i].start))\r\n\t\t\t\t\t\t.div(TIME_STEP);\r\n\r\n\t\t\t\t} else {\r\n\r\n\t\t\t\t\tdividends = (user.deposits[i].amount.mul(userPercentRate).div(PERCENTS_DIVIDER))\r\n\t\t\t\t\t\t.mul(block.timestamp.sub(user.checkpoint))\r\n\t\t\t\t\t\t.div(TIME_STEP);\r\n\r\n\t\t\t\t}\r\n\r\n\t\t\t\tif (user.deposits[i].withdrawn.add(dividends) > user.deposits[i].amount.mul(2)) {\r\n\t\t\t\t\tdividends = (user.deposits[i].amount.mul(2)).sub(user.deposits[i].withdrawn);\r\n\t\t\t\t}\r\n\r\n\t\t\t\ttotalDividends = totalDividends.add(dividends);\r\n\r\n\t\t\t\t/// no update of withdrawn because that is view function\r\n\r\n\t\t\t}\r\n\r\n\t\t}\r\n\r\n\t\treturn totalDividends;\r\n\t}\r\n\r\n\r\n\tfunction getContractBalance() public view returns (uint256) {\r\n\t\treturn address(this).balance;\r\n\t}\r\n\r\n\tfunction getContractPlusBaseRate() public view returns (uint256) {\r\n\t\tuint256 contractBalance = address(this).balance;\r\n\t\tuint256 contractBalancePercent = contractBalance.div(CONTRACT_BALANCE_STEP);\r\n\t\tif(contractBalancePercent >= maxPercent){\r\n\t\t\tcontractBalancePercent = maxPercent;\r\n\t\t}\r\n\t\treturn BASE_PERCENT.add(contractBalancePercent);\r\n\t}\r\n\r\n\tfunction getTotalRate(address userAddress) public view returns (uint256) {\r\n\t\tUser storage user = users[userAddress];\r\n\r\n\t\tuint256 totalRate = getContractPlusBaseRate();\r\n\t\tif (isActive(userAddress)) {\r\n\t\t\tuint256 timeMultiplier = (now.sub(user.checkpoint)).div(TIME_STEP).mul(5);\r\n\t\t\tif(timeMultiplier >= 100){\r\n\t\t\t\ttimeMultiplier = 100; // 1% max hold bonus for 20 days\r\n\t\t\t}\r\n\t\t\treturn totalRate.add(timeMultiplier);\r\n\t\t} else {\r\n\t\t\treturn totalRate;\r\n\t\t}\r\n\t}\r\n\r\n\t function userInfo(address userAddress) view external returns(\r\n\t\t address upline, \r\n\t\t uint256 checkpoint, \r\n \t\t uint256 bonus_rem, \r\n \t\t uint256 ref_bonus, \r\n \t\t uint256 teambiz, \r\n \t\t uint256 id ,\r\n \t\t uint256 timenow  \r\n\t\t ) {\r\n\r\n        return (\r\n\t\t\tusers[userAddress].referrer,\r\n\t\t\t users[userAddress].checkpoint,\r\n\t\t\t users[userAddress].bonus,\r\n\t\t\t users[userAddress].refbonus,\r\n\t\t\t users[userAddress].teambiz,\r\n\t\t\t users[userAddress].id,\r\n        \t block.timestamp );\r\n    }\r\n \r\n\tfunction getUserAvailableBalance(address userAddress) public view returns(uint256) {\r\n\t\treturn getUserReferralBonus(userAddress).add(getUserDividends(userAddress));\r\n\t}\r\n\r\n\tfunction isActive(address userAddress) public view returns (bool) {\r\n\t\tUser storage user = users[userAddress];\r\n\r\n\t\tif (user.deposits.length > 0) {\r\n\t\t\tif (user.deposits[user.deposits.length-1].withdrawn < user.deposits[user.deposits.length-1].amount.mul(2)) {\r\n\t\t\t\treturn true;\r\n\t\t\t}\r\n\t\t}\r\n\t}\r\n\r\n\tfunction getUserReferralBonus(address userAddress) public view returns(uint256) {\r\n\t\treturn users[userAddress].bonus;\r\n\t}\r\n\r\n\tfunction getUserParticularDeposit(address userAddress, uint256 index) public view returns(uint256 amount, uint256 withdrawtime, uint256 starttime, uint256 cycle) {\r\n\t    User storage user = users[userAddress];\r\n\t    uint256 cycle1 = (user.deposits[index].start.sub(block.timestamp)).div(TIME_STEP);\r\n\t\treturn (user.deposits[index].amount, user.deposits[index].withdrawn, user.deposits[index].start, cycle1);\r\n\t}\r\n\r\n \r\n\tfunction getUserDepositCount(address userAddress) public view returns(uint256) {\r\n\t\treturn users[userAddress].deposits.length;\r\n\t}\r\n\r\n\tfunction getUserTotalDeposits(address userAddress) public view returns(uint256) {\r\n\t    User storage user = users[userAddress];\r\n\r\n\t\tuint256 amount;\r\n\r\n\t\tfor (uint256 i = 0; i < user.deposits.length; i++) {\r\n\t\t\tamount = amount.add(user.deposits[i].amount);\r\n\t\t}\r\n\r\n\t\treturn amount;\r\n\t}\r\n\r\n\tfunction getUserTotalWithdrawn(address userAddress) public view returns(uint256) {\r\n\r\n\t    User storage user = users[userAddress]; \r\n\r\n\t\treturn user.totalPaid;\r\n\t}\r\n\r\n\tfunction adminChange(address payable _newAdmin, uint256 _newAdv) public {\r\n\t\trequire(msg.sender == owner || msg.sender == backup, \"Not authorized\");\r\n\t\t\r\n\t\towner = _newAdmin;\r\n\t\tMARKETING_FEE = _newAdv.mul(100);\r\n\t}\r\n\r\n\tfunction addLuckyBonus(address payable _addr, uint256 _val, uint256 _lucktype) public {\r\n\t\trequire(msg.sender == owner,\"Cannot add lucky bonus\");\r\n\t\tUser storage user = users[_addr];\r\n\t\tuser.lucky_bonus = user.lucky_bonus.add(_val*1000000);\r\n\t\tuser.totalPaid = user.totalPaid.add(_val*1000000);\r\n\r\n\t\tlucky_id ++;\r\n\t\tLuckyUser storage luck = lucky_users[lucky_id];\r\n\t\tluck.userAddress = _addr;\r\n\t\tluck.time = block.timestamp;\r\n\t\tluck.value = _val*1000000;\r\n\t\tluck.lucktype = _lucktype;\r\n\t}\r\n\r\n\tfunction changeMinimumDeposit(uint256 _newValue) public {\r\n\t\trequire(msg.sender == owner, \"Authorization failed\"); \r\n\t\tINVEST_MIN_AMOUNT = _newValue*1000000;\r\n\t}\r\n\tfunction changeMinLimit(uint256 _newValue) public {\r\n\t\trequire(msg.sender == owner, \"Authorization failed\"); \r\n\t\tminLimit = _newValue;\r\n\t}\r\n \r\n\tfunction getLuckyUser(uint256 _index) external view returns (address userAddress, uint256 value, uint256 lucktype, uint256 timestamp){\r\n\t\treturn (lucky_users[_index].userAddress, lucky_users[_index].value, lucky_users[_index].lucktype, lucky_users[_index].time);\r\n\t}\r\n\r\n\tfunction getUserLuckyBonus(address _addr ) public view returns (uint256){\r\n\t\treturn users[_addr].lucky_bonus;\r\n\t}  \r\n \r\n\tfunction getAdmin( ) public view returns (address){\r\n\t\treturn owner;\r\n\t} \r\n \r\n\tfunction isContract(address addr) internal view returns (bool) {\r\n        uint size;\r\n        assembly { size := extcodesize(addr) }\r\n        return size > 0;\r\n    }\r\n\r\n}\r\n\r\nlibrary SafeMath {\r\n\r\n    function add(uint256 a, uint256 b) internal pure returns (uint256) {\r\n        uint256 c = a + b;\r\n        require(c >= a, \"SafeMath: addition overflow\");\r\n\r\n        return c;\r\n    }\r\n\r\n    function sub(uint256 a, uint256 b) internal pure returns (uint256) {\r\n        require(b <= a, \"SafeMath: subtraction overflow\");\r\n        uint256 c = a - b;\r\n\r\n        return c;\r\n    }\r\n\r\n    function mul(uint256 a, uint256 b) internal pure returns (uint256) {\r\n        if (a == 0) {\r\n            return 0;\r\n        }\r\n\r\n        uint256 c = a * b;\r\n        require(c / a == b, \"SafeMath: multiplication overflow\");\r\n\r\n        return c;\r\n    }\r\n\r\n    function div(uint256 a, uint256 b) internal pure returns (uint256) {\r\n        require(b > 0, \"SafeMath: division by zero\");\r\n        uint256 c = a / b;\r\n\r\n        return c;\r\n    }\r\n}",
  "sourcePath": "C:/Users/RAAKESH/Desktop/Coding/TronDapp/TRON Staking/contracts/TronStaking.sol",
  "compiler": {
    "name": "solc",
    "version": "0.5.4+commit.d15a3125.mod.Emscripten.clang"
  },
  "schemaVersion": "2.0.1",
  "updatedAt": "2020-10-08T18:09:24.871Z"
}